{
  "contractName": "PurchaseLand",
  "abi": [
    {
      "inputs": [],
      "stateMutability": "nonpayable",
      "type": "constructor"
    },
    {
      "anonymous": false,
      "inputs": [
        {
          "indexed": true,
          "internalType": "address",
          "name": "owner",
          "type": "address"
        },
        {
          "indexed": true,
          "internalType": "address",
          "name": "approved",
          "type": "address"
        },
        {
          "indexed": true,
          "internalType": "uint256",
          "name": "tokenId",
          "type": "uint256"
        }
      ],
      "name": "Approval",
      "type": "event"
    },
    {
      "anonymous": false,
      "inputs": [
        {
          "indexed": true,
          "internalType": "address",
          "name": "owner",
          "type": "address"
        },
        {
          "indexed": true,
          "internalType": "address",
          "name": "operator",
          "type": "address"
        },
        {
          "indexed": false,
          "internalType": "bool",
          "name": "approved",
          "type": "bool"
        }
      ],
      "name": "ApprovalForAll",
      "type": "event"
    },
    {
      "anonymous": false,
      "inputs": [
        {
          "indexed": false,
          "internalType": "address",
          "name": "indexedFrom",
          "type": "address"
        },
        {
          "indexed": false,
          "internalType": "uint256",
          "name": "landId",
          "type": "uint256"
        },
        {
          "indexed": false,
          "internalType": "address",
          "name": "owner",
          "type": "address"
        }
      ],
      "name": "LandBought",
      "type": "event"
    },
    {
      "anonymous": false,
      "inputs": [
        {
          "indexed": false,
          "internalType": "address",
          "name": "from",
          "type": "address"
        },
        {
          "indexed": false,
          "internalType": "address",
          "name": "to",
          "type": "address"
        },
        {
          "indexed": false,
          "internalType": "uint256",
          "name": "landId",
          "type": "uint256"
        }
      ],
      "name": "LandTransfer",
      "type": "event"
    },
    {
      "anonymous": false,
      "inputs": [
        {
          "indexed": true,
          "internalType": "address",
          "name": "previousOwner",
          "type": "address"
        },
        {
          "indexed": true,
          "internalType": "address",
          "name": "newOwner",
          "type": "address"
        }
      ],
      "name": "OwnershipTransferred",
      "type": "event"
    },
    {
      "anonymous": false,
      "inputs": [
        {
          "indexed": true,
          "internalType": "address",
          "name": "from",
          "type": "address"
        },
        {
          "indexed": true,
          "internalType": "address",
          "name": "to",
          "type": "address"
        },
        {
          "indexed": true,
          "internalType": "uint256",
          "name": "tokenId",
          "type": "uint256"
        }
      ],
      "name": "Transfer",
      "type": "event"
    },
    {
      "inputs": [
        {
          "internalType": "address",
          "name": "to",
          "type": "address"
        },
        {
          "internalType": "uint256",
          "name": "tokenId",
          "type": "uint256"
        }
      ],
      "name": "approve",
      "outputs": [],
      "stateMutability": "nonpayable",
      "type": "function"
    },
    {
      "inputs": [
        {
          "internalType": "address",
          "name": "owner",
          "type": "address"
        }
      ],
      "name": "balanceOf",
      "outputs": [
        {
          "internalType": "uint256",
          "name": "",
          "type": "uint256"
        }
      ],
      "stateMutability": "view",
      "type": "function",
      "constant": true
    },
    {
      "inputs": [
        {
          "internalType": "uint256",
          "name": "tokenId",
          "type": "uint256"
        }
      ],
      "name": "getApproved",
      "outputs": [
        {
          "internalType": "address",
          "name": "",
          "type": "address"
        }
      ],
      "stateMutability": "view",
      "type": "function",
      "constant": true
    },
    {
      "inputs": [
        {
          "internalType": "address",
          "name": "owner",
          "type": "address"
        },
        {
          "internalType": "address",
          "name": "operator",
          "type": "address"
        }
      ],
      "name": "isApprovedForAll",
      "outputs": [
        {
          "internalType": "bool",
          "name": "",
          "type": "bool"
        }
      ],
      "stateMutability": "view",
      "type": "function",
      "constant": true
    },
    {
      "inputs": [],
      "name": "name",
      "outputs": [
        {
          "internalType": "string",
          "name": "",
          "type": "string"
        }
      ],
      "stateMutability": "view",
      "type": "function",
      "constant": true
    },
    {
      "inputs": [],
      "name": "owner",
      "outputs": [
        {
          "internalType": "address",
          "name": "",
          "type": "address"
        }
      ],
      "stateMutability": "view",
      "type": "function",
      "constant": true
    },
    {
      "inputs": [
        {
          "internalType": "uint256",
          "name": "tokenId",
          "type": "uint256"
        }
      ],
      "name": "ownerOf",
      "outputs": [
        {
          "internalType": "address",
          "name": "",
          "type": "address"
        }
      ],
      "stateMutability": "view",
      "type": "function",
      "constant": true
    },
    {
      "inputs": [
        {
          "internalType": "uint256",
          "name": "",
          "type": "uint256"
        }
      ],
      "name": "owners",
      "outputs": [
        {
          "internalType": "address",
          "name": "",
          "type": "address"
        }
      ],
      "stateMutability": "view",
      "type": "function",
      "constant": true
    },
    {
      "inputs": [],
      "name": "renounceOwnership",
      "outputs": [],
      "stateMutability": "nonpayable",
      "type": "function"
    },
    {
      "inputs": [
        {
          "internalType": "address",
          "name": "from",
          "type": "address"
        },
        {
          "internalType": "address",
          "name": "to",
          "type": "address"
        },
        {
          "internalType": "uint256",
          "name": "tokenId",
          "type": "uint256"
        }
      ],
      "name": "safeTransferFrom",
      "outputs": [],
      "stateMutability": "nonpayable",
      "type": "function"
    },
    {
      "inputs": [
        {
          "internalType": "address",
          "name": "from",
          "type": "address"
        },
        {
          "internalType": "address",
          "name": "to",
          "type": "address"
        },
        {
          "internalType": "uint256",
          "name": "tokenId",
          "type": "uint256"
        },
        {
          "internalType": "bytes",
          "name": "_data",
          "type": "bytes"
        }
      ],
      "name": "safeTransferFrom",
      "outputs": [],
      "stateMutability": "nonpayable",
      "type": "function"
    },
    {
      "inputs": [
        {
          "internalType": "address",
          "name": "operator",
          "type": "address"
        },
        {
          "internalType": "bool",
          "name": "approved",
          "type": "bool"
        }
      ],
      "name": "setApprovalForAll",
      "outputs": [],
      "stateMutability": "nonpayable",
      "type": "function"
    },
    {
      "inputs": [
        {
          "internalType": "bytes4",
          "name": "interfaceId",
          "type": "bytes4"
        }
      ],
      "name": "supportsInterface",
      "outputs": [
        {
          "internalType": "bool",
          "name": "",
          "type": "bool"
        }
      ],
      "stateMutability": "view",
      "type": "function",
      "constant": true
    },
    {
      "inputs": [],
      "name": "symbol",
      "outputs": [
        {
          "internalType": "string",
          "name": "",
          "type": "string"
        }
      ],
      "stateMutability": "view",
      "type": "function",
      "constant": true
    },
    {
      "inputs": [
        {
          "internalType": "uint256",
          "name": "tokenId",
          "type": "uint256"
        }
      ],
      "name": "tokenURI",
      "outputs": [
        {
          "internalType": "string",
          "name": "",
          "type": "string"
        }
      ],
      "stateMutability": "view",
      "type": "function",
      "constant": true
    },
    {
      "inputs": [
        {
          "internalType": "address",
          "name": "from",
          "type": "address"
        },
        {
          "internalType": "address",
          "name": "to",
          "type": "address"
        },
        {
          "internalType": "uint256",
          "name": "tokenId",
          "type": "uint256"
        }
      ],
      "name": "transferFrom",
      "outputs": [],
      "stateMutability": "nonpayable",
      "type": "function"
    },
    {
      "inputs": [
        {
          "internalType": "address",
          "name": "newOwner",
          "type": "address"
        }
      ],
      "name": "transferOwnership",
      "outputs": [],
      "stateMutability": "nonpayable",
      "type": "function"
    },
    {
      "inputs": [
        {
          "internalType": "uint256",
          "name": "landId",
          "type": "uint256"
        }
      ],
      "name": "purchase",
      "outputs": [
        {
          "internalType": "uint256",
          "name": "",
          "type": "uint256"
        }
      ],
      "stateMutability": "payable",
      "type": "function",
      "payable": true
    },
    {
      "inputs": [],
      "name": "getOwners",
      "outputs": [
        {
          "internalType": "address[320]",
          "name": "",
          "type": "address[320]"
        }
      ],
      "stateMutability": "view",
      "type": "function",
      "constant": true
    },
    {
      "inputs": [
        {
          "internalType": "uint256",
          "name": "landId",
          "type": "uint256"
        }
      ],
      "name": "getOwner",
      "outputs": [
        {
          "internalType": "address",
          "name": "owner",
          "type": "address"
        }
      ],
      "stateMutability": "view",
      "type": "function",
      "constant": true
    },
    {
      "inputs": [
        {
          "internalType": "address",
          "name": "from",
          "type": "address"
        },
        {
          "internalType": "address",
          "name": "to",
          "type": "address"
        },
        {
          "internalType": "uint256",
          "name": "landId",
          "type": "uint256"
        }
      ],
      "name": "transferLand",
      "outputs": [
        {
          "internalType": "uint256",
          "name": "",
          "type": "uint256"
        }
      ],
      "stateMutability": "nonpayable",
      "type": "function"
    }
  ],
  "bytecode": "0x60806040523480156200001157600080fd5b506040518060400160405280600881526020017f4d6574614c616e640000000000000000000000000000000000000000000000008152506040518060400160405280600381526020017f4d4e440000000000000000000000000000000000000000000000000000000000815250816000908051906020019062000096929190620001a6565b508060019080519060200190620000af929190620001a6565b505050620000d2620000c6620000d860201b60201c565b620000e060201b60201c565b620002bb565b600033905090565b6000600660009054906101000a900473ffffffffffffffffffffffffffffffffffffffff16905081600660006101000a81548173ffffffffffffffffffffffffffffffffffffffff021916908373ffffffffffffffffffffffffffffffffffffffff1602179055508173ffffffffffffffffffffffffffffffffffffffff168173ffffffffffffffffffffffffffffffffffffffff167f8be0079c531659141344cd1fd0a4f28419497f9722a3daafe3b4186f6b6457e060405160405180910390a35050565b828054620001b49062000256565b90600052602060002090601f016020900481019282620001d8576000855562000224565b82601f10620001f357805160ff191683800117855562000224565b8280016001018555821562000224579182015b828111156200022357825182559160200191906001019062000206565b5b50905062000233919062000237565b5090565b5b808211156200025257600081600090555060010162000238565b5090565b600060028204905060018216806200026f57607f821691505b602082108114156200028657620002856200028c565b5b50919050565b7f4e487b7100000000000000000000000000000000000000000000000000000000600052602260045260246000fd5b612fc580620002cb6000396000f3fe60806040526004361061012a5760003560e01c80638da5cb5b116100ab578063b88d4fde1161006f578063b88d4fde14610404578063c41a360a1461042d578063c87b56dd1461046a578063e985e9c5146104a7578063efef39a1146104e4578063f2fde38b146105145761012a565b80638da5cb5b1461031d57806395d89b4114610348578063a0e67e2b14610373578063a22cb4651461039e578063a762c342146103c75761012a565b806323b872dd116100f257806323b872dd1461023a57806342842e0e146102635780636352211e1461028c57806370a08231146102c9578063715018a6146103065761012a565b806301ffc9a71461012f578063025e7c271461016c57806306fdde03146101a9578063081812fc146101d4578063095ea7b314610211575b600080fd5b34801561013b57600080fd5b50610156600480360381019061015191906120ff565b61053d565b604051610163919061293f565b60405180910390f35b34801561017857600080fd5b50610193600480360381019061018e9190612151565b61061f565b6040516101a0919061284e565b60405180910390f35b3480156101b557600080fd5b506101be610656565b6040516101cb919061295a565b60405180910390f35b3480156101e057600080fd5b506101fb60048036038101906101f69190612151565b6106e8565b604051610208919061284e565b60405180910390f35b34801561021d57600080fd5b50610238600480360381019061023391906120c3565b61076d565b005b34801561024657600080fd5b50610261600480360381019061025c9190611fbd565b610885565b005b34801561026f57600080fd5b5061028a60048036038101906102859190611fbd565b6108e5565b005b34801561029857600080fd5b506102b360048036038101906102ae9190612151565b610905565b6040516102c0919061284e565b60405180910390f35b3480156102d557600080fd5b506102f060048036038101906102eb9190611f58565b610947565b6040516102fd9190612b5c565b60405180910390f35b34801561031257600080fd5b5061031b6109ff565b005b34801561032957600080fd5b50610332610a87565b60405161033f919061284e565b60405180910390f35b34801561035457600080fd5b5061035d610ab1565b60405161036a919061295a565b60405180910390f35b34801561037f57600080fd5b50610388610b43565b6040516103959190612923565b60405180910390f35b3480156103aa57600080fd5b506103c560048036038101906103c09190612087565b610bc6565b005b3480156103d357600080fd5b506103ee60048036038101906103e99190611fbd565b610bdc565b6040516103fb9190612b5c565b60405180910390f35b34801561041057600080fd5b5061042b6004803603810190610426919061200c565b610ca9565b005b34801561043957600080fd5b50610454600480360381019061044f9190612151565b610d0b565b604051610461919061284e565b60405180910390f35b34801561047657600080fd5b50610491600480360381019061048c9190612151565b610d71565b60405161049e919061295a565b60405180910390f35b3480156104b357600080fd5b506104ce60048036038101906104c99190611f81565b610e18565b6040516104db919061293f565b60405180910390f35b6104fe60048036038101906104f99190612151565b610eac565b60405161050b9190612b5c565b60405180910390f35b34801561052057600080fd5b5061053b60048036038101906105369190611f58565b611082565b005b60007f80ac58cd000000000000000000000000000000000000000000000000000000007bffffffffffffffffffffffffffffffffffffffffffffffffffffffff1916827bffffffffffffffffffffffffffffffffffffffffffffffffffffffff1916148061060857507f5b5e139f000000000000000000000000000000000000000000000000000000007bffffffffffffffffffffffffffffffffffffffffffffffffffffffff1916827bffffffffffffffffffffffffffffffffffffffffffffffffffffffff1916145b8061061857506106178261117a565b5b9050919050565b600781610140811061063057600080fd5b016000915054906101000a900473ffffffffffffffffffffffffffffffffffffffff1681565b60606000805461066590612dba565b80601f016020809104026020016040519081016040528092919081815260200182805461069190612dba565b80156106de5780601f106106b3576101008083540402835291602001916106de565b820191906000526020600020905b8154815290600101906020018083116106c157829003601f168201915b5050505050905090565b60006106f3826111e4565b610732576040517f08c379a000000000000000000000000000000000000000000000000000000000815260040161072990612abc565b60405180910390fd5b6004600083815260200190815260200160002060009054906101000a900473ffffffffffffffffffffffffffffffffffffffff169050919050565b600061077882610905565b90508073ffffffffffffffffffffffffffffffffffffffff168373ffffffffffffffffffffffffffffffffffffffff1614156107e9576040517f08c379a00000000000000000000000000000000000000000000000000000000081526004016107e090612b1c565b60405180910390fd5b8073ffffffffffffffffffffffffffffffffffffffff16610808611250565b73ffffffffffffffffffffffffffffffffffffffff161480610837575061083681610831611250565b610e18565b5b610876576040517f08c379a000000000000000000000000000000000000000000000000000000000815260040161086d90612a5c565b60405180910390fd5b6108808383611258565b505050565b610896610890611250565b82611311565b6108d5576040517f08c379a00000000000000000000000000000000000000000000000000000000081526004016108cc90612b3c565b60405180910390fd5b6108e08383836113ef565b505050565b61090083838360405180602001604052806000815250610ca9565b505050565b6000806002600084815260200190815260200160002060009054906101000a900473ffffffffffffffffffffffffffffffffffffffff16905080915050919050565b60008073ffffffffffffffffffffffffffffffffffffffff168273ffffffffffffffffffffffffffffffffffffffff1614156109b8576040517f08c379a00000000000000000000000000000000000000000000000000000000081526004016109af90612a7c565b60405180910390fd5b600360008373ffffffffffffffffffffffffffffffffffffffff1673ffffffffffffffffffffffffffffffffffffffff168152602001908152602001600020549050919050565b610a07611250565b73ffffffffffffffffffffffffffffffffffffffff16610a25610a87565b73ffffffffffffffffffffffffffffffffffffffff1614610a7b576040517f08c379a0000000000000000000000000000000000000000000000000000000008152600401610a7290612adc565b60405180910390fd5b610a856000611656565b565b6000600660009054906101000a900473ffffffffffffffffffffffffffffffffffffffff16905090565b606060018054610ac090612dba565b80601f0160208091040260200160405190810160405280929190818152602001828054610aec90612dba565b8015610b395780601f10610b0e57610100808354040283529160200191610b39565b820191906000526020600020905b815481529060010190602001808311610b1c57829003601f168201915b5050505050905090565b610b4b611e63565b60076101408060200260405190810160405280929190826101408015610bbc576020028201915b8160009054906101000a900473ffffffffffffffffffffffffffffffffffffffff1673ffffffffffffffffffffffffffffffffffffffff1681526020019060010190808311610b72575b5050505050905090565b610bd8610bd1611250565b838361171c565b5050565b6000610be98484846113ef565b826007836101408110610c25577f4e487b7100000000000000000000000000000000000000000000000000000000600052603260045260246000fd5b0160006101000a81548173ffffffffffffffffffffffffffffffffffffffff021916908373ffffffffffffffffffffffffffffffffffffffff1602179055507f9e1d6189df6b1805ec42b2e7d6b24c959f44a916843a83c78d199e717631836b848484604051610c9793929190612869565b60405180910390a18190509392505050565b610cba610cb4611250565b83611311565b610cf9576040517f08c379a0000000000000000000000000000000000000000000000000000000008152600401610cf090612b3c565b60405180910390fd5b610d0584848484611889565b50505050565b60006007826101408110610d48577f4e487b7100000000000000000000000000000000000000000000000000000000600052603260045260246000fd5b0160009054906101000a900473ffffffffffffffffffffffffffffffffffffffff169050919050565b6060610d7c826111e4565b610dbb576040517f08c379a0000000000000000000000000000000000000000000000000000000008152600401610db290612afc565b60405180910390fd5b6000610dc56118e5565b90506000815111610de55760405180602001604052806000815250610e10565b80610def846118fc565b604051602001610e0092919061282a565b6040516020818303038152906040525b915050919050565b6000600560008473ffffffffffffffffffffffffffffffffffffffff1673ffffffffffffffffffffffffffffffffffffffff16815260200190815260200160002060008373ffffffffffffffffffffffffffffffffffffffff1673ffffffffffffffffffffffffffffffffffffffff16815260200190815260200160002060009054906101000a900460ff16905092915050565b6000808210158015610ec0575061013f8211155b610ec957600080fd5b600073ffffffffffffffffffffffffffffffffffffffff166007836101408110610f1c577f4e487b7100000000000000000000000000000000000000000000000000000000600052603260045260246000fd5b0160009054906101000a900473ffffffffffffffffffffffffffffffffffffffff1673ffffffffffffffffffffffffffffffffffffffff1614610f5e57600080fd5b610f683383611aa9565b336007836101408110610fa4577f4e487b7100000000000000000000000000000000000000000000000000000000600052603260045260246000fd5b0160006101000a81548173ffffffffffffffffffffffffffffffffffffffff021916908373ffffffffffffffffffffffffffffffffffffffff1602179055507fed9e0dc5479152698d99195d219992bd45798ef9712b0e94058cd0a9c614ce9933836007856101408110611041577f4e487b7100000000000000000000000000000000000000000000000000000000600052603260045260246000fd5b0160009054906101000a900473ffffffffffffffffffffffffffffffffffffffff16604051611072939291906128ec565b60405180910390a1819050919050565b61108a611250565b73ffffffffffffffffffffffffffffffffffffffff166110a8610a87565b73ffffffffffffffffffffffffffffffffffffffff16146110fe576040517f08c379a00000000000000000000000000000000000000000000000000000000081526004016110f590612adc565b60405180910390fd5b600073ffffffffffffffffffffffffffffffffffffffff168173ffffffffffffffffffffffffffffffffffffffff16141561116e576040517f08c379a00000000000000000000000000000000000000000000000000000000081526004016111659061299c565b60405180910390fd5b61117781611656565b50565b60007f01ffc9a7000000000000000000000000000000000000000000000000000000007bffffffffffffffffffffffffffffffffffffffffffffffffffffffff1916827bffffffffffffffffffffffffffffffffffffffffffffffffffffffff1916149050919050565b60008073ffffffffffffffffffffffffffffffffffffffff166002600084815260200190815260200160002060009054906101000a900473ffffffffffffffffffffffffffffffffffffffff1673ffffffffffffffffffffffffffffffffffffffff1614159050919050565b600033905090565b816004600083815260200190815260200160002060006101000a81548173ffffffffffffffffffffffffffffffffffffffff021916908373ffffffffffffffffffffffffffffffffffffffff160217905550808273ffffffffffffffffffffffffffffffffffffffff166112cb83610905565b73ffffffffffffffffffffffffffffffffffffffff167f8c5be1e5ebec7d5bd14f71427d1e84f3dd0314c0f7b2291e5b200ac8c7c3b92560405160405180910390a45050565b600061131c826111e4565b61135b576040517f08c379a000000000000000000000000000000000000000000000000000000000815260040161135290612a3c565b60405180910390fd5b600061136683610905565b90508073ffffffffffffffffffffffffffffffffffffffff168473ffffffffffffffffffffffffffffffffffffffff1614806113d557508373ffffffffffffffffffffffffffffffffffffffff166113bd846106e8565b73ffffffffffffffffffffffffffffffffffffffff16145b806113e657506113e58185610e18565b5b91505092915050565b8273ffffffffffffffffffffffffffffffffffffffff1661140f82610905565b73ffffffffffffffffffffffffffffffffffffffff1614611465576040517f08c379a000000000000000000000000000000000000000000000000000000000815260040161145c906129bc565b60405180910390fd5b600073ffffffffffffffffffffffffffffffffffffffff168273ffffffffffffffffffffffffffffffffffffffff1614156114d5576040517f08c379a00000000000000000000000000000000000000000000000000000000081526004016114cc906129fc565b60405180910390fd5b6114e0838383611c83565b6114eb600082611258565b6001600360008573ffffffffffffffffffffffffffffffffffffffff1673ffffffffffffffffffffffffffffffffffffffff168152602001908152602001600020600082825461153b9190612cd0565b925050819055506001600360008473ffffffffffffffffffffffffffffffffffffffff1673ffffffffffffffffffffffffffffffffffffffff16815260200190815260200160002060008282546115929190612c49565b92505081905550816002600083815260200190815260200160002060006101000a81548173ffffffffffffffffffffffffffffffffffffffff021916908373ffffffffffffffffffffffffffffffffffffffff160217905550808273ffffffffffffffffffffffffffffffffffffffff168473ffffffffffffffffffffffffffffffffffffffff167fddf252ad1be2c89b69c2b068fc378daa952ba7f163c4a11628f55a4df523b3ef60405160405180910390a4611651838383611c88565b505050565b6000600660009054906101000a900473ffffffffffffffffffffffffffffffffffffffff16905081600660006101000a81548173ffffffffffffffffffffffffffffffffffffffff021916908373ffffffffffffffffffffffffffffffffffffffff1602179055508173ffffffffffffffffffffffffffffffffffffffff168173ffffffffffffffffffffffffffffffffffffffff167f8be0079c531659141344cd1fd0a4f28419497f9722a3daafe3b4186f6b6457e060405160405180910390a35050565b8173ffffffffffffffffffffffffffffffffffffffff168373ffffffffffffffffffffffffffffffffffffffff16141561178b576040517f08c379a000000000000000000000000000000000000000000000000000000000815260040161178290612a1c565b60405180910390fd5b80600560008573ffffffffffffffffffffffffffffffffffffffff1673ffffffffffffffffffffffffffffffffffffffff16815260200190815260200160002060008473ffffffffffffffffffffffffffffffffffffffff1673ffffffffffffffffffffffffffffffffffffffff16815260200190815260200160002060006101000a81548160ff0219169083151502179055508173ffffffffffffffffffffffffffffffffffffffff168373ffffffffffffffffffffffffffffffffffffffff167f17307eab39ab6107e8899845ad3d59bd9653f200f220920489ca2b5937696c318360405161187c919061293f565b60405180910390a3505050565b6118948484846113ef565b6118a084848484611c8d565b6118df576040517f08c379a00000000000000000000000000000000000000000000000000000000081526004016118d69061297c565b60405180910390fd5b50505050565b606060405180602001604052806000815250905090565b60606000821415611944576040518060400160405280600181526020017f30000000000000000000000000000000000000000000000000000000000000008152509050611aa4565b600082905060005b6000821461197657808061195f90612dec565b915050600a8261196f9190612c9f565b915061194c565b60008167ffffffffffffffff8111156119b8577f4e487b7100000000000000000000000000000000000000000000000000000000600052604160045260246000fd5b6040519080825280601f01601f1916602001820160405280156119ea5781602001600182028036833780820191505090505b5090505b60008514611a9d57600182611a039190612cd0565b9150600a85611a129190612e35565b6030611a1e9190612c49565b60f81b818381518110611a5a577f4e487b7100000000000000000000000000000000000000000000000000000000600052603260045260246000fd5b60200101907effffffffffffffffffffffffffffffffffffffffffffffffffffffffffffff1916908160001a905350600a85611a969190612c9f565b94506119ee565b8093505050505b919050565b600073ffffffffffffffffffffffffffffffffffffffff168273ffffffffffffffffffffffffffffffffffffffff161415611b19576040517f08c379a0000000000000000000000000000000000000000000000000000000008152600401611b1090612a9c565b60405180910390fd5b611b22816111e4565b15611b62576040517f08c379a0000000000000000000000000000000000000000000000000000000008152600401611b59906129dc565b60405180910390fd5b611b6e60008383611c83565b6001600360008473ffffffffffffffffffffffffffffffffffffffff1673ffffffffffffffffffffffffffffffffffffffff1681526020019081526020016000206000828254611bbe9190612c49565b92505081905550816002600083815260200190815260200160002060006101000a81548173ffffffffffffffffffffffffffffffffffffffff021916908373ffffffffffffffffffffffffffffffffffffffff160217905550808273ffffffffffffffffffffffffffffffffffffffff16600073ffffffffffffffffffffffffffffffffffffffff167fddf252ad1be2c89b69c2b068fc378daa952ba7f163c4a11628f55a4df523b3ef60405160405180910390a4611c7f60008383611c88565b5050565b505050565b505050565b6000611cae8473ffffffffffffffffffffffffffffffffffffffff16611e24565b15611e17578373ffffffffffffffffffffffffffffffffffffffff1663150b7a02611cd7611250565b8786866040518563ffffffff1660e01b8152600401611cf994939291906128a0565b602060405180830381600087803b158015611d1357600080fd5b505af1925050508015611d4457506040513d601f19601f82011682018060405250810190611d419190612128565b60015b611dc7573d8060008114611d74576040519150601f19603f3d011682016040523d82523d6000602084013e611d79565b606091505b50600081511415611dbf576040517f08c379a0000000000000000000000000000000000000000000000000000000008152600401611db69061297c565b60405180910390fd5b805181602001fd5b63150b7a0260e01b7bffffffffffffffffffffffffffffffffffffffffffffffffffffffff1916817bffffffffffffffffffffffffffffffffffffffffffffffffffffffff191614915050611e1c565b600190505b949350505050565b6000808273ffffffffffffffffffffffffffffffffffffffff16803b806020016040519081016040528181526000908060200190933c51119050919050565b60405180612800016040528061014090602082028036833780820191505090505090565b6000611e9a611e9584612ba8565b612b77565b905082815260208101848484011115611eb257600080fd5b611ebd848285612d78565b509392505050565b600081359050611ed481612f33565b92915050565b600081359050611ee981612f4a565b92915050565b600081359050611efe81612f61565b92915050565b600081519050611f1381612f61565b92915050565b600082601f830112611f2a57600080fd5b8135611f3a848260208601611e87565b91505092915050565b600081359050611f5281612f78565b92915050565b600060208284031215611f6a57600080fd5b6000611f7884828501611ec5565b91505092915050565b60008060408385031215611f9457600080fd5b6000611fa285828601611ec5565b9250506020611fb385828601611ec5565b9150509250929050565b600080600060608486031215611fd257600080fd5b6000611fe086828701611ec5565b9350506020611ff186828701611ec5565b925050604061200286828701611f43565b9150509250925092565b6000806000806080858703121561202257600080fd5b600061203087828801611ec5565b945050602061204187828801611ec5565b935050604061205287828801611f43565b925050606085013567ffffffffffffffff81111561206f57600080fd5b61207b87828801611f19565b91505092959194509250565b6000806040838503121561209a57600080fd5b60006120a885828601611ec5565b92505060206120b985828601611eda565b9150509250929050565b600080604083850312156120d657600080fd5b60006120e485828601611ec5565b92505060206120f585828601611f43565b9150509250929050565b60006020828403121561211157600080fd5b600061211f84828501611eef565b91505092915050565b60006020828403121561213a57600080fd5b600061214884828501611f04565b91505092915050565b60006020828403121561216357600080fd5b600061217184828501611f43565b91505092915050565b60006121868383612192565b60208301905092915050565b61219b81612d04565b82525050565b6121aa81612d04565b82525050565b6121b981612be2565b6121c38184612c11565b92506121ce82612bd8565b8060005b838110156121ff5781516121e6878261217a565b96506121f183612c04565b9250506001810190506121d2565b505050505050565b61221081612d16565b82525050565b600061222182612bee565b61222b8185612c1c565b935061223b818560208601612d87565b61224481612f22565b840191505092915050565b600061225a82612bf9565b6122648185612c2d565b9350612274818560208601612d87565b61227d81612f22565b840191505092915050565b600061229382612bf9565b61229d8185612c3e565b93506122ad818560208601612d87565b80840191505092915050565b60006122c6603283612c2d565b91507f4552433732313a207472616e7366657220746f206e6f6e20455243373231526560008301527f63656976657220696d706c656d656e74657200000000000000000000000000006020830152604082019050919050565b600061232c602683612c2d565b91507f4f776e61626c653a206e6577206f776e657220697320746865207a65726f206160008301527f64647265737300000000000000000000000000000000000000000000000000006020830152604082019050919050565b6000612392602583612c2d565b91507f4552433732313a207472616e736665722066726f6d20696e636f72726563742060008301527f6f776e65720000000000000000000000000000000000000000000000000000006020830152604082019050919050565b60006123f8601c83612c2d565b91507f4552433732313a20746f6b656e20616c7265616479206d696e746564000000006000830152602082019050919050565b6000612438602483612c2d565b91507f4552433732313a207472616e7366657220746f20746865207a65726f2061646460008301527f72657373000000000000000000000000000000000000000000000000000000006020830152604082019050919050565b600061249e601983612c2d565b91507f4552433732313a20617070726f766520746f2063616c6c6572000000000000006000830152602082019050919050565b60006124de602c83612c2d565b91507f4552433732313a206f70657261746f7220717565727920666f72206e6f6e657860008301527f697374656e7420746f6b656e00000000000000000000000000000000000000006020830152604082019050919050565b6000612544603883612c2d565b91507f4552433732313a20617070726f76652063616c6c6572206973206e6f74206f7760008301527f6e6572206e6f7220617070726f76656420666f7220616c6c00000000000000006020830152604082019050919050565b60006125aa602a83612c2d565b91507f4552433732313a2062616c616e636520717565727920666f7220746865207a6560008301527f726f2061646472657373000000000000000000000000000000000000000000006020830152604082019050919050565b6000612610602083612c2d565b91507f4552433732313a206d696e7420746f20746865207a65726f20616464726573736000830152602082019050919050565b6000612650602c83612c2d565b91507f4552433732313a20617070726f76656420717565727920666f72206e6f6e657860008301527f697374656e7420746f6b656e00000000000000000000000000000000000000006020830152604082019050919050565b60006126b6602083612c2d565b91507f4f776e61626c653a2063616c6c6572206973206e6f7420746865206f776e65726000830152602082019050919050565b60006126f6602f83612c2d565b91507f4552433732314d657461646174613a2055524920717565727920666f72206e6f60008301527f6e6578697374656e7420746f6b656e00000000000000000000000000000000006020830152604082019050919050565b600061275c602183612c2d565b91507f4552433732313a20617070726f76616c20746f2063757272656e74206f776e6560008301527f72000000000000000000000000000000000000000000000000000000000000006020830152604082019050919050565b60006127c2603183612c2d565b91507f4552433732313a207472616e736665722063616c6c6572206973206e6f74206f60008301527f776e6572206e6f7220617070726f7665640000000000000000000000000000006020830152604082019050919050565b61282481612d6e565b82525050565b60006128368285612288565b91506128428284612288565b91508190509392505050565b600060208201905061286360008301846121a1565b92915050565b600060608201905061287e60008301866121a1565b61288b60208301856121a1565b612898604083018461281b565b949350505050565b60006080820190506128b560008301876121a1565b6128c260208301866121a1565b6128cf604083018561281b565b81810360608301526128e18184612216565b905095945050505050565b600060608201905061290160008301866121a1565b61290e602083018561281b565b61291b60408301846121a1565b949350505050565b60006128008201905061293960008301846121b0565b92915050565b60006020820190506129546000830184612207565b92915050565b60006020820190508181036000830152612974818461224f565b905092915050565b60006020820190508181036000830152612995816122b9565b9050919050565b600060208201905081810360008301526129b58161231f565b9050919050565b600060208201905081810360008301526129d581612385565b9050919050565b600060208201905081810360008301526129f5816123eb565b9050919050565b60006020820190508181036000830152612a158161242b565b9050919050565b60006020820190508181036000830152612a3581612491565b9050919050565b60006020820190508181036000830152612a55816124d1565b9050919050565b60006020820190508181036000830152612a7581612537565b9050919050565b60006020820190508181036000830152612a958161259d565b9050919050565b60006020820190508181036000830152612ab581612603565b9050919050565b60006020820190508181036000830152612ad581612643565b9050919050565b60006020820190508181036000830152612af5816126a9565b9050919050565b60006020820190508181036000830152612b15816126e9565b9050919050565b60006020820190508181036000830152612b358161274f565b9050919050565b60006020820190508181036000830152612b55816127b5565b9050919050565b6000602082019050612b71600083018461281b565b92915050565b6000604051905081810181811067ffffffffffffffff82111715612b9e57612b9d612ef3565b5b8060405250919050565b600067ffffffffffffffff821115612bc357612bc2612ef3565b5b601f19601f8301169050602081019050919050565b6000819050919050565b60006101409050919050565b600081519050919050565b600081519050919050565b6000602082019050919050565b600081905092915050565b600082825260208201905092915050565b600082825260208201905092915050565b600081905092915050565b6000612c5482612d6e565b9150612c5f83612d6e565b9250827fffffffffffffffffffffffffffffffffffffffffffffffffffffffffffffffff03821115612c9457612c93612e66565b5b828201905092915050565b6000612caa82612d6e565b9150612cb583612d6e565b925082612cc557612cc4612e95565b5b828204905092915050565b6000612cdb82612d6e565b9150612ce683612d6e565b925082821015612cf957612cf8612e66565b5b828203905092915050565b6000612d0f82612d4e565b9050919050565b60008115159050919050565b60007fffffffff0000000000000000000000000000000000000000000000000000000082169050919050565b600073ffffffffffffffffffffffffffffffffffffffff82169050919050565b6000819050919050565b82818337600083830152505050565b60005b83811015612da5578082015181840152602081019050612d8a565b83811115612db4576000848401525b50505050565b60006002820490506001821680612dd257607f821691505b60208210811415612de657612de5612ec4565b5b50919050565b6000612df782612d6e565b91507fffffffffffffffffffffffffffffffffffffffffffffffffffffffffffffffff821415612e2a57612e29612e66565b5b600182019050919050565b6000612e4082612d6e565b9150612e4b83612d6e565b925082612e5b57612e5a612e95565b5b828206905092915050565b7f4e487b7100000000000000000000000000000000000000000000000000000000600052601160045260246000fd5b7f4e487b7100000000000000000000000000000000000000000000000000000000600052601260045260246000fd5b7f4e487b7100000000000000000000000000000000000000000000000000000000600052602260045260246000fd5b7f4e487b7100000000000000000000000000000000000000000000000000000000600052604160045260246000fd5b6000601f19601f8301169050919050565b612f3c81612d04565b8114612f4757600080fd5b50565b612f5381612d16565b8114612f5e57600080fd5b50565b612f6a81612d22565b8114612f7557600080fd5b50565b612f8181612d6e565b8114612f8c57600080fd5b5056fea26469706673582212207485168beb12cf8b0866eaaa334e134c1b13546330f0cb595c5a6d6d4c07f0d564736f6c63430008000033",
  "immutableReferences": {},
  "source": "// SPDX-License-Identifier: MIT\r\npragma solidity ^0.8.0;\r\nimport \"./tokens/ERC721.sol\";\r\nimport \"./Ownable.sol\";\r\n\r\ncontract PurchaseLand is ERC721, Ownable {\r\n    address[320] public owners;\r\n    uint256 balance;\r\n\r\n    event LandBought(address indexedFrom, uint256 landId, address owner);\r\n    event LandTransfer(address from, address to, uint landId);\r\n\r\n    constructor() ERC721(\"MetaLand\", \"MND\") {}\r\n\r\n    function purchase(uint256 landId) public payable returns (uint256) {\r\n        require(landId >= 0 && landId <= 319);\r\n        require(owners[landId] == 0x0000000000000000000000000000000000000000);\r\n        _mint(msg.sender, landId);\r\n        owners[landId] = msg.sender;\r\n        emit LandBought(msg.sender, landId, owners[landId]);\r\n        return landId;\r\n    }\r\n    // Retrieving the owners\r\n    function getOwners() public view returns (address[320] memory) {\r\n        return owners;\r\n    }\r\n    // Retrieving specific owner\r\n    function getOwner(uint256 landId) public view returns (address owner) {\r\n        return owners[landId];\r\n    }\r\n\r\n    function transferLand(address from, address to, uint256 landId ) public virtual  returns (uint256) {\r\n        //solhint-disable-next-line max-line-length\r\n        _transfer(from, to, landId);\r\n        owners[landId] = to;\r\n        emit LandTransfer(from ,to ,landId);\r\n        return landId;\r\n    }\r\n}\r\n",
  "sourcePath": "C:\\Users\\\\vscode-workspace\\metaland-dapp\\contracts\\PurchaseLand.sol",
  "compiler": {
    "name": "solc",
    "version": "0.8.0+commit.c7dfd78e.Emscripten.clang"
  },
  "schemaVersion": "3.4.5",
  "updatedAt": "2022-03-02T14:06:36.414Z",
  "networkType": "ethereum",
  "devdoc": {
    "kind": "dev",
    "methods": {
      "approve(address,uint256)": {
        "details": "See {IERC721-approve}."
      },
      "balanceOf(address)": {
        "details": "See {IERC721-balanceOf}."
      },
      "getApproved(uint256)": {
        "details": "See {IERC721-getApproved}."
      },
      "isApprovedForAll(address,address)": {
        "details": "See {IERC721-isApprovedForAll}."
      },
      "name()": {
        "details": "See {IERC721Metadata-name}."
      },
      "owner()": {
        "details": "Returns the address of the current owner."
      },
      "ownerOf(uint256)": {
        "details": "See {IERC721-ownerOf}."
      },
      "renounceOwnership()": {
        "details": "Leaves the contract without owner. It will not be possible to call `onlyOwner` functions anymore. Can only be called by the current owner. NOTE: Renouncing ownership will leave the contract without an owner, thereby removing any functionality that is only available to the owner."
      },
      "safeTransferFrom(address,address,uint256)": {
        "details": "See {IERC721-safeTransferFrom}."
      },
      "safeTransferFrom(address,address,uint256,bytes)": {
        "details": "See {IERC721-safeTransferFrom}."
      },
      "setApprovalForAll(address,bool)": {
        "details": "See {IERC721-setApprovalForAll}."
      },
      "supportsInterface(bytes4)": {
        "details": "See {IERC165-supportsInterface}."
      },
      "symbol()": {
        "details": "See {IERC721Metadata-symbol}."
      },
      "tokenURI(uint256)": {
        "details": "See {IERC721Metadata-tokenURI}."
      },
      "transferFrom(address,address,uint256)": {
        "details": "See {IERC721-transferFrom}."
      },
      "transferOwnership(address)": {
        "details": "Transfers ownership of the contract to a new account (`newOwner`). Can only be called by the current owner."
      }
    },
    "version": 1
  },
  "userdoc": {
    "kind": "user",
    "methods": {},
    "version": 1
  }
}