{
  "contractName": "PurchaseLand",
  "abi": [
    {
      "inputs": [],
      "stateMutability": "nonpayable",
      "type": "constructor"
    },
    {
      "anonymous": false,
      "inputs": [
        {
          "indexed": true,
          "internalType": "address",
          "name": "owner",
          "type": "address"
        },
        {
          "indexed": true,
          "internalType": "address",
          "name": "approved",
          "type": "address"
        },
        {
          "indexed": true,
          "internalType": "uint256",
          "name": "tokenId",
          "type": "uint256"
        }
      ],
      "name": "Approval",
      "type": "event"
    },
    {
      "anonymous": false,
      "inputs": [
        {
          "indexed": true,
          "internalType": "address",
          "name": "owner",
          "type": "address"
        },
        {
          "indexed": true,
          "internalType": "address",
          "name": "operator",
          "type": "address"
        },
        {
          "indexed": false,
          "internalType": "bool",
          "name": "approved",
          "type": "bool"
        }
      ],
      "name": "ApprovalForAll",
      "type": "event"
    },
    {
      "anonymous": false,
      "inputs": [
        {
          "indexed": true,
          "internalType": "address",
          "name": "previousOwner",
          "type": "address"
        },
        {
          "indexed": true,
          "internalType": "address",
          "name": "newOwner",
          "type": "address"
        }
      ],
      "name": "OwnershipTransferred",
      "type": "event"
    },
    {
      "anonymous": false,
      "inputs": [
        {
          "indexed": true,
          "internalType": "address",
          "name": "from",
          "type": "address"
        },
        {
          "indexed": true,
          "internalType": "address",
          "name": "to",
          "type": "address"
        },
        {
          "indexed": true,
          "internalType": "uint256",
          "name": "tokenId",
          "type": "uint256"
        }
      ],
      "name": "Transfer",
      "type": "event"
    },
    {
      "inputs": [
        {
          "internalType": "address",
          "name": "to",
          "type": "address"
        },
        {
          "internalType": "uint256",
          "name": "tokenId",
          "type": "uint256"
        }
      ],
      "name": "approve",
      "outputs": [],
      "stateMutability": "nonpayable",
      "type": "function"
    },
    {
      "inputs": [
        {
          "internalType": "address",
          "name": "owner",
          "type": "address"
        }
      ],
      "name": "balanceOf",
      "outputs": [
        {
          "internalType": "uint256",
          "name": "",
          "type": "uint256"
        }
      ],
      "stateMutability": "view",
      "type": "function",
      "constant": true
    },
    {
      "inputs": [
        {
          "internalType": "uint256",
          "name": "tokenId",
          "type": "uint256"
        }
      ],
      "name": "getApproved",
      "outputs": [
        {
          "internalType": "address",
          "name": "",
          "type": "address"
        }
      ],
      "stateMutability": "view",
      "type": "function",
      "constant": true
    },
    {
      "inputs": [
        {
          "internalType": "address",
          "name": "owner",
          "type": "address"
        },
        {
          "internalType": "address",
          "name": "operator",
          "type": "address"
        }
      ],
      "name": "isApprovedForAll",
      "outputs": [
        {
          "internalType": "bool",
          "name": "",
          "type": "bool"
        }
      ],
      "stateMutability": "view",
      "type": "function",
      "constant": true
    },
    {
      "inputs": [],
      "name": "name",
      "outputs": [
        {
          "internalType": "string",
          "name": "",
          "type": "string"
        }
      ],
      "stateMutability": "view",
      "type": "function",
      "constant": true
    },
    {
      "inputs": [],
      "name": "owner",
      "outputs": [
        {
          "internalType": "address",
          "name": "",
          "type": "address"
        }
      ],
      "stateMutability": "view",
      "type": "function",
      "constant": true
    },
    {
      "inputs": [
        {
          "internalType": "uint256",
          "name": "tokenId",
          "type": "uint256"
        }
      ],
      "name": "ownerOf",
      "outputs": [
        {
          "internalType": "address",
          "name": "",
          "type": "address"
        }
      ],
      "stateMutability": "view",
      "type": "function",
      "constant": true
    },
    {
      "inputs": [
        {
          "internalType": "uint256",
          "name": "",
          "type": "uint256"
        }
      ],
      "name": "owners",
      "outputs": [
        {
          "internalType": "address",
          "name": "",
          "type": "address"
        }
      ],
      "stateMutability": "view",
      "type": "function",
      "constant": true
    },
    {
      "inputs": [],
      "name": "renounceOwnership",
      "outputs": [],
      "stateMutability": "nonpayable",
      "type": "function"
    },
    {
      "inputs": [
        {
          "internalType": "address",
          "name": "from",
          "type": "address"
        },
        {
          "internalType": "address",
          "name": "to",
          "type": "address"
        },
        {
          "internalType": "uint256",
          "name": "tokenId",
          "type": "uint256"
        }
      ],
      "name": "safeTransferFrom",
      "outputs": [],
      "stateMutability": "nonpayable",
      "type": "function"
    },
    {
      "inputs": [
        {
          "internalType": "address",
          "name": "from",
          "type": "address"
        },
        {
          "internalType": "address",
          "name": "to",
          "type": "address"
        },
        {
          "internalType": "uint256",
          "name": "tokenId",
          "type": "uint256"
        },
        {
          "internalType": "bytes",
          "name": "_data",
          "type": "bytes"
        }
      ],
      "name": "safeTransferFrom",
      "outputs": [],
      "stateMutability": "nonpayable",
      "type": "function"
    },
    {
      "inputs": [
        {
          "internalType": "address",
          "name": "operator",
          "type": "address"
        },
        {
          "internalType": "bool",
          "name": "approved",
          "type": "bool"
        }
      ],
      "name": "setApprovalForAll",
      "outputs": [],
      "stateMutability": "nonpayable",
      "type": "function"
    },
    {
      "inputs": [
        {
          "internalType": "bytes4",
          "name": "interfaceId",
          "type": "bytes4"
        }
      ],
      "name": "supportsInterface",
      "outputs": [
        {
          "internalType": "bool",
          "name": "",
          "type": "bool"
        }
      ],
      "stateMutability": "view",
      "type": "function",
      "constant": true
    },
    {
      "inputs": [],
      "name": "symbol",
      "outputs": [
        {
          "internalType": "string",
          "name": "",
          "type": "string"
        }
      ],
      "stateMutability": "view",
      "type": "function",
      "constant": true
    },
    {
      "inputs": [
        {
          "internalType": "uint256",
          "name": "tokenId",
          "type": "uint256"
        }
      ],
      "name": "tokenURI",
      "outputs": [
        {
          "internalType": "string",
          "name": "",
          "type": "string"
        }
      ],
      "stateMutability": "view",
      "type": "function",
      "constant": true
    },
    {
      "inputs": [
        {
          "internalType": "address",
          "name": "from",
          "type": "address"
        },
        {
          "internalType": "address",
          "name": "to",
          "type": "address"
        },
        {
          "internalType": "uint256",
          "name": "tokenId",
          "type": "uint256"
        }
      ],
      "name": "transferFrom",
      "outputs": [],
      "stateMutability": "nonpayable",
      "type": "function"
    },
    {
      "inputs": [
        {
          "internalType": "address",
          "name": "newOwner",
          "type": "address"
        }
      ],
      "name": "transferOwnership",
      "outputs": [],
      "stateMutability": "nonpayable",
      "type": "function"
    },
    {
      "inputs": [
        {
          "internalType": "uint256",
          "name": "landId",
          "type": "uint256"
        }
      ],
      "name": "purchase",
      "outputs": [
        {
          "internalType": "uint256",
          "name": "",
          "type": "uint256"
        }
      ],
      "stateMutability": "payable",
      "type": "function",
      "payable": true
    }
  ],
  "bytecode": "0x60806040523480156200001157600080fd5b506040518060400160405280600881526020017f4d6574614c616e640000000000000000000000000000000000000000000000008152506040518060400160405280600381526020017f4d4e440000000000000000000000000000000000000000000000000000000000815250816000908051906020019062000096929190620001a6565b508060019080519060200190620000af929190620001a6565b505050620000d2620000c6620000d860201b60201c565b620000e060201b60201c565b620002bb565b600033905090565b6000600660009054906101000a900473ffffffffffffffffffffffffffffffffffffffff16905081600660006101000a81548173ffffffffffffffffffffffffffffffffffffffff021916908373ffffffffffffffffffffffffffffffffffffffff1602179055508173ffffffffffffffffffffffffffffffffffffffff168173ffffffffffffffffffffffffffffffffffffffff167f8be0079c531659141344cd1fd0a4f28419497f9722a3daafe3b4186f6b6457e060405160405180910390a35050565b828054620001b49062000256565b90600052602060002090601f016020900481019282620001d8576000855562000224565b82601f10620001f357805160ff191683800117855562000224565b8280016001018555821562000224579182015b828111156200022357825182559160200191906001019062000206565b5b50905062000233919062000237565b5090565b5b808211156200025257600081600090555060010162000238565b5090565b600060028204905060018216806200026f57607f821691505b602082108114156200028657620002856200028c565b5b50919050565b7f4e487b7100000000000000000000000000000000000000000000000000000000600052602260045260246000fd5b61291280620002cb6000396000f3fe6080604052600436106101095760003560e01c8063715018a611610095578063b88d4fde11610064578063b88d4fde1461037b578063c87b56dd146103a4578063e985e9c5146103e1578063efef39a11461041e578063f2fde38b1461044e57610109565b8063715018a6146102e55780638da5cb5b146102fc57806395d89b4114610327578063a22cb4651461035257610109565b8063095ea7b3116100dc578063095ea7b3146101f057806323b872dd1461021957806342842e0e146102425780636352211e1461026b57806370a08231146102a857610109565b806301ffc9a71461010e578063025e7c271461014b57806306fdde0314610188578063081812fc146101b3575b600080fd5b34801561011a57600080fd5b5061013560048036038101906101309190611bbc565b610477565b60405161014291906122da565b60405180910390f35b34801561015757600080fd5b50610172600480360381019061016d9190611c0e565b610559565b60405161017f9190612273565b60405180910390f35b34801561019457600080fd5b5061019d61058f565b6040516101aa91906122f5565b60405180910390f35b3480156101bf57600080fd5b506101da60048036038101906101d59190611c0e565b610621565b6040516101e79190612273565b60405180910390f35b3480156101fc57600080fd5b5061021760048036038101906102129190611b80565b6106a6565b005b34801561022557600080fd5b50610240600480360381019061023b9190611a7a565b6107be565b005b34801561024e57600080fd5b5061026960048036038101906102649190611a7a565b61081e565b005b34801561027757600080fd5b50610292600480360381019061028d9190611c0e565b61083e565b60405161029f9190612273565b60405180910390f35b3480156102b457600080fd5b506102cf60048036038101906102ca9190611a15565b6108f0565b6040516102dc91906124d7565b60405180910390f35b3480156102f157600080fd5b506102fa6109a8565b005b34801561030857600080fd5b50610311610a30565b60405161031e9190612273565b60405180910390f35b34801561033357600080fd5b5061033c610a5a565b60405161034991906122f5565b60405180910390f35b34801561035e57600080fd5b5061037960048036038101906103749190611b44565b610aec565b005b34801561038757600080fd5b506103a2600480360381019061039d9190611ac9565b610b02565b005b3480156103b057600080fd5b506103cb60048036038101906103c69190611c0e565b610b64565b6040516103d891906122f5565b60405180910390f35b3480156103ed57600080fd5b5061040860048036038101906104039190611a3e565b610c0b565b60405161041591906122da565b60405180910390f35b61043860048036038101906104339190611c0e565b610c9f565b60405161044591906124d7565b60405180910390f35b34801561045a57600080fd5b5061047560048036038101906104709190611a15565b610d3d565b005b60007f80ac58cd000000000000000000000000000000000000000000000000000000007bffffffffffffffffffffffffffffffffffffffffffffffffffffffff1916827bffffffffffffffffffffffffffffffffffffffffffffffffffffffff1916148061054257507f5b5e139f000000000000000000000000000000000000000000000000000000007bffffffffffffffffffffffffffffffffffffffffffffffffffffffff1916827bffffffffffffffffffffffffffffffffffffffffffffffffffffffff1916145b80610552575061055182610e35565b5b9050919050565b6007816050811061056957600080fd5b016000915054906101000a900473ffffffffffffffffffffffffffffffffffffffff1681565b60606000805461059e90612707565b80601f01602080910402602001604051908101604052809291908181526020018280546105ca90612707565b80156106175780601f106105ec57610100808354040283529160200191610617565b820191906000526020600020905b8154815290600101906020018083116105fa57829003601f168201915b5050505050905090565b600061062c82610e9f565b61066b576040517f08c379a000000000000000000000000000000000000000000000000000000000815260040161066290612437565b60405180910390fd5b6004600083815260200190815260200160002060009054906101000a900473ffffffffffffffffffffffffffffffffffffffff169050919050565b60006106b18261083e565b90508073ffffffffffffffffffffffffffffffffffffffff168373ffffffffffffffffffffffffffffffffffffffff161415610722576040517f08c379a000000000000000000000000000000000000000000000000000000000815260040161071990612497565b60405180910390fd5b8073ffffffffffffffffffffffffffffffffffffffff16610741610f0b565b73ffffffffffffffffffffffffffffffffffffffff161480610770575061076f8161076a610f0b565b610c0b565b5b6107af576040517f08c379a00000000000000000000000000000000000000000000000000000000081526004016107a6906123d7565b60405180910390fd5b6107b98383610f13565b505050565b6107cf6107c9610f0b565b82610fcc565b61080e576040517f08c379a0000000000000000000000000000000000000000000000000000000008152600401610805906124b7565b60405180910390fd5b6108198383836110aa565b505050565b61083983838360405180602001604052806000815250610b02565b505050565b6000806002600084815260200190815260200160002060009054906101000a900473ffffffffffffffffffffffffffffffffffffffff169050600073ffffffffffffffffffffffffffffffffffffffff168173ffffffffffffffffffffffffffffffffffffffff1614156108e7576040517f08c379a00000000000000000000000000000000000000000000000000000000081526004016108de90612417565b60405180910390fd5b80915050919050565b60008073ffffffffffffffffffffffffffffffffffffffff168273ffffffffffffffffffffffffffffffffffffffff161415610961576040517f08c379a0000000000000000000000000000000000000000000000000000000008152600401610958906123f7565b60405180910390fd5b600360008373ffffffffffffffffffffffffffffffffffffffff1673ffffffffffffffffffffffffffffffffffffffff168152602001908152602001600020549050919050565b6109b0610f0b565b73ffffffffffffffffffffffffffffffffffffffff166109ce610a30565b73ffffffffffffffffffffffffffffffffffffffff1614610a24576040517f08c379a0000000000000000000000000000000000000000000000000000000008152600401610a1b90612457565b60405180910390fd5b610a2e6000611311565b565b6000600660009054906101000a900473ffffffffffffffffffffffffffffffffffffffff16905090565b606060018054610a6990612707565b80601f0160208091040260200160405190810160405280929190818152602001828054610a9590612707565b8015610ae25780601f10610ab757610100808354040283529160200191610ae2565b820191906000526020600020905b815481529060010190602001808311610ac557829003601f168201915b5050505050905090565b610afe610af7610f0b565b83836113d7565b5050565b610b13610b0d610f0b565b83610fcc565b610b52576040517f08c379a0000000000000000000000000000000000000000000000000000000008152600401610b49906124b7565b60405180910390fd5b610b5e84848484611544565b50505050565b6060610b6f82610e9f565b610bae576040517f08c379a0000000000000000000000000000000000000000000000000000000008152600401610ba590612477565b60405180910390fd5b6000610bb86115a0565b90506000815111610bd85760405180602001604052806000815250610c03565b80610be2846115b7565b604051602001610bf392919061224f565b6040516020818303038152906040525b915050919050565b6000600560008473ffffffffffffffffffffffffffffffffffffffff1673ffffffffffffffffffffffffffffffffffffffff16815260200190815260200160002060008373ffffffffffffffffffffffffffffffffffffffff1673ffffffffffffffffffffffffffffffffffffffff16815260200190815260200160002060009054906101000a900460ff16905092915050565b6000808210158015610cb25750604f8211155b610cbb57600080fd5b3360078360508110610cf6577f4e487b7100000000000000000000000000000000000000000000000000000000600052603260045260246000fd5b0160006101000a81548173ffffffffffffffffffffffffffffffffffffffff021916908373ffffffffffffffffffffffffffffffffffffffff160217905550819050919050565b610d45610f0b565b73ffffffffffffffffffffffffffffffffffffffff16610d63610a30565b73ffffffffffffffffffffffffffffffffffffffff1614610db9576040517f08c379a0000000000000000000000000000000000000000000000000000000008152600401610db090612457565b60405180910390fd5b600073ffffffffffffffffffffffffffffffffffffffff168173ffffffffffffffffffffffffffffffffffffffff161415610e29576040517f08c379a0000000000000000000000000000000000000000000000000000000008152600401610e2090612337565b60405180910390fd5b610e3281611311565b50565b60007f01ffc9a7000000000000000000000000000000000000000000000000000000007bffffffffffffffffffffffffffffffffffffffffffffffffffffffff1916827bffffffffffffffffffffffffffffffffffffffffffffffffffffffff1916149050919050565b60008073ffffffffffffffffffffffffffffffffffffffff166002600084815260200190815260200160002060009054906101000a900473ffffffffffffffffffffffffffffffffffffffff1673ffffffffffffffffffffffffffffffffffffffff1614159050919050565b600033905090565b816004600083815260200190815260200160002060006101000a81548173ffffffffffffffffffffffffffffffffffffffff021916908373ffffffffffffffffffffffffffffffffffffffff160217905550808273ffffffffffffffffffffffffffffffffffffffff16610f868361083e565b73ffffffffffffffffffffffffffffffffffffffff167f8c5be1e5ebec7d5bd14f71427d1e84f3dd0314c0f7b2291e5b200ac8c7c3b92560405160405180910390a45050565b6000610fd782610e9f565b611016576040517f08c379a000000000000000000000000000000000000000000000000000000000815260040161100d906123b7565b60405180910390fd5b60006110218361083e565b90508073ffffffffffffffffffffffffffffffffffffffff168473ffffffffffffffffffffffffffffffffffffffff16148061109057508373ffffffffffffffffffffffffffffffffffffffff1661107884610621565b73ffffffffffffffffffffffffffffffffffffffff16145b806110a157506110a08185610c0b565b5b91505092915050565b8273ffffffffffffffffffffffffffffffffffffffff166110ca8261083e565b73ffffffffffffffffffffffffffffffffffffffff1614611120576040517f08c379a000000000000000000000000000000000000000000000000000000000815260040161111790612357565b60405180910390fd5b600073ffffffffffffffffffffffffffffffffffffffff168273ffffffffffffffffffffffffffffffffffffffff161415611190576040517f08c379a000000000000000000000000000000000000000000000000000000000815260040161118790612377565b60405180910390fd5b61119b838383611764565b6111a6600082610f13565b6001600360008573ffffffffffffffffffffffffffffffffffffffff1673ffffffffffffffffffffffffffffffffffffffff16815260200190815260200160002060008282546111f6919061261d565b925050819055506001600360008473ffffffffffffffffffffffffffffffffffffffff1673ffffffffffffffffffffffffffffffffffffffff168152602001908152602001600020600082825461124d9190612596565b92505081905550816002600083815260200190815260200160002060006101000a81548173ffffffffffffffffffffffffffffffffffffffff021916908373ffffffffffffffffffffffffffffffffffffffff160217905550808273ffffffffffffffffffffffffffffffffffffffff168473ffffffffffffffffffffffffffffffffffffffff167fddf252ad1be2c89b69c2b068fc378daa952ba7f163c4a11628f55a4df523b3ef60405160405180910390a461130c838383611769565b505050565b6000600660009054906101000a900473ffffffffffffffffffffffffffffffffffffffff16905081600660006101000a81548173ffffffffffffffffffffffffffffffffffffffff021916908373ffffffffffffffffffffffffffffffffffffffff1602179055508173ffffffffffffffffffffffffffffffffffffffff168173ffffffffffffffffffffffffffffffffffffffff167f8be0079c531659141344cd1fd0a4f28419497f9722a3daafe3b4186f6b6457e060405160405180910390a35050565b8173ffffffffffffffffffffffffffffffffffffffff168373ffffffffffffffffffffffffffffffffffffffff161415611446576040517f08c379a000000000000000000000000000000000000000000000000000000000815260040161143d90612397565b60405180910390fd5b80600560008573ffffffffffffffffffffffffffffffffffffffff1673ffffffffffffffffffffffffffffffffffffffff16815260200190815260200160002060008473ffffffffffffffffffffffffffffffffffffffff1673ffffffffffffffffffffffffffffffffffffffff16815260200190815260200160002060006101000a81548160ff0219169083151502179055508173ffffffffffffffffffffffffffffffffffffffff168373ffffffffffffffffffffffffffffffffffffffff167f17307eab39ab6107e8899845ad3d59bd9653f200f220920489ca2b5937696c318360405161153791906122da565b60405180910390a3505050565b61154f8484846110aa565b61155b8484848461176e565b61159a576040517f08c379a000000000000000000000000000000000000000000000000000000000815260040161159190612317565b60405180910390fd5b50505050565b606060405180602001604052806000815250905090565b606060008214156115ff576040518060400160405280600181526020017f3000000000000000000000000000000000000000000000000000000000000000815250905061175f565b600082905060005b6000821461163157808061161a90612739565b915050600a8261162a91906125ec565b9150611607565b60008167ffffffffffffffff811115611673577f4e487b7100000000000000000000000000000000000000000000000000000000600052604160045260246000fd5b6040519080825280601f01601f1916602001820160405280156116a55781602001600182028036833780820191505090505b5090505b60008514611758576001826116be919061261d565b9150600a856116cd9190612782565b60306116d99190612596565b60f81b818381518110611715577f4e487b7100000000000000000000000000000000000000000000000000000000600052603260045260246000fd5b60200101907effffffffffffffffffffffffffffffffffffffffffffffffffffffffffffff1916908160001a905350600a8561175191906125ec565b94506116a9565b8093505050505b919050565b505050565b505050565b600061178f8473ffffffffffffffffffffffffffffffffffffffff16611905565b156118f8578373ffffffffffffffffffffffffffffffffffffffff1663150b7a026117b8610f0b565b8786866040518563ffffffff1660e01b81526004016117da949392919061228e565b602060405180830381600087803b1580156117f457600080fd5b505af192505050801561182557506040513d601f19601f820116820180604052508101906118229190611be5565b60015b6118a8573d8060008114611855576040519150601f19603f3d011682016040523d82523d6000602084013e61185a565b606091505b506000815114156118a0576040517f08c379a000000000000000000000000000000000000000000000000000000000815260040161189790612317565b60405180910390fd5b805181602001fd5b63150b7a0260e01b7bffffffffffffffffffffffffffffffffffffffffffffffffffffffff1916817bffffffffffffffffffffffffffffffffffffffffffffffffffffffff1916149150506118fd565b600190505b949350505050565b6000808273ffffffffffffffffffffffffffffffffffffffff16803b806020016040519081016040528181526000908060200190933c51119050919050565b600061195761195284612523565b6124f2565b90508281526020810184848401111561196f57600080fd5b61197a8482856126c5565b509392505050565b60008135905061199181612880565b92915050565b6000813590506119a681612897565b92915050565b6000813590506119bb816128ae565b92915050565b6000815190506119d0816128ae565b92915050565b600082601f8301126119e757600080fd5b81356119f7848260208601611944565b91505092915050565b600081359050611a0f816128c5565b92915050565b600060208284031215611a2757600080fd5b6000611a3584828501611982565b91505092915050565b60008060408385031215611a5157600080fd5b6000611a5f85828601611982565b9250506020611a7085828601611982565b9150509250929050565b600080600060608486031215611a8f57600080fd5b6000611a9d86828701611982565b9350506020611aae86828701611982565b9250506040611abf86828701611a00565b9150509250925092565b60008060008060808587031215611adf57600080fd5b6000611aed87828801611982565b9450506020611afe87828801611982565b9350506040611b0f87828801611a00565b925050606085013567ffffffffffffffff811115611b2c57600080fd5b611b38878288016119d6565b91505092959194509250565b60008060408385031215611b5757600080fd5b6000611b6585828601611982565b9250506020611b7685828601611997565b9150509250929050565b60008060408385031215611b9357600080fd5b6000611ba185828601611982565b9250506020611bb285828601611a00565b9150509250929050565b600060208284031215611bce57600080fd5b6000611bdc848285016119ac565b91505092915050565b600060208284031215611bf757600080fd5b6000611c05848285016119c1565b91505092915050565b600060208284031215611c2057600080fd5b6000611c2e84828501611a00565b91505092915050565b611c4081612651565b82525050565b611c4f81612663565b82525050565b6000611c6082612553565b611c6a8185612569565b9350611c7a8185602086016126d4565b611c838161286f565b840191505092915050565b6000611c998261255e565b611ca3818561257a565b9350611cb38185602086016126d4565b611cbc8161286f565b840191505092915050565b6000611cd28261255e565b611cdc818561258b565b9350611cec8185602086016126d4565b80840191505092915050565b6000611d0560328361257a565b91507f4552433732313a207472616e7366657220746f206e6f6e20455243373231526560008301527f63656976657220696d706c656d656e74657200000000000000000000000000006020830152604082019050919050565b6000611d6b60268361257a565b91507f4f776e61626c653a206e6577206f776e657220697320746865207a65726f206160008301527f64647265737300000000000000000000000000000000000000000000000000006020830152604082019050919050565b6000611dd160258361257a565b91507f4552433732313a207472616e736665722066726f6d20696e636f72726563742060008301527f6f776e65720000000000000000000000000000000000000000000000000000006020830152604082019050919050565b6000611e3760248361257a565b91507f4552433732313a207472616e7366657220746f20746865207a65726f2061646460008301527f72657373000000000000000000000000000000000000000000000000000000006020830152604082019050919050565b6000611e9d60198361257a565b91507f4552433732313a20617070726f766520746f2063616c6c6572000000000000006000830152602082019050919050565b6000611edd602c8361257a565b91507f4552433732313a206f70657261746f7220717565727920666f72206e6f6e657860008301527f697374656e7420746f6b656e00000000000000000000000000000000000000006020830152604082019050919050565b6000611f4360388361257a565b91507f4552433732313a20617070726f76652063616c6c6572206973206e6f74206f7760008301527f6e6572206e6f7220617070726f76656420666f7220616c6c00000000000000006020830152604082019050919050565b6000611fa9602a8361257a565b91507f4552433732313a2062616c616e636520717565727920666f7220746865207a6560008301527f726f2061646472657373000000000000000000000000000000000000000000006020830152604082019050919050565b600061200f60298361257a565b91507f4552433732313a206f776e657220717565727920666f72206e6f6e657869737460008301527f656e7420746f6b656e00000000000000000000000000000000000000000000006020830152604082019050919050565b6000612075602c8361257a565b91507f4552433732313a20617070726f76656420717565727920666f72206e6f6e657860008301527f697374656e7420746f6b656e00000000000000000000000000000000000000006020830152604082019050919050565b60006120db60208361257a565b91507f4f776e61626c653a2063616c6c6572206973206e6f7420746865206f776e65726000830152602082019050919050565b600061211b602f8361257a565b91507f4552433732314d657461646174613a2055524920717565727920666f72206e6f60008301527f6e6578697374656e7420746f6b656e00000000000000000000000000000000006020830152604082019050919050565b600061218160218361257a565b91507f4552433732313a20617070726f76616c20746f2063757272656e74206f776e6560008301527f72000000000000000000000000000000000000000000000000000000000000006020830152604082019050919050565b60006121e760318361257a565b91507f4552433732313a207472616e736665722063616c6c6572206973206e6f74206f60008301527f776e6572206e6f7220617070726f7665640000000000000000000000000000006020830152604082019050919050565b612249816126bb565b82525050565b600061225b8285611cc7565b91506122678284611cc7565b91508190509392505050565b60006020820190506122886000830184611c37565b92915050565b60006080820190506122a36000830187611c37565b6122b06020830186611c37565b6122bd6040830185612240565b81810360608301526122cf8184611c55565b905095945050505050565b60006020820190506122ef6000830184611c46565b92915050565b6000602082019050818103600083015261230f8184611c8e565b905092915050565b6000602082019050818103600083015261233081611cf8565b9050919050565b6000602082019050818103600083015261235081611d5e565b9050919050565b6000602082019050818103600083015261237081611dc4565b9050919050565b6000602082019050818103600083015261239081611e2a565b9050919050565b600060208201905081810360008301526123b081611e90565b9050919050565b600060208201905081810360008301526123d081611ed0565b9050919050565b600060208201905081810360008301526123f081611f36565b9050919050565b6000602082019050818103600083015261241081611f9c565b9050919050565b6000602082019050818103600083015261243081612002565b9050919050565b6000602082019050818103600083015261245081612068565b9050919050565b60006020820190508181036000830152612470816120ce565b9050919050565b600060208201905081810360008301526124908161210e565b9050919050565b600060208201905081810360008301526124b081612174565b9050919050565b600060208201905081810360008301526124d0816121da565b9050919050565b60006020820190506124ec6000830184612240565b92915050565b6000604051905081810181811067ffffffffffffffff8211171561251957612518612840565b5b8060405250919050565b600067ffffffffffffffff82111561253e5761253d612840565b5b601f19601f8301169050602081019050919050565b600081519050919050565b600081519050919050565b600082825260208201905092915050565b600082825260208201905092915050565b600081905092915050565b60006125a1826126bb565b91506125ac836126bb565b9250827fffffffffffffffffffffffffffffffffffffffffffffffffffffffffffffffff038211156125e1576125e06127b3565b5b828201905092915050565b60006125f7826126bb565b9150612602836126bb565b925082612612576126116127e2565b5b828204905092915050565b6000612628826126bb565b9150612633836126bb565b925082821015612646576126456127b3565b5b828203905092915050565b600061265c8261269b565b9050919050565b60008115159050919050565b60007fffffffff0000000000000000000000000000000000000000000000000000000082169050919050565b600073ffffffffffffffffffffffffffffffffffffffff82169050919050565b6000819050919050565b82818337600083830152505050565b60005b838110156126f25780820151818401526020810190506126d7565b83811115612701576000848401525b50505050565b6000600282049050600182168061271f57607f821691505b6020821081141561273357612732612811565b5b50919050565b6000612744826126bb565b91507fffffffffffffffffffffffffffffffffffffffffffffffffffffffffffffffff821415612777576127766127b3565b5b600182019050919050565b600061278d826126bb565b9150612798836126bb565b9250826127a8576127a76127e2565b5b828206905092915050565b7f4e487b7100000000000000000000000000000000000000000000000000000000600052601160045260246000fd5b7f4e487b7100000000000000000000000000000000000000000000000000000000600052601260045260246000fd5b7f4e487b7100000000000000000000000000000000000000000000000000000000600052602260045260246000fd5b7f4e487b7100000000000000000000000000000000000000000000000000000000600052604160045260246000fd5b6000601f19601f8301169050919050565b61288981612651565b811461289457600080fd5b50565b6128a081612663565b81146128ab57600080fd5b50565b6128b78161266f565b81146128c257600080fd5b50565b6128ce816126bb565b81146128d957600080fd5b5056fea264697066735822122046d135d96d932c321013b2aaf9df0a30c62762ceafd5fff10ff598cbfbca9def64736f6c63430008000033",
  "immutableReferences": {},
  "source": "\n\n// SPDX-License-Identifier: MIT\npragma solidity ^0.8.0;\nimport \"./tokens/ERC721.sol\";\nimport \"./Ownable.sol\";\n\n \n\ncontract PurchaseLand is ERC721, Ownable {\n\naddress[80] public owners;\n  \n\n  constructor() ERC721(\"MetaLand\",\"MND\") {\n\n  }\n\n  function purchase (uint landId) payable public returns (uint) {\n    require(landId >= 0 && landId <= 79);\n    owners[landId] = msg.sender;\n    return landId;\n  }\n\n}",
  "sourcePath": "/Users/dolevp/dapp/metaland-dapp/contracts/PurchaseLand.sol",
  "compiler": {
    "name": "solc",
    "version": "0.8.0+commit.c7dfd78e.Emscripten.clang"
  },
  "schemaVersion": "3.4.5",
  "updatedAt": "2022-02-22T17:14:24.139Z",
  "networkType": "ethereum",
  "devdoc": {
    "kind": "dev",
    "methods": {
      "approve(address,uint256)": {
        "details": "See {IERC721-approve}."
      },
      "balanceOf(address)": {
        "details": "See {IERC721-balanceOf}."
      },
      "getApproved(uint256)": {
        "details": "See {IERC721-getApproved}."
      },
      "isApprovedForAll(address,address)": {
        "details": "See {IERC721-isApprovedForAll}."
      },
      "name()": {
        "details": "See {IERC721Metadata-name}."
      },
      "owner()": {
        "details": "Returns the address of the current owner."
      },
      "ownerOf(uint256)": {
        "details": "See {IERC721-ownerOf}."
      },
      "renounceOwnership()": {
        "details": "Leaves the contract without owner. It will not be possible to call `onlyOwner` functions anymore. Can only be called by the current owner. NOTE: Renouncing ownership will leave the contract without an owner, thereby removing any functionality that is only available to the owner."
      },
      "safeTransferFrom(address,address,uint256)": {
        "details": "See {IERC721-safeTransferFrom}."
      },
      "safeTransferFrom(address,address,uint256,bytes)": {
        "details": "See {IERC721-safeTransferFrom}."
      },
      "setApprovalForAll(address,bool)": {
        "details": "See {IERC721-setApprovalForAll}."
      },
      "supportsInterface(bytes4)": {
        "details": "See {IERC165-supportsInterface}."
      },
      "symbol()": {
        "details": "See {IERC721Metadata-symbol}."
      },
      "tokenURI(uint256)": {
        "details": "See {IERC721Metadata-tokenURI}."
      },
      "transferFrom(address,address,uint256)": {
        "details": "See {IERC721-transferFrom}."
      },
      "transferOwnership(address)": {
        "details": "Transfers ownership of the contract to a new account (`newOwner`). Can only be called by the current owner."
      }
    },
    "version": 1
  },
  "userdoc": {
    "kind": "user",
    "methods": {},
    "version": 1
  }
}