{
  "contractName": "PurchaseLand",
  "abi": [
    {
      "inputs": [],
      "stateMutability": "nonpayable",
      "type": "constructor"
    },
    {
      "anonymous": false,
      "inputs": [
        {
          "indexed": true,
          "internalType": "address",
          "name": "owner",
          "type": "address"
        },
        {
          "indexed": true,
          "internalType": "address",
          "name": "approved",
          "type": "address"
        },
        {
          "indexed": true,
          "internalType": "uint256",
          "name": "tokenId",
          "type": "uint256"
        }
      ],
      "name": "Approval",
      "type": "event"
    },
    {
      "anonymous": false,
      "inputs": [
        {
          "indexed": true,
          "internalType": "address",
          "name": "owner",
          "type": "address"
        },
        {
          "indexed": true,
          "internalType": "address",
          "name": "operator",
          "type": "address"
        },
        {
          "indexed": false,
          "internalType": "bool",
          "name": "approved",
          "type": "bool"
        }
      ],
      "name": "ApprovalForAll",
      "type": "event"
    },
    {
      "anonymous": false,
      "inputs": [
        {
          "indexed": false,
          "internalType": "address",
          "name": "indexedFrom",
          "type": "address"
        },
        {
          "indexed": false,
          "internalType": "uint256",
          "name": "landId",
          "type": "uint256"
        },
        {
          "indexed": false,
          "internalType": "address",
          "name": "owner",
          "type": "address"
        }
      ],
      "name": "LandBought",
      "type": "event"
    },
    {
      "anonymous": false,
      "inputs": [
        {
          "indexed": false,
          "internalType": "address",
          "name": "from",
          "type": "address"
        },
        {
          "indexed": false,
          "internalType": "address",
          "name": "to",
          "type": "address"
        },
        {
          "indexed": false,
          "internalType": "uint256",
          "name": "landId",
          "type": "uint256"
        }
      ],
      "name": "LandTransfer",
      "type": "event"
    },
    {
      "anonymous": false,
      "inputs": [
        {
          "indexed": true,
          "internalType": "address",
          "name": "previousOwner",
          "type": "address"
        },
        {
          "indexed": true,
          "internalType": "address",
          "name": "newOwner",
          "type": "address"
        }
      ],
      "name": "OwnershipTransferred",
      "type": "event"
    },
    {
      "anonymous": false,
      "inputs": [
        {
          "indexed": true,
          "internalType": "address",
          "name": "from",
          "type": "address"
        },
        {
          "indexed": true,
          "internalType": "address",
          "name": "to",
          "type": "address"
        },
        {
          "indexed": true,
          "internalType": "uint256",
          "name": "tokenId",
          "type": "uint256"
        }
      ],
      "name": "Transfer",
      "type": "event"
    },
    {
      "inputs": [
        {
          "internalType": "address",
          "name": "to",
          "type": "address"
        },
        {
          "internalType": "uint256",
          "name": "tokenId",
          "type": "uint256"
        }
      ],
      "name": "approve",
      "outputs": [],
      "stateMutability": "nonpayable",
      "type": "function"
    },
    {
      "inputs": [
        {
          "internalType": "address",
          "name": "owner",
          "type": "address"
        }
      ],
      "name": "balanceOf",
      "outputs": [
        {
          "internalType": "uint256",
          "name": "",
          "type": "uint256"
        }
      ],
      "stateMutability": "view",
      "type": "function",
      "constant": true
    },
    {
      "inputs": [
        {
          "internalType": "uint256",
          "name": "tokenId",
          "type": "uint256"
        }
      ],
      "name": "getApproved",
      "outputs": [
        {
          "internalType": "address",
          "name": "",
          "type": "address"
        }
      ],
      "stateMutability": "view",
      "type": "function",
      "constant": true
    },
    {
      "inputs": [
        {
          "internalType": "address",
          "name": "owner",
          "type": "address"
        },
        {
          "internalType": "address",
          "name": "operator",
          "type": "address"
        }
      ],
      "name": "isApprovedForAll",
      "outputs": [
        {
          "internalType": "bool",
          "name": "",
          "type": "bool"
        }
      ],
      "stateMutability": "view",
      "type": "function",
      "constant": true
    },
    {
      "inputs": [],
      "name": "name",
      "outputs": [
        {
          "internalType": "string",
          "name": "",
          "type": "string"
        }
      ],
      "stateMutability": "view",
      "type": "function",
      "constant": true
    },
    {
      "inputs": [],
      "name": "owner",
      "outputs": [
        {
          "internalType": "address",
          "name": "",
          "type": "address"
        }
      ],
      "stateMutability": "view",
      "type": "function",
      "constant": true
    },
    {
      "inputs": [
        {
          "internalType": "uint256",
          "name": "tokenId",
          "type": "uint256"
        }
      ],
      "name": "ownerOf",
      "outputs": [
        {
          "internalType": "address",
          "name": "",
          "type": "address"
        }
      ],
      "stateMutability": "view",
      "type": "function",
      "constant": true
    },
    {
      "inputs": [
        {
          "internalType": "uint256",
          "name": "",
          "type": "uint256"
        }
      ],
      "name": "owners",
      "outputs": [
        {
          "internalType": "address",
          "name": "",
          "type": "address"
        }
      ],
      "stateMutability": "view",
      "type": "function",
      "constant": true
    },
    {
      "inputs": [],
      "name": "renounceOwnership",
      "outputs": [],
      "stateMutability": "nonpayable",
      "type": "function"
    },
    {
      "inputs": [
        {
          "internalType": "address",
          "name": "from",
          "type": "address"
        },
        {
          "internalType": "address",
          "name": "to",
          "type": "address"
        },
        {
          "internalType": "uint256",
          "name": "tokenId",
          "type": "uint256"
        }
      ],
      "name": "safeTransferFrom",
      "outputs": [],
      "stateMutability": "nonpayable",
      "type": "function"
    },
    {
      "inputs": [
        {
          "internalType": "address",
          "name": "from",
          "type": "address"
        },
        {
          "internalType": "address",
          "name": "to",
          "type": "address"
        },
        {
          "internalType": "uint256",
          "name": "tokenId",
          "type": "uint256"
        },
        {
          "internalType": "bytes",
          "name": "_data",
          "type": "bytes"
        }
      ],
      "name": "safeTransferFrom",
      "outputs": [],
      "stateMutability": "nonpayable",
      "type": "function"
    },
    {
      "inputs": [
        {
          "internalType": "address",
          "name": "operator",
          "type": "address"
        },
        {
          "internalType": "bool",
          "name": "approved",
          "type": "bool"
        }
      ],
      "name": "setApprovalForAll",
      "outputs": [],
      "stateMutability": "nonpayable",
      "type": "function"
    },
    {
      "inputs": [
        {
          "internalType": "bytes4",
          "name": "interfaceId",
          "type": "bytes4"
        }
      ],
      "name": "supportsInterface",
      "outputs": [
        {
          "internalType": "bool",
          "name": "",
          "type": "bool"
        }
      ],
      "stateMutability": "view",
      "type": "function",
      "constant": true
    },
    {
      "inputs": [],
      "name": "symbol",
      "outputs": [
        {
          "internalType": "string",
          "name": "",
          "type": "string"
        }
      ],
      "stateMutability": "view",
      "type": "function",
      "constant": true
    },
    {
      "inputs": [
        {
          "internalType": "uint256",
          "name": "tokenId",
          "type": "uint256"
        }
      ],
      "name": "tokenURI",
      "outputs": [
        {
          "internalType": "string",
          "name": "",
          "type": "string"
        }
      ],
      "stateMutability": "view",
      "type": "function",
      "constant": true
    },
    {
      "inputs": [
        {
          "internalType": "address",
          "name": "from",
          "type": "address"
        },
        {
          "internalType": "address",
          "name": "to",
          "type": "address"
        },
        {
          "internalType": "uint256",
          "name": "tokenId",
          "type": "uint256"
        }
      ],
      "name": "transferFrom",
      "outputs": [],
      "stateMutability": "nonpayable",
      "type": "function"
    },
    {
      "inputs": [
        {
          "internalType": "address",
          "name": "newOwner",
          "type": "address"
        }
      ],
      "name": "transferOwnership",
      "outputs": [],
      "stateMutability": "nonpayable",
      "type": "function"
    },
    {
      "inputs": [
        {
          "internalType": "uint256",
          "name": "landId",
          "type": "uint256"
        }
      ],
      "name": "purchase",
      "outputs": [
        {
          "internalType": "uint256",
          "name": "",
          "type": "uint256"
        }
      ],
      "stateMutability": "payable",
      "type": "function",
      "payable": true
    },
    {
      "inputs": [],
      "name": "getOwners",
      "outputs": [
        {
          "internalType": "address[100]",
          "name": "",
          "type": "address[100]"
        }
      ],
      "stateMutability": "view",
      "type": "function",
      "constant": true
    },
    {
      "inputs": [
        {
          "internalType": "uint256",
          "name": "landId",
          "type": "uint256"
        }
      ],
      "name": "getOwner",
      "outputs": [
        {
          "internalType": "address",
          "name": "owner",
          "type": "address"
        }
      ],
      "stateMutability": "view",
      "type": "function",
      "constant": true
    },
    {
      "inputs": [
        {
          "internalType": "address",
          "name": "from",
          "type": "address"
        },
        {
          "internalType": "address",
          "name": "to",
          "type": "address"
        },
        {
          "internalType": "uint256",
          "name": "landId",
          "type": "uint256"
        }
      ],
      "name": "transferLand",
      "outputs": [
        {
          "internalType": "uint256",
          "name": "",
          "type": "uint256"
        }
      ],
      "stateMutability": "nonpayable",
      "type": "function"
    }
  ],
  "bytecode": "0x60806040523480156200001157600080fd5b506040518060400160405280600881526020017f4d6574614c616e640000000000000000000000000000000000000000000000008152506040518060400160405280600381526020017f4d4e440000000000000000000000000000000000000000000000000000000000815250816000908051906020019062000096929190620001a6565b508060019080519060200190620000af929190620001a6565b505050620000d2620000c6620000d860201b60201c565b620000e060201b60201c565b620002bb565b600033905090565b6000600660009054906101000a900473ffffffffffffffffffffffffffffffffffffffff16905081600660006101000a81548173ffffffffffffffffffffffffffffffffffffffff021916908373ffffffffffffffffffffffffffffffffffffffff1602179055508173ffffffffffffffffffffffffffffffffffffffff168173ffffffffffffffffffffffffffffffffffffffff167f8be0079c531659141344cd1fd0a4f28419497f9722a3daafe3b4186f6b6457e060405160405180910390a35050565b828054620001b49062000256565b90600052602060002090601f016020900481019282620001d8576000855562000224565b82601f10620001f357805160ff191683800117855562000224565b8280016001018555821562000224579182015b828111156200022357825182559160200191906001019062000206565b5b50905062000233919062000237565b5090565b5b808211156200025257600081600090555060010162000238565b5090565b600060028204905060018216806200026f57607f821691505b602082108114156200028657620002856200028c565b5b50919050565b7f4e487b7100000000000000000000000000000000000000000000000000000000600052602260045260246000fd5b612fba80620002cb6000396000f3fe60806040526004361061012a5760003560e01c80638da5cb5b116100ab578063b88d4fde1161006f578063b88d4fde14610404578063c41a360a1461042d578063c87b56dd1461046a578063e985e9c5146104a7578063efef39a1146104e4578063f2fde38b146105145761012a565b80638da5cb5b1461031d57806395d89b4114610348578063a0e67e2b14610373578063a22cb4651461039e578063a762c342146103c75761012a565b806323b872dd116100f257806323b872dd1461023a57806342842e0e146102635780636352211e1461028c57806370a08231146102c9578063715018a6146103065761012a565b806301ffc9a71461012f578063025e7c271461016c57806306fdde03146101a9578063081812fc146101d4578063095ea7b314610211575b600080fd5b34801561013b57600080fd5b50610156600480360381019061015191906120f5565b61053d565b6040516101639190612935565b60405180910390f35b34801561017857600080fd5b50610193600480360381019061018e9190612147565b61061f565b6040516101a09190612844565b60405180910390f35b3480156101b557600080fd5b506101be610655565b6040516101cb9190612950565b60405180910390f35b3480156101e057600080fd5b506101fb60048036038101906101f69190612147565b6106e7565b6040516102089190612844565b60405180910390f35b34801561021d57600080fd5b50610238600480360381019061023391906120b9565b61076c565b005b34801561024657600080fd5b50610261600480360381019061025c9190611fb3565b610884565b005b34801561026f57600080fd5b5061028a60048036038101906102859190611fb3565b6108e4565b005b34801561029857600080fd5b506102b360048036038101906102ae9190612147565b610904565b6040516102c09190612844565b60405180910390f35b3480156102d557600080fd5b506102f060048036038101906102eb9190611f4e565b610946565b6040516102fd9190612b52565b60405180910390f35b34801561031257600080fd5b5061031b6109fe565b005b34801561032957600080fd5b50610332610a86565b60405161033f9190612844565b60405180910390f35b34801561035457600080fd5b5061035d610ab0565b60405161036a9190612950565b60405180910390f35b34801561037f57600080fd5b50610388610b42565b6040516103959190612919565b60405180910390f35b3480156103aa57600080fd5b506103c560048036038101906103c0919061207d565b610bc3565b005b3480156103d357600080fd5b506103ee60048036038101906103e99190611fb3565b610bd9565b6040516103fb9190612b52565b60405180910390f35b34801561041057600080fd5b5061042b60048036038101906104269190612002565b610ca5565b005b34801561043957600080fd5b50610454600480360381019061044f9190612147565b610d07565b6040516104619190612844565b60405180910390f35b34801561047657600080fd5b50610491600480360381019061048c9190612147565b610d6c565b60405161049e9190612950565b60405180910390f35b3480156104b357600080fd5b506104ce60048036038101906104c99190611f77565b610e13565b6040516104db9190612935565b60405180910390f35b6104fe60048036038101906104f99190612147565b610ea7565b60405161050b9190612b52565b60405180910390f35b34801561052057600080fd5b5061053b60048036038101906105369190611f4e565b611079565b005b60007f80ac58cd000000000000000000000000000000000000000000000000000000007bffffffffffffffffffffffffffffffffffffffffffffffffffffffff1916827bffffffffffffffffffffffffffffffffffffffffffffffffffffffff1916148061060857507f5b5e139f000000000000000000000000000000000000000000000000000000007bffffffffffffffffffffffffffffffffffffffffffffffffffffffff1916827bffffffffffffffffffffffffffffffffffffffffffffffffffffffff1916145b80610618575061061782611171565b5b9050919050565b6007816064811061062f57600080fd5b016000915054906101000a900473ffffffffffffffffffffffffffffffffffffffff1681565b60606000805461066490612daf565b80601f016020809104026020016040519081016040528092919081815260200182805461069090612daf565b80156106dd5780601f106106b2576101008083540402835291602001916106dd565b820191906000526020600020905b8154815290600101906020018083116106c057829003601f168201915b5050505050905090565b60006106f2826111db565b610731576040517f08c379a000000000000000000000000000000000000000000000000000000000815260040161072890612ab2565b60405180910390fd5b6004600083815260200190815260200160002060009054906101000a900473ffffffffffffffffffffffffffffffffffffffff169050919050565b600061077782610904565b90508073ffffffffffffffffffffffffffffffffffffffff168373ffffffffffffffffffffffffffffffffffffffff1614156107e8576040517f08c379a00000000000000000000000000000000000000000000000000000000081526004016107df90612b12565b60405180910390fd5b8073ffffffffffffffffffffffffffffffffffffffff16610807611247565b73ffffffffffffffffffffffffffffffffffffffff161480610836575061083581610830611247565b610e13565b5b610875576040517f08c379a000000000000000000000000000000000000000000000000000000000815260040161086c90612a52565b60405180910390fd5b61087f838361124f565b505050565b61089561088f611247565b82611308565b6108d4576040517f08c379a00000000000000000000000000000000000000000000000000000000081526004016108cb90612b32565b60405180910390fd5b6108df8383836113e6565b505050565b6108ff83838360405180602001604052806000815250610ca5565b505050565b6000806002600084815260200190815260200160002060009054906101000a900473ffffffffffffffffffffffffffffffffffffffff16905080915050919050565b60008073ffffffffffffffffffffffffffffffffffffffff168273ffffffffffffffffffffffffffffffffffffffff1614156109b7576040517f08c379a00000000000000000000000000000000000000000000000000000000081526004016109ae90612a72565b60405180910390fd5b600360008373ffffffffffffffffffffffffffffffffffffffff1673ffffffffffffffffffffffffffffffffffffffff168152602001908152602001600020549050919050565b610a06611247565b73ffffffffffffffffffffffffffffffffffffffff16610a24610a86565b73ffffffffffffffffffffffffffffffffffffffff1614610a7a576040517f08c379a0000000000000000000000000000000000000000000000000000000008152600401610a7190612ad2565b60405180910390fd5b610a84600061164d565b565b6000600660009054906101000a900473ffffffffffffffffffffffffffffffffffffffff16905090565b606060018054610abf90612daf565b80601f0160208091040260200160405190810160405280929190818152602001828054610aeb90612daf565b8015610b385780601f10610b0d57610100808354040283529160200191610b38565b820191906000526020600020905b815481529060010190602001808311610b1b57829003601f168201915b5050505050905090565b610b4a611e5a565b6007606480602002604051908101604052809291908260648015610bb9576020028201915b8160009054906101000a900473ffffffffffffffffffffffffffffffffffffffff1673ffffffffffffffffffffffffffffffffffffffff1681526020019060010190808311610b6f575b5050505050905090565b610bd5610bce611247565b8383611713565b5050565b6000610be68484846113e6565b8260078360648110610c21577f4e487b7100000000000000000000000000000000000000000000000000000000600052603260045260246000fd5b0160006101000a81548173ffffffffffffffffffffffffffffffffffffffff021916908373ffffffffffffffffffffffffffffffffffffffff1602179055507f9e1d6189df6b1805ec42b2e7d6b24c959f44a916843a83c78d199e717631836b848484604051610c939392919061285f565b60405180910390a18190509392505050565b610cb6610cb0611247565b83611308565b610cf5576040517f08c379a0000000000000000000000000000000000000000000000000000000008152600401610cec90612b32565b60405180910390fd5b610d0184848484611880565b50505050565b600060078260648110610d43577f4e487b7100000000000000000000000000000000000000000000000000000000600052603260045260246000fd5b0160009054906101000a900473ffffffffffffffffffffffffffffffffffffffff169050919050565b6060610d77826111db565b610db6576040517f08c379a0000000000000000000000000000000000000000000000000000000008152600401610dad90612af2565b60405180910390fd5b6000610dc06118dc565b90506000815111610de05760405180602001604052806000815250610e0b565b80610dea846118f3565b604051602001610dfb929190612820565b6040516020818303038152906040525b915050919050565b6000600560008473ffffffffffffffffffffffffffffffffffffffff1673ffffffffffffffffffffffffffffffffffffffff16815260200190815260200160002060008373ffffffffffffffffffffffffffffffffffffffff1673ffffffffffffffffffffffffffffffffffffffff16815260200190815260200160002060009054906101000a900460ff16905092915050565b6000808210158015610eba575060638211155b610ec357600080fd5b600073ffffffffffffffffffffffffffffffffffffffff1660078360648110610f15577f4e487b7100000000000000000000000000000000000000000000000000000000600052603260045260246000fd5b0160009054906101000a900473ffffffffffffffffffffffffffffffffffffffff1673ffffffffffffffffffffffffffffffffffffffff1614610f5757600080fd5b610f613383611aa0565b3360078360648110610f9c577f4e487b7100000000000000000000000000000000000000000000000000000000600052603260045260246000fd5b0160006101000a81548173ffffffffffffffffffffffffffffffffffffffff021916908373ffffffffffffffffffffffffffffffffffffffff1602179055507fed9e0dc5479152698d99195d219992bd45798ef9712b0e94058cd0a9c614ce99338360078560648110611038577f4e487b7100000000000000000000000000000000000000000000000000000000600052603260045260246000fd5b0160009054906101000a900473ffffffffffffffffffffffffffffffffffffffff16604051611069939291906128e2565b60405180910390a1819050919050565b611081611247565b73ffffffffffffffffffffffffffffffffffffffff1661109f610a86565b73ffffffffffffffffffffffffffffffffffffffff16146110f5576040517f08c379a00000000000000000000000000000000000000000000000000000000081526004016110ec90612ad2565b60405180910390fd5b600073ffffffffffffffffffffffffffffffffffffffff168173ffffffffffffffffffffffffffffffffffffffff161415611165576040517f08c379a000000000000000000000000000000000000000000000000000000000815260040161115c90612992565b60405180910390fd5b61116e8161164d565b50565b60007f01ffc9a7000000000000000000000000000000000000000000000000000000007bffffffffffffffffffffffffffffffffffffffffffffffffffffffff1916827bffffffffffffffffffffffffffffffffffffffffffffffffffffffff1916149050919050565b60008073ffffffffffffffffffffffffffffffffffffffff166002600084815260200190815260200160002060009054906101000a900473ffffffffffffffffffffffffffffffffffffffff1673ffffffffffffffffffffffffffffffffffffffff1614159050919050565b600033905090565b816004600083815260200190815260200160002060006101000a81548173ffffffffffffffffffffffffffffffffffffffff021916908373ffffffffffffffffffffffffffffffffffffffff160217905550808273ffffffffffffffffffffffffffffffffffffffff166112c283610904565b73ffffffffffffffffffffffffffffffffffffffff167f8c5be1e5ebec7d5bd14f71427d1e84f3dd0314c0f7b2291e5b200ac8c7c3b92560405160405180910390a45050565b6000611313826111db565b611352576040517f08c379a000000000000000000000000000000000000000000000000000000000815260040161134990612a32565b60405180910390fd5b600061135d83610904565b90508073ffffffffffffffffffffffffffffffffffffffff168473ffffffffffffffffffffffffffffffffffffffff1614806113cc57508373ffffffffffffffffffffffffffffffffffffffff166113b4846106e7565b73ffffffffffffffffffffffffffffffffffffffff16145b806113dd57506113dc8185610e13565b5b91505092915050565b8273ffffffffffffffffffffffffffffffffffffffff1661140682610904565b73ffffffffffffffffffffffffffffffffffffffff161461145c576040517f08c379a0000000000000000000000000000000000000000000000000000000008152600401611453906129b2565b60405180910390fd5b600073ffffffffffffffffffffffffffffffffffffffff168273ffffffffffffffffffffffffffffffffffffffff1614156114cc576040517f08c379a00000000000000000000000000000000000000000000000000000000081526004016114c3906129f2565b60405180910390fd5b6114d7838383611c7a565b6114e260008261124f565b6001600360008573ffffffffffffffffffffffffffffffffffffffff1673ffffffffffffffffffffffffffffffffffffffff16815260200190815260200160002060008282546115329190612cc5565b925050819055506001600360008473ffffffffffffffffffffffffffffffffffffffff1673ffffffffffffffffffffffffffffffffffffffff16815260200190815260200160002060008282546115899190612c3e565b92505081905550816002600083815260200190815260200160002060006101000a81548173ffffffffffffffffffffffffffffffffffffffff021916908373ffffffffffffffffffffffffffffffffffffffff160217905550808273ffffffffffffffffffffffffffffffffffffffff168473ffffffffffffffffffffffffffffffffffffffff167fddf252ad1be2c89b69c2b068fc378daa952ba7f163c4a11628f55a4df523b3ef60405160405180910390a4611648838383611c7f565b505050565b6000600660009054906101000a900473ffffffffffffffffffffffffffffffffffffffff16905081600660006101000a81548173ffffffffffffffffffffffffffffffffffffffff021916908373ffffffffffffffffffffffffffffffffffffffff1602179055508173ffffffffffffffffffffffffffffffffffffffff168173ffffffffffffffffffffffffffffffffffffffff167f8be0079c531659141344cd1fd0a4f28419497f9722a3daafe3b4186f6b6457e060405160405180910390a35050565b8173ffffffffffffffffffffffffffffffffffffffff168373ffffffffffffffffffffffffffffffffffffffff161415611782576040517f08c379a000000000000000000000000000000000000000000000000000000000815260040161177990612a12565b60405180910390fd5b80600560008573ffffffffffffffffffffffffffffffffffffffff1673ffffffffffffffffffffffffffffffffffffffff16815260200190815260200160002060008473ffffffffffffffffffffffffffffffffffffffff1673ffffffffffffffffffffffffffffffffffffffff16815260200190815260200160002060006101000a81548160ff0219169083151502179055508173ffffffffffffffffffffffffffffffffffffffff168373ffffffffffffffffffffffffffffffffffffffff167f17307eab39ab6107e8899845ad3d59bd9653f200f220920489ca2b5937696c31836040516118739190612935565b60405180910390a3505050565b61188b8484846113e6565b61189784848484611c84565b6118d6576040517f08c379a00000000000000000000000000000000000000000000000000000000081526004016118cd90612972565b60405180910390fd5b50505050565b606060405180602001604052806000815250905090565b6060600082141561193b576040518060400160405280600181526020017f30000000000000000000000000000000000000000000000000000000000000008152509050611a9b565b600082905060005b6000821461196d57808061195690612de1565b915050600a826119669190612c94565b9150611943565b60008167ffffffffffffffff8111156119af577f4e487b7100000000000000000000000000000000000000000000000000000000600052604160045260246000fd5b6040519080825280601f01601f1916602001820160405280156119e15781602001600182028036833780820191505090505b5090505b60008514611a94576001826119fa9190612cc5565b9150600a85611a099190612e2a565b6030611a159190612c3e565b60f81b818381518110611a51577f4e487b7100000000000000000000000000000000000000000000000000000000600052603260045260246000fd5b60200101907effffffffffffffffffffffffffffffffffffffffffffffffffffffffffffff1916908160001a905350600a85611a8d9190612c94565b94506119e5565b8093505050505b919050565b600073ffffffffffffffffffffffffffffffffffffffff168273ffffffffffffffffffffffffffffffffffffffff161415611b10576040517f08c379a0000000000000000000000000000000000000000000000000000000008152600401611b0790612a92565b60405180910390fd5b611b19816111db565b15611b59576040517f08c379a0000000000000000000000000000000000000000000000000000000008152600401611b50906129d2565b60405180910390fd5b611b6560008383611c7a565b6001600360008473ffffffffffffffffffffffffffffffffffffffff1673ffffffffffffffffffffffffffffffffffffffff1681526020019081526020016000206000828254611bb59190612c3e565b92505081905550816002600083815260200190815260200160002060006101000a81548173ffffffffffffffffffffffffffffffffffffffff021916908373ffffffffffffffffffffffffffffffffffffffff160217905550808273ffffffffffffffffffffffffffffffffffffffff16600073ffffffffffffffffffffffffffffffffffffffff167fddf252ad1be2c89b69c2b068fc378daa952ba7f163c4a11628f55a4df523b3ef60405160405180910390a4611c7660008383611c7f565b5050565b505050565b505050565b6000611ca58473ffffffffffffffffffffffffffffffffffffffff16611e1b565b15611e0e578373ffffffffffffffffffffffffffffffffffffffff1663150b7a02611cce611247565b8786866040518563ffffffff1660e01b8152600401611cf09493929190612896565b602060405180830381600087803b158015611d0a57600080fd5b505af1925050508015611d3b57506040513d601f19601f82011682018060405250810190611d38919061211e565b60015b611dbe573d8060008114611d6b576040519150601f19603f3d011682016040523d82523d6000602084013e611d70565b606091505b50600081511415611db6576040517f08c379a0000000000000000000000000000000000000000000000000000000008152600401611dad90612972565b60405180910390fd5b805181602001fd5b63150b7a0260e01b7bffffffffffffffffffffffffffffffffffffffffffffffffffffffff1916817bffffffffffffffffffffffffffffffffffffffffffffffffffffffff191614915050611e13565b600190505b949350505050565b6000808273ffffffffffffffffffffffffffffffffffffffff16803b806020016040519081016040528181526000908060200190933c51119050919050565b60405180610c800160405280606490602082028036833780820191505090505090565b6000611e90611e8b84612b9e565b612b6d565b905082815260208101848484011115611ea857600080fd5b611eb3848285612d6d565b509392505050565b600081359050611eca81612f28565b92915050565b600081359050611edf81612f3f565b92915050565b600081359050611ef481612f56565b92915050565b600081519050611f0981612f56565b92915050565b600082601f830112611f2057600080fd5b8135611f30848260208601611e7d565b91505092915050565b600081359050611f4881612f6d565b92915050565b600060208284031215611f6057600080fd5b6000611f6e84828501611ebb565b91505092915050565b60008060408385031215611f8a57600080fd5b6000611f9885828601611ebb565b9250506020611fa985828601611ebb565b9150509250929050565b600080600060608486031215611fc857600080fd5b6000611fd686828701611ebb565b9350506020611fe786828701611ebb565b9250506040611ff886828701611f39565b9150509250925092565b6000806000806080858703121561201857600080fd5b600061202687828801611ebb565b945050602061203787828801611ebb565b935050604061204887828801611f39565b925050606085013567ffffffffffffffff81111561206557600080fd5b61207187828801611f0f565b91505092959194509250565b6000806040838503121561209057600080fd5b600061209e85828601611ebb565b92505060206120af85828601611ed0565b9150509250929050565b600080604083850312156120cc57600080fd5b60006120da85828601611ebb565b92505060206120eb85828601611f39565b9150509250929050565b60006020828403121561210757600080fd5b600061211584828501611ee5565b91505092915050565b60006020828403121561213057600080fd5b600061213e84828501611efa565b91505092915050565b60006020828403121561215957600080fd5b600061216784828501611f39565b91505092915050565b600061217c8383612188565b60208301905092915050565b61219181612cf9565b82525050565b6121a081612cf9565b82525050565b6121af81612bd8565b6121b98184612c06565b92506121c482612bce565b8060005b838110156121f55781516121dc8782612170565b96506121e783612bf9565b9250506001810190506121c8565b505050505050565b61220681612d0b565b82525050565b600061221782612be3565b6122218185612c11565b9350612231818560208601612d7c565b61223a81612f17565b840191505092915050565b600061225082612bee565b61225a8185612c22565b935061226a818560208601612d7c565b61227381612f17565b840191505092915050565b600061228982612bee565b6122938185612c33565b93506122a3818560208601612d7c565b80840191505092915050565b60006122bc603283612c22565b91507f4552433732313a207472616e7366657220746f206e6f6e20455243373231526560008301527f63656976657220696d706c656d656e74657200000000000000000000000000006020830152604082019050919050565b6000612322602683612c22565b91507f4f776e61626c653a206e6577206f776e657220697320746865207a65726f206160008301527f64647265737300000000000000000000000000000000000000000000000000006020830152604082019050919050565b6000612388602583612c22565b91507f4552433732313a207472616e736665722066726f6d20696e636f72726563742060008301527f6f776e65720000000000000000000000000000000000000000000000000000006020830152604082019050919050565b60006123ee601c83612c22565b91507f4552433732313a20746f6b656e20616c7265616479206d696e746564000000006000830152602082019050919050565b600061242e602483612c22565b91507f4552433732313a207472616e7366657220746f20746865207a65726f2061646460008301527f72657373000000000000000000000000000000000000000000000000000000006020830152604082019050919050565b6000612494601983612c22565b91507f4552433732313a20617070726f766520746f2063616c6c6572000000000000006000830152602082019050919050565b60006124d4602c83612c22565b91507f4552433732313a206f70657261746f7220717565727920666f72206e6f6e657860008301527f697374656e7420746f6b656e00000000000000000000000000000000000000006020830152604082019050919050565b600061253a603883612c22565b91507f4552433732313a20617070726f76652063616c6c6572206973206e6f74206f7760008301527f6e6572206e6f7220617070726f76656420666f7220616c6c00000000000000006020830152604082019050919050565b60006125a0602a83612c22565b91507f4552433732313a2062616c616e636520717565727920666f7220746865207a6560008301527f726f2061646472657373000000000000000000000000000000000000000000006020830152604082019050919050565b6000612606602083612c22565b91507f4552433732313a206d696e7420746f20746865207a65726f20616464726573736000830152602082019050919050565b6000612646602c83612c22565b91507f4552433732313a20617070726f76656420717565727920666f72206e6f6e657860008301527f697374656e7420746f6b656e00000000000000000000000000000000000000006020830152604082019050919050565b60006126ac602083612c22565b91507f4f776e61626c653a2063616c6c6572206973206e6f7420746865206f776e65726000830152602082019050919050565b60006126ec602f83612c22565b91507f4552433732314d657461646174613a2055524920717565727920666f72206e6f60008301527f6e6578697374656e7420746f6b656e00000000000000000000000000000000006020830152604082019050919050565b6000612752602183612c22565b91507f4552433732313a20617070726f76616c20746f2063757272656e74206f776e6560008301527f72000000000000000000000000000000000000000000000000000000000000006020830152604082019050919050565b60006127b8603183612c22565b91507f4552433732313a207472616e736665722063616c6c6572206973206e6f74206f60008301527f776e6572206e6f7220617070726f7665640000000000000000000000000000006020830152604082019050919050565b61281a81612d63565b82525050565b600061282c828561227e565b9150612838828461227e565b91508190509392505050565b60006020820190506128596000830184612197565b92915050565b60006060820190506128746000830186612197565b6128816020830185612197565b61288e6040830184612811565b949350505050565b60006080820190506128ab6000830187612197565b6128b86020830186612197565b6128c56040830185612811565b81810360608301526128d7818461220c565b905095945050505050565b60006060820190506128f76000830186612197565b6129046020830185612811565b6129116040830184612197565b949350505050565b6000610c808201905061292f60008301846121a6565b92915050565b600060208201905061294a60008301846121fd565b92915050565b6000602082019050818103600083015261296a8184612245565b905092915050565b6000602082019050818103600083015261298b816122af565b9050919050565b600060208201905081810360008301526129ab81612315565b9050919050565b600060208201905081810360008301526129cb8161237b565b9050919050565b600060208201905081810360008301526129eb816123e1565b9050919050565b60006020820190508181036000830152612a0b81612421565b9050919050565b60006020820190508181036000830152612a2b81612487565b9050919050565b60006020820190508181036000830152612a4b816124c7565b9050919050565b60006020820190508181036000830152612a6b8161252d565b9050919050565b60006020820190508181036000830152612a8b81612593565b9050919050565b60006020820190508181036000830152612aab816125f9565b9050919050565b60006020820190508181036000830152612acb81612639565b9050919050565b60006020820190508181036000830152612aeb8161269f565b9050919050565b60006020820190508181036000830152612b0b816126df565b9050919050565b60006020820190508181036000830152612b2b81612745565b9050919050565b60006020820190508181036000830152612b4b816127ab565b9050919050565b6000602082019050612b676000830184612811565b92915050565b6000604051905081810181811067ffffffffffffffff82111715612b9457612b93612ee8565b5b8060405250919050565b600067ffffffffffffffff821115612bb957612bb8612ee8565b5b601f19601f8301169050602081019050919050565b6000819050919050565b600060649050919050565b600081519050919050565b600081519050919050565b6000602082019050919050565b600081905092915050565b600082825260208201905092915050565b600082825260208201905092915050565b600081905092915050565b6000612c4982612d63565b9150612c5483612d63565b9250827fffffffffffffffffffffffffffffffffffffffffffffffffffffffffffffffff03821115612c8957612c88612e5b565b5b828201905092915050565b6000612c9f82612d63565b9150612caa83612d63565b925082612cba57612cb9612e8a565b5b828204905092915050565b6000612cd082612d63565b9150612cdb83612d63565b925082821015612cee57612ced612e5b565b5b828203905092915050565b6000612d0482612d43565b9050919050565b60008115159050919050565b60007fffffffff0000000000000000000000000000000000000000000000000000000082169050919050565b600073ffffffffffffffffffffffffffffffffffffffff82169050919050565b6000819050919050565b82818337600083830152505050565b60005b83811015612d9a578082015181840152602081019050612d7f565b83811115612da9576000848401525b50505050565b60006002820490506001821680612dc757607f821691505b60208210811415612ddb57612dda612eb9565b5b50919050565b6000612dec82612d63565b91507fffffffffffffffffffffffffffffffffffffffffffffffffffffffffffffffff821415612e1f57612e1e612e5b565b5b600182019050919050565b6000612e3582612d63565b9150612e4083612d63565b925082612e5057612e4f612e8a565b5b828206905092915050565b7f4e487b7100000000000000000000000000000000000000000000000000000000600052601160045260246000fd5b7f4e487b7100000000000000000000000000000000000000000000000000000000600052601260045260246000fd5b7f4e487b7100000000000000000000000000000000000000000000000000000000600052602260045260246000fd5b7f4e487b7100000000000000000000000000000000000000000000000000000000600052604160045260246000fd5b6000601f19601f8301169050919050565b612f3181612cf9565b8114612f3c57600080fd5b50565b612f4881612d0b565b8114612f5357600080fd5b50565b612f5f81612d17565b8114612f6a57600080fd5b50565b612f7681612d63565b8114612f8157600080fd5b5056fea2646970667358221220a7a800448b5cbe08f14df5c8313778e01f2a1177b8cdd7305de97cf8a591017664736f6c63430008000033",
  "immutableReferences": {},
  "source": "// SPDX-License-Identifier: MIT\r\npragma solidity ^0.8.0;\r\nimport \"./tokens/ERC721.sol\";\r\nimport \"./Ownable.sol\";\r\n\r\ncontract PurchaseLand is ERC721, Ownable {\r\n    address[100] public owners;\r\n    uint256 balance;\r\n\r\n    event LandBought(address indexedFrom, uint256 landId, address owner);\r\n    event LandTransfer(address from, address to, uint landId);\r\n\r\n    constructor() ERC721(\"MetaLand\", \"MND\") {}\r\n\r\n    function purchase(uint256 landId) public payable returns (uint256) {\r\n        require(landId >= 0 && landId <= 99);\r\n        require(owners[landId] == 0x0000000000000000000000000000000000000000);\r\n        _mint(msg.sender, landId);\r\n        owners[landId] = msg.sender;\r\n        emit LandBought(msg.sender, landId, owners[landId]);\r\n        return landId;\r\n    }\r\n    // Retrieving the owners\r\n    function getOwners() public view returns (address[100] memory) {\r\n        return owners;\r\n    }\r\n    // Retrieving specific owner\r\n    function getOwner(uint256 landId) public view returns (address owner) {\r\n        return owners[landId];\r\n    }\r\n\r\n    function transferLand(address from, address to, uint256 landId ) public virtual  returns (uint256) {\r\n        //solhint-disable-next-line max-line-length\r\n        _transfer(from, to, landId);\r\n        owners[landId] = to;\r\n        emit LandTransfer(from ,to ,landId);\r\n        return landId;\r\n    }\r\n}\r\n",
  "sourcePath": "B:\\webAfeka\\BlockChain\\metaland\\eth-todo-list-react\\contracts\\PurchaseLand.sol",
  "compiler": {
    "name": "solc",
    "version": "0.8.0+commit.c7dfd78e.Emscripten.clang"
  },
  "schemaVersion": "3.4.4",
  "updatedAt": "2022-02-28T20:51:17.481Z",
  "networkType": "ethereum",
  "devdoc": {
    "kind": "dev",
    "methods": {
      "approve(address,uint256)": {
        "details": "See {IERC721-approve}."
      },
      "balanceOf(address)": {
        "details": "See {IERC721-balanceOf}."
      },
      "getApproved(uint256)": {
        "details": "See {IERC721-getApproved}."
      },
      "isApprovedForAll(address,address)": {
        "details": "See {IERC721-isApprovedForAll}."
      },
      "name()": {
        "details": "See {IERC721Metadata-name}."
      },
      "owner()": {
        "details": "Returns the address of the current owner."
      },
      "ownerOf(uint256)": {
        "details": "See {IERC721-ownerOf}."
      },
      "renounceOwnership()": {
        "details": "Leaves the contract without owner. It will not be possible to call `onlyOwner` functions anymore. Can only be called by the current owner. NOTE: Renouncing ownership will leave the contract without an owner, thereby removing any functionality that is only available to the owner."
      },
      "safeTransferFrom(address,address,uint256)": {
        "details": "See {IERC721-safeTransferFrom}."
      },
      "safeTransferFrom(address,address,uint256,bytes)": {
        "details": "See {IERC721-safeTransferFrom}."
      },
      "setApprovalForAll(address,bool)": {
        "details": "See {IERC721-setApprovalForAll}."
      },
      "supportsInterface(bytes4)": {
        "details": "See {IERC165-supportsInterface}."
      },
      "symbol()": {
        "details": "See {IERC721Metadata-symbol}."
      },
      "tokenURI(uint256)": {
        "details": "See {IERC721Metadata-tokenURI}."
      },
      "transferFrom(address,address,uint256)": {
        "details": "See {IERC721-transferFrom}."
      },
      "transferOwnership(address)": {
        "details": "Transfers ownership of the contract to a new account (`newOwner`). Can only be called by the current owner."
      }
    },
    "version": 1
  },
  "userdoc": {
    "kind": "user",
    "methods": {},
    "version": 1
  }
}