{
  "contractName": "PurchaseLand",
  "abi": [
    {
      "inputs": [],
      "stateMutability": "nonpayable",
      "type": "constructor"
    },
    {
      "anonymous": false,
      "inputs": [
        {
          "indexed": true,
          "internalType": "address",
          "name": "owner",
          "type": "address"
        },
        {
          "indexed": true,
          "internalType": "address",
          "name": "approved",
          "type": "address"
        },
        {
          "indexed": true,
          "internalType": "uint256",
          "name": "tokenId",
          "type": "uint256"
        }
      ],
      "name": "Approval",
      "type": "event"
    },
    {
      "anonymous": false,
      "inputs": [
        {
          "indexed": true,
          "internalType": "address",
          "name": "owner",
          "type": "address"
        },
        {
          "indexed": true,
          "internalType": "address",
          "name": "operator",
          "type": "address"
        },
        {
          "indexed": false,
          "internalType": "bool",
          "name": "approved",
          "type": "bool"
        }
      ],
      "name": "ApprovalForAll",
      "type": "event"
    },
    {
      "anonymous": false,
      "inputs": [
        {
          "indexed": false,
          "internalType": "address",
          "name": "indexedFrom",
          "type": "address"
        },
        {
          "indexed": false,
          "internalType": "uint256",
          "name": "landId",
          "type": "uint256"
        },
        {
          "indexed": false,
          "internalType": "address",
          "name": "owner",
          "type": "address"
        }
      ],
      "name": "LandBought",
      "type": "event"
    },
    {
      "anonymous": false,
      "inputs": [
        {
          "indexed": true,
          "internalType": "address",
          "name": "previousOwner",
          "type": "address"
        },
        {
          "indexed": true,
          "internalType": "address",
          "name": "newOwner",
          "type": "address"
        }
      ],
      "name": "OwnershipTransferred",
      "type": "event"
    },
    {
      "anonymous": false,
      "inputs": [
        {
          "indexed": true,
          "internalType": "address",
          "name": "from",
          "type": "address"
        },
        {
          "indexed": true,
          "internalType": "address",
          "name": "to",
          "type": "address"
        },
        {
          "indexed": true,
          "internalType": "uint256",
          "name": "tokenId",
          "type": "uint256"
        }
      ],
      "name": "Transfer",
      "type": "event"
    },
    {
      "inputs": [
        {
          "internalType": "address",
          "name": "to",
          "type": "address"
        },
        {
          "internalType": "uint256",
          "name": "tokenId",
          "type": "uint256"
        }
      ],
      "name": "approve",
      "outputs": [],
      "stateMutability": "nonpayable",
      "type": "function"
    },
    {
      "inputs": [
        {
          "internalType": "address",
          "name": "owner",
          "type": "address"
        }
      ],
      "name": "balanceOf",
      "outputs": [
        {
          "internalType": "uint256",
          "name": "",
          "type": "uint256"
        }
      ],
      "stateMutability": "view",
      "type": "function",
      "constant": true
    },
    {
      "inputs": [
        {
          "internalType": "uint256",
          "name": "tokenId",
          "type": "uint256"
        }
      ],
      "name": "getApproved",
      "outputs": [
        {
          "internalType": "address",
          "name": "",
          "type": "address"
        }
      ],
      "stateMutability": "view",
      "type": "function",
      "constant": true
    },
    {
      "inputs": [
        {
          "internalType": "address",
          "name": "owner",
          "type": "address"
        },
        {
          "internalType": "address",
          "name": "operator",
          "type": "address"
        }
      ],
      "name": "isApprovedForAll",
      "outputs": [
        {
          "internalType": "bool",
          "name": "",
          "type": "bool"
        }
      ],
      "stateMutability": "view",
      "type": "function",
      "constant": true
    },
    {
      "inputs": [],
      "name": "name",
      "outputs": [
        {
          "internalType": "string",
          "name": "",
          "type": "string"
        }
      ],
      "stateMutability": "view",
      "type": "function",
      "constant": true
    },
    {
      "inputs": [],
      "name": "owner",
      "outputs": [
        {
          "internalType": "address",
          "name": "",
          "type": "address"
        }
      ],
      "stateMutability": "view",
      "type": "function",
      "constant": true
    },
    {
      "inputs": [
        {
          "internalType": "uint256",
          "name": "tokenId",
          "type": "uint256"
        }
      ],
      "name": "ownerOf",
      "outputs": [
        {
          "internalType": "address",
          "name": "",
          "type": "address"
        }
      ],
      "stateMutability": "view",
      "type": "function",
      "constant": true
    },
    {
      "inputs": [
        {
          "internalType": "uint256",
          "name": "",
          "type": "uint256"
        }
      ],
      "name": "owners",
      "outputs": [
        {
          "internalType": "address",
          "name": "",
          "type": "address"
        }
      ],
      "stateMutability": "view",
      "type": "function",
      "constant": true
    },
    {
      "inputs": [],
      "name": "renounceOwnership",
      "outputs": [],
      "stateMutability": "nonpayable",
      "type": "function"
    },
    {
      "inputs": [
        {
          "internalType": "address",
          "name": "from",
          "type": "address"
        },
        {
          "internalType": "address",
          "name": "to",
          "type": "address"
        },
        {
          "internalType": "uint256",
          "name": "tokenId",
          "type": "uint256"
        }
      ],
      "name": "safeTransferFrom",
      "outputs": [],
      "stateMutability": "nonpayable",
      "type": "function"
    },
    {
      "inputs": [
        {
          "internalType": "address",
          "name": "from",
          "type": "address"
        },
        {
          "internalType": "address",
          "name": "to",
          "type": "address"
        },
        {
          "internalType": "uint256",
          "name": "tokenId",
          "type": "uint256"
        },
        {
          "internalType": "bytes",
          "name": "_data",
          "type": "bytes"
        }
      ],
      "name": "safeTransferFrom",
      "outputs": [],
      "stateMutability": "nonpayable",
      "type": "function"
    },
    {
      "inputs": [
        {
          "internalType": "address",
          "name": "operator",
          "type": "address"
        },
        {
          "internalType": "bool",
          "name": "approved",
          "type": "bool"
        }
      ],
      "name": "setApprovalForAll",
      "outputs": [],
      "stateMutability": "nonpayable",
      "type": "function"
    },
    {
      "inputs": [
        {
          "internalType": "bytes4",
          "name": "interfaceId",
          "type": "bytes4"
        }
      ],
      "name": "supportsInterface",
      "outputs": [
        {
          "internalType": "bool",
          "name": "",
          "type": "bool"
        }
      ],
      "stateMutability": "view",
      "type": "function",
      "constant": true
    },
    {
      "inputs": [],
      "name": "symbol",
      "outputs": [
        {
          "internalType": "string",
          "name": "",
          "type": "string"
        }
      ],
      "stateMutability": "view",
      "type": "function",
      "constant": true
    },
    {
      "inputs": [
        {
          "internalType": "uint256",
          "name": "tokenId",
          "type": "uint256"
        }
      ],
      "name": "tokenURI",
      "outputs": [
        {
          "internalType": "string",
          "name": "",
          "type": "string"
        }
      ],
      "stateMutability": "view",
      "type": "function",
      "constant": true
    },
    {
      "inputs": [
        {
          "internalType": "address",
          "name": "from",
          "type": "address"
        },
        {
          "internalType": "address",
          "name": "to",
          "type": "address"
        },
        {
          "internalType": "uint256",
          "name": "tokenId",
          "type": "uint256"
        }
      ],
      "name": "transferFrom",
      "outputs": [],
      "stateMutability": "nonpayable",
      "type": "function"
    },
    {
      "inputs": [
        {
          "internalType": "address",
          "name": "newOwner",
          "type": "address"
        }
      ],
      "name": "transferOwnership",
      "outputs": [],
      "stateMutability": "nonpayable",
      "type": "function"
    },
    {
      "inputs": [
        {
          "internalType": "uint256",
          "name": "landId",
          "type": "uint256"
        }
      ],
      "name": "purchase",
      "outputs": [
        {
          "internalType": "uint256",
          "name": "",
          "type": "uint256"
        }
      ],
      "stateMutability": "payable",
      "type": "function",
      "payable": true
    }
  ],
  "bytecode": "0x60806040523480156200001157600080fd5b506040518060400160405280600881526020017f4d6574614c616e640000000000000000000000000000000000000000000000008152506040518060400160405280600381526020017f4d4e440000000000000000000000000000000000000000000000000000000000815250816000908051906020019062000096929190620001a6565b508060019080519060200190620000af929190620001a6565b505050620000d2620000c6620000d860201b60201c565b620000e060201b60201c565b620002bb565b600033905090565b6000600660009054906101000a900473ffffffffffffffffffffffffffffffffffffffff16905081600660006101000a81548173ffffffffffffffffffffffffffffffffffffffff021916908373ffffffffffffffffffffffffffffffffffffffff1602179055508173ffffffffffffffffffffffffffffffffffffffff168173ffffffffffffffffffffffffffffffffffffffff167f8be0079c531659141344cd1fd0a4f28419497f9722a3daafe3b4186f6b6457e060405160405180910390a35050565b828054620001b49062000256565b90600052602060002090601f016020900481019282620001d8576000855562000224565b82601f10620001f357805160ff191683800117855562000224565b8280016001018555821562000224579182015b828111156200022357825182559160200191906001019062000206565b5b50905062000233919062000237565b5090565b5b808211156200025257600081600090555060010162000238565b5090565b600060028204905060018216806200026f57607f821691505b602082108114156200028657620002856200028c565b5b50919050565b7f4e487b7100000000000000000000000000000000000000000000000000000000600052602260045260246000fd5b612a7f80620002cb6000396000f3fe6080604052600436106101095760003560e01c8063715018a611610095578063b88d4fde11610064578063b88d4fde1461037b578063c87b56dd146103a4578063e985e9c5146103e1578063efef39a11461041e578063f2fde38b1461044e57610109565b8063715018a6146102e55780638da5cb5b146102fc57806395d89b4114610327578063a22cb4651461035257610109565b8063095ea7b3116100dc578063095ea7b3146101f057806323b872dd1461021957806342842e0e146102425780636352211e1461026b57806370a08231146102a857610109565b806301ffc9a71461010e578063025e7c271461014b57806306fdde0314610188578063081812fc146101b3575b600080fd5b34801561011a57600080fd5b5061013560048036038101906101309190611cf2565b610477565b6040516101429190612447565b60405180910390f35b34801561015757600080fd5b50610172600480360381019061016d9190611d44565b610559565b60405161017f91906123a9565b60405180910390f35b34801561019457600080fd5b5061019d61058f565b6040516101aa9190612462565b60405180910390f35b3480156101bf57600080fd5b506101da60048036038101906101d59190611d44565b610621565b6040516101e791906123a9565b60405180910390f35b3480156101fc57600080fd5b5061021760048036038101906102129190611cb6565b6106a6565b005b34801561022557600080fd5b50610240600480360381019061023b9190611bb0565b6107be565b005b34801561024e57600080fd5b5061026960048036038101906102649190611bb0565b61081e565b005b34801561027757600080fd5b50610292600480360381019061028d9190611d44565b61083e565b60405161029f91906123a9565b60405180910390f35b3480156102b457600080fd5b506102cf60048036038101906102ca9190611b4b565b6108f0565b6040516102dc9190612644565b60405180910390f35b3480156102f157600080fd5b506102fa6109a8565b005b34801561030857600080fd5b50610311610a30565b60405161031e91906123a9565b60405180910390f35b34801561033357600080fd5b5061033c610a5a565b6040516103499190612462565b60405180910390f35b34801561035e57600080fd5b5061037960048036038101906103749190611c7a565b610aec565b005b34801561038757600080fd5b506103a2600480360381019061039d9190611bff565b610b02565b005b3480156103b057600080fd5b506103cb60048036038101906103c69190611d44565b610b64565b6040516103d89190612462565b60405180910390f35b3480156103ed57600080fd5b5061040860048036038101906104039190611b74565b610c0b565b6040516104159190612447565b60405180910390f35b61043860048036038101906104339190611d44565b610c9f565b6040516104459190612644565b60405180910390f35b34801561045a57600080fd5b5061047560048036038101906104709190611b4b565b610e73565b005b60007f80ac58cd000000000000000000000000000000000000000000000000000000007bffffffffffffffffffffffffffffffffffffffffffffffffffffffff1916827bffffffffffffffffffffffffffffffffffffffffffffffffffffffff1916148061054257507f5b5e139f000000000000000000000000000000000000000000000000000000007bffffffffffffffffffffffffffffffffffffffffffffffffffffffff1916827bffffffffffffffffffffffffffffffffffffffffffffffffffffffff1916145b80610552575061055182610f6b565b5b9050919050565b6007816050811061056957600080fd5b016000915054906101000a900473ffffffffffffffffffffffffffffffffffffffff1681565b60606000805461059e90612874565b80601f01602080910402602001604051908101604052809291908181526020018280546105ca90612874565b80156106175780601f106105ec57610100808354040283529160200191610617565b820191906000526020600020905b8154815290600101906020018083116105fa57829003601f168201915b5050505050905090565b600061062c82610fd5565b61066b576040517f08c379a0000000000000000000000000000000000000000000000000000000008152600401610662906125a4565b60405180910390fd5b6004600083815260200190815260200160002060009054906101000a900473ffffffffffffffffffffffffffffffffffffffff169050919050565b60006106b18261083e565b90508073ffffffffffffffffffffffffffffffffffffffff168373ffffffffffffffffffffffffffffffffffffffff161415610722576040517f08c379a000000000000000000000000000000000000000000000000000000000815260040161071990612604565b60405180910390fd5b8073ffffffffffffffffffffffffffffffffffffffff16610741611041565b73ffffffffffffffffffffffffffffffffffffffff161480610770575061076f8161076a611041565b610c0b565b5b6107af576040517f08c379a00000000000000000000000000000000000000000000000000000000081526004016107a690612544565b60405180910390fd5b6107b98383611049565b505050565b6107cf6107c9611041565b82611102565b61080e576040517f08c379a000000000000000000000000000000000000000000000000000000000815260040161080590612624565b60405180910390fd5b6108198383836111e0565b505050565b61083983838360405180602001604052806000815250610b02565b505050565b6000806002600084815260200190815260200160002060009054906101000a900473ffffffffffffffffffffffffffffffffffffffff169050600073ffffffffffffffffffffffffffffffffffffffff168173ffffffffffffffffffffffffffffffffffffffff1614156108e7576040517f08c379a00000000000000000000000000000000000000000000000000000000081526004016108de90612584565b60405180910390fd5b80915050919050565b60008073ffffffffffffffffffffffffffffffffffffffff168273ffffffffffffffffffffffffffffffffffffffff161415610961576040517f08c379a000000000000000000000000000000000000000000000000000000000815260040161095890612564565b60405180910390fd5b600360008373ffffffffffffffffffffffffffffffffffffffff1673ffffffffffffffffffffffffffffffffffffffff168152602001908152602001600020549050919050565b6109b0611041565b73ffffffffffffffffffffffffffffffffffffffff166109ce610a30565b73ffffffffffffffffffffffffffffffffffffffff1614610a24576040517f08c379a0000000000000000000000000000000000000000000000000000000008152600401610a1b906125c4565b60405180910390fd5b610a2e6000611447565b565b6000600660009054906101000a900473ffffffffffffffffffffffffffffffffffffffff16905090565b606060018054610a6990612874565b80601f0160208091040260200160405190810160405280929190818152602001828054610a9590612874565b8015610ae25780601f10610ab757610100808354040283529160200191610ae2565b820191906000526020600020905b815481529060010190602001808311610ac557829003601f168201915b5050505050905090565b610afe610af7611041565b838361150d565b5050565b610b13610b0d611041565b83611102565b610b52576040517f08c379a0000000000000000000000000000000000000000000000000000000008152600401610b4990612624565b60405180910390fd5b610b5e8484848461167a565b50505050565b6060610b6f82610fd5565b610bae576040517f08c379a0000000000000000000000000000000000000000000000000000000008152600401610ba5906125e4565b60405180910390fd5b6000610bb86116d6565b90506000815111610bd85760405180602001604052806000815250610c03565b80610be2846116ed565b604051602001610bf3929190612385565b6040516020818303038152906040525b915050919050565b6000600560008473ffffffffffffffffffffffffffffffffffffffff1673ffffffffffffffffffffffffffffffffffffffff16815260200190815260200160002060008373ffffffffffffffffffffffffffffffffffffffff1673ffffffffffffffffffffffffffffffffffffffff16815260200190815260200160002060009054906101000a900460ff16905092915050565b6000808210158015610cb25750604f8211155b610cbb57600080fd5b600073ffffffffffffffffffffffffffffffffffffffff1660078360508110610d0d577f4e487b7100000000000000000000000000000000000000000000000000000000600052603260045260246000fd5b0160009054906101000a900473ffffffffffffffffffffffffffffffffffffffff1673ffffffffffffffffffffffffffffffffffffffff1614610d4f57600080fd5b610d5b600033846107be565b3360078360508110610d96577f4e487b7100000000000000000000000000000000000000000000000000000000600052603260045260246000fd5b0160006101000a81548173ffffffffffffffffffffffffffffffffffffffff021916908373ffffffffffffffffffffffffffffffffffffffff1602179055507fed9e0dc5479152698d99195d219992bd45798ef9712b0e94058cd0a9c614ce99338360078560508110610e32577f4e487b7100000000000000000000000000000000000000000000000000000000600052603260045260246000fd5b0160009054906101000a900473ffffffffffffffffffffffffffffffffffffffff16604051610e6393929190612410565b60405180910390a1819050919050565b610e7b611041565b73ffffffffffffffffffffffffffffffffffffffff16610e99610a30565b73ffffffffffffffffffffffffffffffffffffffff1614610eef576040517f08c379a0000000000000000000000000000000000000000000000000000000008152600401610ee6906125c4565b60405180910390fd5b600073ffffffffffffffffffffffffffffffffffffffff168173ffffffffffffffffffffffffffffffffffffffff161415610f5f576040517f08c379a0000000000000000000000000000000000000000000000000000000008152600401610f56906124a4565b60405180910390fd5b610f6881611447565b50565b60007f01ffc9a7000000000000000000000000000000000000000000000000000000007bffffffffffffffffffffffffffffffffffffffffffffffffffffffff1916827bffffffffffffffffffffffffffffffffffffffffffffffffffffffff1916149050919050565b60008073ffffffffffffffffffffffffffffffffffffffff166002600084815260200190815260200160002060009054906101000a900473ffffffffffffffffffffffffffffffffffffffff1673ffffffffffffffffffffffffffffffffffffffff1614159050919050565b600033905090565b816004600083815260200190815260200160002060006101000a81548173ffffffffffffffffffffffffffffffffffffffff021916908373ffffffffffffffffffffffffffffffffffffffff160217905550808273ffffffffffffffffffffffffffffffffffffffff166110bc8361083e565b73ffffffffffffffffffffffffffffffffffffffff167f8c5be1e5ebec7d5bd14f71427d1e84f3dd0314c0f7b2291e5b200ac8c7c3b92560405160405180910390a45050565b600061110d82610fd5565b61114c576040517f08c379a000000000000000000000000000000000000000000000000000000000815260040161114390612524565b60405180910390fd5b60006111578361083e565b90508073ffffffffffffffffffffffffffffffffffffffff168473ffffffffffffffffffffffffffffffffffffffff1614806111c657508373ffffffffffffffffffffffffffffffffffffffff166111ae84610621565b73ffffffffffffffffffffffffffffffffffffffff16145b806111d757506111d68185610c0b565b5b91505092915050565b8273ffffffffffffffffffffffffffffffffffffffff166112008261083e565b73ffffffffffffffffffffffffffffffffffffffff1614611256576040517f08c379a000000000000000000000000000000000000000000000000000000000815260040161124d906124c4565b60405180910390fd5b600073ffffffffffffffffffffffffffffffffffffffff168273ffffffffffffffffffffffffffffffffffffffff1614156112c6576040517f08c379a00000000000000000000000000000000000000000000000000000000081526004016112bd906124e4565b60405180910390fd5b6112d183838361189a565b6112dc600082611049565b6001600360008573ffffffffffffffffffffffffffffffffffffffff1673ffffffffffffffffffffffffffffffffffffffff168152602001908152602001600020600082825461132c919061278a565b925050819055506001600360008473ffffffffffffffffffffffffffffffffffffffff1673ffffffffffffffffffffffffffffffffffffffff16815260200190815260200160002060008282546113839190612703565b92505081905550816002600083815260200190815260200160002060006101000a81548173ffffffffffffffffffffffffffffffffffffffff021916908373ffffffffffffffffffffffffffffffffffffffff160217905550808273ffffffffffffffffffffffffffffffffffffffff168473ffffffffffffffffffffffffffffffffffffffff167fddf252ad1be2c89b69c2b068fc378daa952ba7f163c4a11628f55a4df523b3ef60405160405180910390a461144283838361189f565b505050565b6000600660009054906101000a900473ffffffffffffffffffffffffffffffffffffffff16905081600660006101000a81548173ffffffffffffffffffffffffffffffffffffffff021916908373ffffffffffffffffffffffffffffffffffffffff1602179055508173ffffffffffffffffffffffffffffffffffffffff168173ffffffffffffffffffffffffffffffffffffffff167f8be0079c531659141344cd1fd0a4f28419497f9722a3daafe3b4186f6b6457e060405160405180910390a35050565b8173ffffffffffffffffffffffffffffffffffffffff168373ffffffffffffffffffffffffffffffffffffffff16141561157c576040517f08c379a000000000000000000000000000000000000000000000000000000000815260040161157390612504565b60405180910390fd5b80600560008573ffffffffffffffffffffffffffffffffffffffff1673ffffffffffffffffffffffffffffffffffffffff16815260200190815260200160002060008473ffffffffffffffffffffffffffffffffffffffff1673ffffffffffffffffffffffffffffffffffffffff16815260200190815260200160002060006101000a81548160ff0219169083151502179055508173ffffffffffffffffffffffffffffffffffffffff168373ffffffffffffffffffffffffffffffffffffffff167f17307eab39ab6107e8899845ad3d59bd9653f200f220920489ca2b5937696c318360405161166d9190612447565b60405180910390a3505050565b6116858484846111e0565b611691848484846118a4565b6116d0576040517f08c379a00000000000000000000000000000000000000000000000000000000081526004016116c790612484565b60405180910390fd5b50505050565b606060405180602001604052806000815250905090565b60606000821415611735576040518060400160405280600181526020017f30000000000000000000000000000000000000000000000000000000000000008152509050611895565b600082905060005b60008214611767578080611750906128a6565b915050600a826117609190612759565b915061173d565b60008167ffffffffffffffff8111156117a9577f4e487b7100000000000000000000000000000000000000000000000000000000600052604160045260246000fd5b6040519080825280601f01601f1916602001820160405280156117db5781602001600182028036833780820191505090505b5090505b6000851461188e576001826117f4919061278a565b9150600a8561180391906128ef565b603061180f9190612703565b60f81b81838151811061184b577f4e487b7100000000000000000000000000000000000000000000000000000000600052603260045260246000fd5b60200101907effffffffffffffffffffffffffffffffffffffffffffffffffffffffffffff1916908160001a905350600a856118879190612759565b94506117df565b8093505050505b919050565b505050565b505050565b60006118c58473ffffffffffffffffffffffffffffffffffffffff16611a3b565b15611a2e578373ffffffffffffffffffffffffffffffffffffffff1663150b7a026118ee611041565b8786866040518563ffffffff1660e01b815260040161191094939291906123c4565b602060405180830381600087803b15801561192a57600080fd5b505af192505050801561195b57506040513d601f19601f820116820180604052508101906119589190611d1b565b60015b6119de573d806000811461198b576040519150601f19603f3d011682016040523d82523d6000602084013e611990565b606091505b506000815114156119d6576040517f08c379a00000000000000000000000000000000000000000000000000000000081526004016119cd90612484565b60405180910390fd5b805181602001fd5b63150b7a0260e01b7bffffffffffffffffffffffffffffffffffffffffffffffffffffffff1916817bffffffffffffffffffffffffffffffffffffffffffffffffffffffff191614915050611a33565b600190505b949350505050565b6000808273ffffffffffffffffffffffffffffffffffffffff16803b806020016040519081016040528181526000908060200190933c51119050919050565b6000611a8d611a8884612690565b61265f565b905082815260208101848484011115611aa557600080fd5b611ab0848285612832565b509392505050565b600081359050611ac7816129ed565b92915050565b600081359050611adc81612a04565b92915050565b600081359050611af181612a1b565b92915050565b600081519050611b0681612a1b565b92915050565b600082601f830112611b1d57600080fd5b8135611b2d848260208601611a7a565b91505092915050565b600081359050611b4581612a32565b92915050565b600060208284031215611b5d57600080fd5b6000611b6b84828501611ab8565b91505092915050565b60008060408385031215611b8757600080fd5b6000611b9585828601611ab8565b9250506020611ba685828601611ab8565b9150509250929050565b600080600060608486031215611bc557600080fd5b6000611bd386828701611ab8565b9350506020611be486828701611ab8565b9250506040611bf586828701611b36565b9150509250925092565b60008060008060808587031215611c1557600080fd5b6000611c2387828801611ab8565b9450506020611c3487828801611ab8565b9350506040611c4587828801611b36565b925050606085013567ffffffffffffffff811115611c6257600080fd5b611c6e87828801611b0c565b91505092959194509250565b60008060408385031215611c8d57600080fd5b6000611c9b85828601611ab8565b9250506020611cac85828601611acd565b9150509250929050565b60008060408385031215611cc957600080fd5b6000611cd785828601611ab8565b9250506020611ce885828601611b36565b9150509250929050565b600060208284031215611d0457600080fd5b6000611d1284828501611ae2565b91505092915050565b600060208284031215611d2d57600080fd5b6000611d3b84828501611af7565b91505092915050565b600060208284031215611d5657600080fd5b6000611d6484828501611b36565b91505092915050565b611d76816127be565b82525050565b611d85816127d0565b82525050565b6000611d96826126c0565b611da081856126d6565b9350611db0818560208601612841565b611db9816129dc565b840191505092915050565b6000611dcf826126cb565b611dd981856126e7565b9350611de9818560208601612841565b611df2816129dc565b840191505092915050565b6000611e08826126cb565b611e1281856126f8565b9350611e22818560208601612841565b80840191505092915050565b6000611e3b6032836126e7565b91507f4552433732313a207472616e7366657220746f206e6f6e20455243373231526560008301527f63656976657220696d706c656d656e74657200000000000000000000000000006020830152604082019050919050565b6000611ea16026836126e7565b91507f4f776e61626c653a206e6577206f776e657220697320746865207a65726f206160008301527f64647265737300000000000000000000000000000000000000000000000000006020830152604082019050919050565b6000611f076025836126e7565b91507f4552433732313a207472616e736665722066726f6d20696e636f72726563742060008301527f6f776e65720000000000000000000000000000000000000000000000000000006020830152604082019050919050565b6000611f6d6024836126e7565b91507f4552433732313a207472616e7366657220746f20746865207a65726f2061646460008301527f72657373000000000000000000000000000000000000000000000000000000006020830152604082019050919050565b6000611fd36019836126e7565b91507f4552433732313a20617070726f766520746f2063616c6c6572000000000000006000830152602082019050919050565b6000612013602c836126e7565b91507f4552433732313a206f70657261746f7220717565727920666f72206e6f6e657860008301527f697374656e7420746f6b656e00000000000000000000000000000000000000006020830152604082019050919050565b60006120796038836126e7565b91507f4552433732313a20617070726f76652063616c6c6572206973206e6f74206f7760008301527f6e6572206e6f7220617070726f76656420666f7220616c6c00000000000000006020830152604082019050919050565b60006120df602a836126e7565b91507f4552433732313a2062616c616e636520717565727920666f7220746865207a6560008301527f726f2061646472657373000000000000000000000000000000000000000000006020830152604082019050919050565b60006121456029836126e7565b91507f4552433732313a206f776e657220717565727920666f72206e6f6e657869737460008301527f656e7420746f6b656e00000000000000000000000000000000000000000000006020830152604082019050919050565b60006121ab602c836126e7565b91507f4552433732313a20617070726f76656420717565727920666f72206e6f6e657860008301527f697374656e7420746f6b656e00000000000000000000000000000000000000006020830152604082019050919050565b60006122116020836126e7565b91507f4f776e61626c653a2063616c6c6572206973206e6f7420746865206f776e65726000830152602082019050919050565b6000612251602f836126e7565b91507f4552433732314d657461646174613a2055524920717565727920666f72206e6f60008301527f6e6578697374656e7420746f6b656e00000000000000000000000000000000006020830152604082019050919050565b60006122b76021836126e7565b91507f4552433732313a20617070726f76616c20746f2063757272656e74206f776e6560008301527f72000000000000000000000000000000000000000000000000000000000000006020830152604082019050919050565b600061231d6031836126e7565b91507f4552433732313a207472616e736665722063616c6c6572206973206e6f74206f60008301527f776e6572206e6f7220617070726f7665640000000000000000000000000000006020830152604082019050919050565b61237f81612828565b82525050565b60006123918285611dfd565b915061239d8284611dfd565b91508190509392505050565b60006020820190506123be6000830184611d6d565b92915050565b60006080820190506123d96000830187611d6d565b6123e66020830186611d6d565b6123f36040830185612376565b81810360608301526124058184611d8b565b905095945050505050565b60006060820190506124256000830186611d6d565b6124326020830185612376565b61243f6040830184611d6d565b949350505050565b600060208201905061245c6000830184611d7c565b92915050565b6000602082019050818103600083015261247c8184611dc4565b905092915050565b6000602082019050818103600083015261249d81611e2e565b9050919050565b600060208201905081810360008301526124bd81611e94565b9050919050565b600060208201905081810360008301526124dd81611efa565b9050919050565b600060208201905081810360008301526124fd81611f60565b9050919050565b6000602082019050818103600083015261251d81611fc6565b9050919050565b6000602082019050818103600083015261253d81612006565b9050919050565b6000602082019050818103600083015261255d8161206c565b9050919050565b6000602082019050818103600083015261257d816120d2565b9050919050565b6000602082019050818103600083015261259d81612138565b9050919050565b600060208201905081810360008301526125bd8161219e565b9050919050565b600060208201905081810360008301526125dd81612204565b9050919050565b600060208201905081810360008301526125fd81612244565b9050919050565b6000602082019050818103600083015261261d816122aa565b9050919050565b6000602082019050818103600083015261263d81612310565b9050919050565b60006020820190506126596000830184612376565b92915050565b6000604051905081810181811067ffffffffffffffff82111715612686576126856129ad565b5b8060405250919050565b600067ffffffffffffffff8211156126ab576126aa6129ad565b5b601f19601f8301169050602081019050919050565b600081519050919050565b600081519050919050565b600082825260208201905092915050565b600082825260208201905092915050565b600081905092915050565b600061270e82612828565b915061271983612828565b9250827fffffffffffffffffffffffffffffffffffffffffffffffffffffffffffffffff0382111561274e5761274d612920565b5b828201905092915050565b600061276482612828565b915061276f83612828565b92508261277f5761277e61294f565b5b828204905092915050565b600061279582612828565b91506127a083612828565b9250828210156127b3576127b2612920565b5b828203905092915050565b60006127c982612808565b9050919050565b60008115159050919050565b60007fffffffff0000000000000000000000000000000000000000000000000000000082169050919050565b600073ffffffffffffffffffffffffffffffffffffffff82169050919050565b6000819050919050565b82818337600083830152505050565b60005b8381101561285f578082015181840152602081019050612844565b8381111561286e576000848401525b50505050565b6000600282049050600182168061288c57607f821691505b602082108114156128a05761289f61297e565b5b50919050565b60006128b182612828565b91507fffffffffffffffffffffffffffffffffffffffffffffffffffffffffffffffff8214156128e4576128e3612920565b5b600182019050919050565b60006128fa82612828565b915061290583612828565b9250826129155761291461294f565b5b828206905092915050565b7f4e487b7100000000000000000000000000000000000000000000000000000000600052601160045260246000fd5b7f4e487b7100000000000000000000000000000000000000000000000000000000600052601260045260246000fd5b7f4e487b7100000000000000000000000000000000000000000000000000000000600052602260045260246000fd5b7f4e487b7100000000000000000000000000000000000000000000000000000000600052604160045260246000fd5b6000601f19601f8301169050919050565b6129f6816127be565b8114612a0157600080fd5b50565b612a0d816127d0565b8114612a1857600080fd5b50565b612a24816127dc565b8114612a2f57600080fd5b50565b612a3b81612828565b8114612a4657600080fd5b5056fea26469706673582212204e64391d0d08af370b26f7ef44bde6d7454353b0b682134628f8380978b26caf64736f6c63430008000033",
  "immutableReferences": {},
  "source": "// SPDX-License-Identifier: MIT\r\npragma solidity ^0.8.0;\r\nimport \"./tokens/ERC721.sol\";\r\nimport \"./Ownable.sol\";\r\n\r\ncontract PurchaseLand is ERC721, Ownable {\r\n    address[80] public owners;\r\n    uint256 balance;\r\n\r\n    event LandBought(address indexedFrom, uint256 landId, address owner);\r\n\r\n    constructor() ERC721(\"MetaLand\", \"MND\") {}\r\n\r\n    function purchase(uint256 landId) public payable returns (uint256) {\r\n        require(landId >= 0 && landId <= 79);\r\n        require(owners[landId] == 0x0000000000000000000000000000000000000000);\r\n        transferFrom(0x0000000000000000000000000000000000000000, msg.sender, landId);\r\n        owners[landId] = msg.sender;\r\n        emit LandBought(msg.sender, landId, owners[landId]);\r\n        return landId;\r\n    }\r\n}\r\n",
  "sourcePath": "B:\\webAfeka\\BlockChain\\metaland\\eth-todo-list-react\\contracts\\PurchaseLand.sol",
  "compiler": {
    "name": "solc",
    "version": "0.8.0+commit.c7dfd78e.Emscripten.clang"
  },
  "schemaVersion": "3.4.4",
  "updatedAt": "2022-02-23T14:38:03.902Z",
  "networkType": "ethereum",
  "devdoc": {
    "kind": "dev",
    "methods": {
      "approve(address,uint256)": {
        "details": "See {IERC721-approve}."
      },
      "balanceOf(address)": {
        "details": "See {IERC721-balanceOf}."
      },
      "getApproved(uint256)": {
        "details": "See {IERC721-getApproved}."
      },
      "isApprovedForAll(address,address)": {
        "details": "See {IERC721-isApprovedForAll}."
      },
      "name()": {
        "details": "See {IERC721Metadata-name}."
      },
      "owner()": {
        "details": "Returns the address of the current owner."
      },
      "ownerOf(uint256)": {
        "details": "See {IERC721-ownerOf}."
      },
      "renounceOwnership()": {
        "details": "Leaves the contract without owner. It will not be possible to call `onlyOwner` functions anymore. Can only be called by the current owner. NOTE: Renouncing ownership will leave the contract without an owner, thereby removing any functionality that is only available to the owner."
      },
      "safeTransferFrom(address,address,uint256)": {
        "details": "See {IERC721-safeTransferFrom}."
      },
      "safeTransferFrom(address,address,uint256,bytes)": {
        "details": "See {IERC721-safeTransferFrom}."
      },
      "setApprovalForAll(address,bool)": {
        "details": "See {IERC721-setApprovalForAll}."
      },
      "supportsInterface(bytes4)": {
        "details": "See {IERC165-supportsInterface}."
      },
      "symbol()": {
        "details": "See {IERC721Metadata-symbol}."
      },
      "tokenURI(uint256)": {
        "details": "See {IERC721Metadata-tokenURI}."
      },
      "transferFrom(address,address,uint256)": {
        "details": "See {IERC721-transferFrom}."
      },
      "transferOwnership(address)": {
        "details": "Transfers ownership of the contract to a new account (`newOwner`). Can only be called by the current owner."
      }
    },
    "version": 1
  },
  "userdoc": {
    "kind": "user",
    "methods": {},
    "version": 1
  }
}