{
  "contractName": "PurchaseLand",
  "abi": [
    {
      "inputs": [],
      "stateMutability": "nonpayable",
      "type": "constructor"
    },
    {
      "anonymous": false,
      "inputs": [
        {
          "indexed": true,
          "internalType": "address",
          "name": "owner",
          "type": "address"
        },
        {
          "indexed": true,
          "internalType": "address",
          "name": "approved",
          "type": "address"
        },
        {
          "indexed": true,
          "internalType": "uint256",
          "name": "tokenId",
          "type": "uint256"
        }
      ],
      "name": "Approval",
      "type": "event"
    },
    {
      "anonymous": false,
      "inputs": [
        {
          "indexed": true,
          "internalType": "address",
          "name": "owner",
          "type": "address"
        },
        {
          "indexed": true,
          "internalType": "address",
          "name": "operator",
          "type": "address"
        },
        {
          "indexed": false,
          "internalType": "bool",
          "name": "approved",
          "type": "bool"
        }
      ],
      "name": "ApprovalForAll",
      "type": "event"
    },
    {
      "anonymous": false,
      "inputs": [
        {
          "indexed": false,
          "internalType": "address",
          "name": "indexedFrom",
          "type": "address"
        },
        {
          "indexed": false,
          "internalType": "uint256",
          "name": "landId",
          "type": "uint256"
        },
        {
          "indexed": false,
          "internalType": "address",
          "name": "owner",
          "type": "address"
        }
      ],
      "name": "LandBought",
      "type": "event"
    },
    {
      "anonymous": false,
      "inputs": [
        {
          "indexed": false,
          "internalType": "address",
          "name": "from",
          "type": "address"
        },
        {
          "indexed": false,
          "internalType": "address",
          "name": "to",
          "type": "address"
        },
        {
          "indexed": false,
          "internalType": "uint256",
          "name": "landId",
          "type": "uint256"
        }
      ],
      "name": "LandTransfer",
      "type": "event"
    },
    {
      "anonymous": false,
      "inputs": [
        {
          "indexed": true,
          "internalType": "address",
          "name": "from",
          "type": "address"
        },
        {
          "indexed": true,
          "internalType": "address",
          "name": "to",
          "type": "address"
        },
        {
          "indexed": true,
          "internalType": "uint256",
          "name": "tokenId",
          "type": "uint256"
        }
      ],
      "name": "Transfer",
      "type": "event"
    },
    {
      "inputs": [
        {
          "internalType": "address",
          "name": "to",
          "type": "address"
        },
        {
          "internalType": "uint256",
          "name": "tokenId",
          "type": "uint256"
        }
      ],
      "name": "approve",
      "outputs": [],
      "stateMutability": "nonpayable",
      "type": "function"
    },
    {
      "inputs": [
        {
          "internalType": "address",
          "name": "owner",
          "type": "address"
        }
      ],
      "name": "balanceOf",
      "outputs": [
        {
          "internalType": "uint256",
          "name": "",
          "type": "uint256"
        }
      ],
      "stateMutability": "view",
      "type": "function",
      "constant": true
    },
    {
      "inputs": [
        {
          "internalType": "uint256",
          "name": "tokenId",
          "type": "uint256"
        }
      ],
      "name": "getApproved",
      "outputs": [
        {
          "internalType": "address",
          "name": "",
          "type": "address"
        }
      ],
      "stateMutability": "view",
      "type": "function",
      "constant": true
    },
    {
      "inputs": [
        {
          "internalType": "address",
          "name": "owner",
          "type": "address"
        },
        {
          "internalType": "address",
          "name": "operator",
          "type": "address"
        }
      ],
      "name": "isApprovedForAll",
      "outputs": [
        {
          "internalType": "bool",
          "name": "",
          "type": "bool"
        }
      ],
      "stateMutability": "view",
      "type": "function",
      "constant": true
    },
    {
      "inputs": [],
      "name": "name",
      "outputs": [
        {
          "internalType": "string",
          "name": "",
          "type": "string"
        }
      ],
      "stateMutability": "view",
      "type": "function",
      "constant": true
    },
    {
      "inputs": [
        {
          "internalType": "uint256",
          "name": "tokenId",
          "type": "uint256"
        }
      ],
      "name": "ownerOf",
      "outputs": [
        {
          "internalType": "address",
          "name": "",
          "type": "address"
        }
      ],
      "stateMutability": "view",
      "type": "function",
      "constant": true
    },
    {
      "inputs": [
        {
          "internalType": "uint256",
          "name": "",
          "type": "uint256"
        }
      ],
      "name": "owners",
      "outputs": [
        {
          "internalType": "address payable",
          "name": "",
          "type": "address"
        }
      ],
      "stateMutability": "view",
      "type": "function",
      "constant": true
    },
    {
      "inputs": [
        {
          "internalType": "address",
          "name": "from",
          "type": "address"
        },
        {
          "internalType": "address",
          "name": "to",
          "type": "address"
        },
        {
          "internalType": "uint256",
          "name": "tokenId",
          "type": "uint256"
        }
      ],
      "name": "safeTransferFrom",
      "outputs": [],
      "stateMutability": "nonpayable",
      "type": "function"
    },
    {
      "inputs": [
        {
          "internalType": "address",
          "name": "from",
          "type": "address"
        },
        {
          "internalType": "address",
          "name": "to",
          "type": "address"
        },
        {
          "internalType": "uint256",
          "name": "tokenId",
          "type": "uint256"
        },
        {
          "internalType": "bytes",
          "name": "_data",
          "type": "bytes"
        }
      ],
      "name": "safeTransferFrom",
      "outputs": [],
      "stateMutability": "nonpayable",
      "type": "function"
    },
    {
      "inputs": [
        {
          "internalType": "address",
          "name": "operator",
          "type": "address"
        },
        {
          "internalType": "bool",
          "name": "approved",
          "type": "bool"
        }
      ],
      "name": "setApprovalForAll",
      "outputs": [],
      "stateMutability": "nonpayable",
      "type": "function"
    },
    {
      "inputs": [
        {
          "internalType": "bytes4",
          "name": "interfaceId",
          "type": "bytes4"
        }
      ],
      "name": "supportsInterface",
      "outputs": [
        {
          "internalType": "bool",
          "name": "",
          "type": "bool"
        }
      ],
      "stateMutability": "view",
      "type": "function",
      "constant": true
    },
    {
      "inputs": [],
      "name": "symbol",
      "outputs": [
        {
          "internalType": "string",
          "name": "",
          "type": "string"
        }
      ],
      "stateMutability": "view",
      "type": "function",
      "constant": true
    },
    {
      "inputs": [
        {
          "internalType": "uint256",
          "name": "tokenId",
          "type": "uint256"
        }
      ],
      "name": "tokenURI",
      "outputs": [
        {
          "internalType": "string",
          "name": "",
          "type": "string"
        }
      ],
      "stateMutability": "view",
      "type": "function",
      "constant": true
    },
    {
      "inputs": [
        {
          "internalType": "address",
          "name": "from",
          "type": "address"
        },
        {
          "internalType": "address",
          "name": "to",
          "type": "address"
        },
        {
          "internalType": "uint256",
          "name": "tokenId",
          "type": "uint256"
        }
      ],
      "name": "transferFrom",
      "outputs": [],
      "stateMutability": "nonpayable",
      "type": "function"
    },
    {
      "inputs": [
        {
          "internalType": "uint256",
          "name": "landId",
          "type": "uint256"
        }
      ],
      "name": "purchase",
      "outputs": [
        {
          "internalType": "uint256",
          "name": "",
          "type": "uint256"
        }
      ],
      "stateMutability": "payable",
      "type": "function",
      "payable": true
    },
    {
      "inputs": [],
      "name": "getOwners",
      "outputs": [
        {
          "internalType": "address payable[320]",
          "name": "",
          "type": "address[320]"
        }
      ],
      "stateMutability": "view",
      "type": "function",
      "constant": true
    },
    {
      "inputs": [
        {
          "internalType": "uint256",
          "name": "landId",
          "type": "uint256"
        }
      ],
      "name": "getOwner",
      "outputs": [
        {
          "internalType": "address payable",
          "name": "landOwner",
          "type": "address"
        }
      ],
      "stateMutability": "view",
      "type": "function",
      "constant": true
    },
    {
      "inputs": [
        {
          "internalType": "address payable",
          "name": "from",
          "type": "address"
        },
        {
          "internalType": "address payable",
          "name": "to",
          "type": "address"
        },
        {
          "internalType": "uint256",
          "name": "landId",
          "type": "uint256"
        }
      ],
      "name": "transferLand",
      "outputs": [
        {
          "internalType": "uint256",
          "name": "",
          "type": "uint256"
        }
      ],
      "stateMutability": "nonpayable",
      "type": "function"
    }
  ],
  "bytecode": "0x60806040526658d15e17628000610148553480156200001d57600080fd5b506040518060400160405280600881526020017f4d6574614c616e640000000000000000000000000000000000000000000000008152506040518060400160405280600381526020017f4d4e4400000000000000000000000000000000000000000000000000000000008152508160009080519060200190620000a292919062000106565b508060019080519060200190620000bb92919062000106565b5050503361014760006101000a81548173ffffffffffffffffffffffffffffffffffffffff021916908373ffffffffffffffffffffffffffffffffffffffff1602179055506200021b565b8280546200011490620001b6565b90600052602060002090601f01602090048101928262000138576000855562000184565b82601f106200015357805160ff191683800117855562000184565b8280016001018555821562000184579182015b828111156200018357825182559160200191906001019062000166565b5b50905062000193919062000197565b5090565b5b80821115620001b257600081600090555060010162000198565b5090565b60006002820490506001821680620001cf57607f821691505b60208210811415620001e657620001e5620001ec565b5b50919050565b7f4e487b7100000000000000000000000000000000000000000000000000000000600052602260045260246000fd5b612cdf806200022b6000396000f3fe6080604052600436106101095760003560e01c806395d89b4111610095578063b88d4fde11610064578063b88d4fde146103a1578063c41a360a146103ca578063c87b56dd14610407578063e985e9c514610444578063efef39a11461048157610109565b806395d89b41146102e5578063a0e67e2b14610310578063a22cb4651461033b578063a762c3421461036457610109565b8063095ea7b3116100dc578063095ea7b3146101f057806323b872dd1461021957806342842e0e146102425780636352211e1461026b57806370a08231146102a857610109565b806301ffc9a71461010e578063025e7c271461014b57806306fdde0314610188578063081812fc146101b3575b600080fd5b34801561011a57600080fd5b5061013560048036038101906101309190611e67565b6104b1565b604051610142919061263a565b60405180910390f35b34801561015757600080fd5b50610172600480360381019061016d9190611eb9565b610593565b60405161017f9190612549565b60405180910390f35b34801561019457600080fd5b5061019d6105ca565b6040516101aa9190612655565b60405180910390f35b3480156101bf57600080fd5b506101da60048036038101906101d59190611eb9565b61065c565b6040516101e7919061252e565b60405180910390f35b3480156101fc57600080fd5b5061021760048036038101906102129190611e2b565b6106e1565b005b34801561022557600080fd5b50610240600480360381019061023b9190611d25565b6107f9565b005b34801561024e57600080fd5b5061026960048036038101906102649190611d25565b610859565b005b34801561027757600080fd5b50610292600480360381019061028d9190611eb9565b610879565b60405161029f919061252e565b60405180910390f35b3480156102b457600080fd5b506102cf60048036038101906102ca9190611c71565b6108bb565b6040516102dc9190612817565b60405180910390f35b3480156102f157600080fd5b506102fa610973565b6040516103079190612655565b60405180910390f35b34801561031c57600080fd5b50610325610a05565b604051610332919061261e565b60405180910390f35b34801561034757600080fd5b50610362600480360381019061035d9190611def565b610a88565b005b34801561037057600080fd5b5061038b60048036038101906103869190611c9a565b610a9e565b6040516103989190612817565b60405180910390f35b3480156103ad57600080fd5b506103c860048036038101906103c39190611d74565b610b6b565b005b3480156103d657600080fd5b506103f160048036038101906103ec9190611eb9565b610bcd565b6040516103fe9190612549565b60405180910390f35b34801561041357600080fd5b5061042e60048036038101906104299190611eb9565b610c33565b60405161043b9190612655565b60405180910390f35b34801561045057600080fd5b5061046b60048036038101906104669190611ce9565b610cda565b604051610478919061263a565b60405180910390f35b61049b60048036038101906104969190611eb9565b610d6e565b6040516104a89190612817565b60405180910390f35b60007f80ac58cd000000000000000000000000000000000000000000000000000000007bffffffffffffffffffffffffffffffffffffffffffffffffffffffff1916827bffffffffffffffffffffffffffffffffffffffffffffffffffffffff1916148061057c57507f5b5e139f000000000000000000000000000000000000000000000000000000007bffffffffffffffffffffffffffffffffffffffffffffffffffffffff1916827bffffffffffffffffffffffffffffffffffffffffffffffffffffffff1916145b8061058c575061058b82610f44565b5b9050919050565b60068161014081106105a457600080fd5b016000915054906101000a900473ffffffffffffffffffffffffffffffffffffffff1681565b6060600080546105d990612abd565b80601f016020809104026020016040519081016040528092919081815260200182805461060590612abd565b80156106525780601f1061062757610100808354040283529160200191610652565b820191906000526020600020905b81548152906001019060200180831161063557829003601f168201915b5050505050905090565b600061066782610fae565b6106a6576040517f08c379a000000000000000000000000000000000000000000000000000000000815260040161069d90612797565b60405180910390fd5b6004600083815260200190815260200160002060009054906101000a900473ffffffffffffffffffffffffffffffffffffffff169050919050565b60006106ec82610879565b90508073ffffffffffffffffffffffffffffffffffffffff168373ffffffffffffffffffffffffffffffffffffffff16141561075d576040517f08c379a0000000000000000000000000000000000000000000000000000000008152600401610754906127d7565b60405180910390fd5b8073ffffffffffffffffffffffffffffffffffffffff1661077c61101a565b73ffffffffffffffffffffffffffffffffffffffff1614806107ab57506107aa816107a561101a565b610cda565b5b6107ea576040517f08c379a00000000000000000000000000000000000000000000000000000000081526004016107e190612737565b60405180910390fd5b6107f48383611022565b505050565b61080a61080461101a565b826110db565b610849576040517f08c379a0000000000000000000000000000000000000000000000000000000008152600401610840906127f7565b60405180910390fd5b6108548383836111b9565b505050565b61087483838360405180602001604052806000815250610b6b565b505050565b6000806002600084815260200190815260200160002060009054906101000a900473ffffffffffffffffffffffffffffffffffffffff16905080915050919050565b60008073ffffffffffffffffffffffffffffffffffffffff168273ffffffffffffffffffffffffffffffffffffffff16141561092c576040517f08c379a000000000000000000000000000000000000000000000000000000000815260040161092390612757565b60405180910390fd5b600360008373ffffffffffffffffffffffffffffffffffffffff1673ffffffffffffffffffffffffffffffffffffffff168152602001908152602001600020549050919050565b60606001805461098290612abd565b80601f01602080910402602001604051908101604052809291908181526020018280546109ae90612abd565b80156109fb5780601f106109d0576101008083540402835291602001916109fb565b820191906000526020600020905b8154815290600101906020018083116109de57829003601f168201915b5050505050905090565b610a0d611b67565b60066101408060200260405190810160405280929190826101408015610a7e576020028201915b8160009054906101000a900473ffffffffffffffffffffffffffffffffffffffff1673ffffffffffffffffffffffffffffffffffffffff1681526020019060010190808311610a34575b5050505050905090565b610a9a610a9361101a565b8383611420565b5050565b6000610aab8484846111b9565b826006836101408110610ae7577f4e487b7100000000000000000000000000000000000000000000000000000000600052603260045260246000fd5b0160006101000a81548173ffffffffffffffffffffffffffffffffffffffff021916908373ffffffffffffffffffffffffffffffffffffffff1602179055507f9e1d6189df6b1805ec42b2e7d6b24c959f44a916843a83c78d199e717631836b848484604051610b5993929190612564565b60405180910390a18190509392505050565b610b7c610b7661101a565b836110db565b610bbb576040517f08c379a0000000000000000000000000000000000000000000000000000000008152600401610bb2906127f7565b60405180910390fd5b610bc78484848461158d565b50505050565b60006006826101408110610c0a577f4e487b7100000000000000000000000000000000000000000000000000000000600052603260045260246000fd5b0160009054906101000a900473ffffffffffffffffffffffffffffffffffffffff169050919050565b6060610c3e82610fae565b610c7d576040517f08c379a0000000000000000000000000000000000000000000000000000000008152600401610c74906127b7565b60405180910390fd5b6000610c876115e9565b90506000815111610ca75760405180602001604052806000815250610cd2565b80610cb184611600565b604051602001610cc292919061250a565b6040516020818303038152906040525b915050919050565b6000600560008473ffffffffffffffffffffffffffffffffffffffff1673ffffffffffffffffffffffffffffffffffffffff16815260200190815260200160002060008373ffffffffffffffffffffffffffffffffffffffff1673ffffffffffffffffffffffffffffffffffffffff16815260200190815260200160002060009054906101000a900460ff16905092915050565b6000808210158015610d82575061031f8211155b610d8b57600080fd5b600073ffffffffffffffffffffffffffffffffffffffff166006836101408110610dde577f4e487b7100000000000000000000000000000000000000000000000000000000600052603260045260246000fd5b0160009054906101000a900473ffffffffffffffffffffffffffffffffffffffff1673ffffffffffffffffffffffffffffffffffffffff1614610e2057600080fd5b610e2a33836117ad565b336006836101408110610e66577f4e487b7100000000000000000000000000000000000000000000000000000000600052603260045260246000fd5b0160006101000a81548173ffffffffffffffffffffffffffffffffffffffff021916908373ffffffffffffffffffffffffffffffffffffffff1602179055507fed9e0dc5479152698d99195d219992bd45798ef9712b0e94058cd0a9c614ce9933836006856101408110610f03577f4e487b7100000000000000000000000000000000000000000000000000000000600052603260045260246000fd5b0160009054906101000a900473ffffffffffffffffffffffffffffffffffffffff16604051610f34939291906125e7565b60405180910390a1819050919050565b60007f01ffc9a7000000000000000000000000000000000000000000000000000000007bffffffffffffffffffffffffffffffffffffffffffffffffffffffff1916827bffffffffffffffffffffffffffffffffffffffffffffffffffffffff1916149050919050565b60008073ffffffffffffffffffffffffffffffffffffffff166002600084815260200190815260200160002060009054906101000a900473ffffffffffffffffffffffffffffffffffffffff1673ffffffffffffffffffffffffffffffffffffffff1614159050919050565b600033905090565b816004600083815260200190815260200160002060006101000a81548173ffffffffffffffffffffffffffffffffffffffff021916908373ffffffffffffffffffffffffffffffffffffffff160217905550808273ffffffffffffffffffffffffffffffffffffffff1661109583610879565b73ffffffffffffffffffffffffffffffffffffffff167f8c5be1e5ebec7d5bd14f71427d1e84f3dd0314c0f7b2291e5b200ac8c7c3b92560405160405180910390a45050565b60006110e682610fae565b611125576040517f08c379a000000000000000000000000000000000000000000000000000000000815260040161111c90612717565b60405180910390fd5b600061113083610879565b90508073ffffffffffffffffffffffffffffffffffffffff168473ffffffffffffffffffffffffffffffffffffffff16148061119f57508373ffffffffffffffffffffffffffffffffffffffff166111878461065c565b73ffffffffffffffffffffffffffffffffffffffff16145b806111b057506111af8185610cda565b5b91505092915050565b8273ffffffffffffffffffffffffffffffffffffffff166111d982610879565b73ffffffffffffffffffffffffffffffffffffffff161461122f576040517f08c379a000000000000000000000000000000000000000000000000000000000815260040161122690612697565b60405180910390fd5b600073ffffffffffffffffffffffffffffffffffffffff168273ffffffffffffffffffffffffffffffffffffffff16141561129f576040517f08c379a0000000000000000000000000000000000000000000000000000000008152600401611296906126d7565b60405180910390fd5b6112aa838383611987565b6112b5600082611022565b6001600360008573ffffffffffffffffffffffffffffffffffffffff1673ffffffffffffffffffffffffffffffffffffffff1681526020019081526020016000206000828254611305919061298b565b925050819055506001600360008473ffffffffffffffffffffffffffffffffffffffff1673ffffffffffffffffffffffffffffffffffffffff168152602001908152602001600020600082825461135c9190612904565b92505081905550816002600083815260200190815260200160002060006101000a81548173ffffffffffffffffffffffffffffffffffffffff021916908373ffffffffffffffffffffffffffffffffffffffff160217905550808273ffffffffffffffffffffffffffffffffffffffff168473ffffffffffffffffffffffffffffffffffffffff167fddf252ad1be2c89b69c2b068fc378daa952ba7f163c4a11628f55a4df523b3ef60405160405180910390a461141b83838361198c565b505050565b8173ffffffffffffffffffffffffffffffffffffffff168373ffffffffffffffffffffffffffffffffffffffff16141561148f576040517f08c379a0000000000000000000000000000000000000000000000000000000008152600401611486906126f7565b60405180910390fd5b80600560008573ffffffffffffffffffffffffffffffffffffffff1673ffffffffffffffffffffffffffffffffffffffff16815260200190815260200160002060008473ffffffffffffffffffffffffffffffffffffffff1673ffffffffffffffffffffffffffffffffffffffff16815260200190815260200160002060006101000a81548160ff0219169083151502179055508173ffffffffffffffffffffffffffffffffffffffff168373ffffffffffffffffffffffffffffffffffffffff167f17307eab39ab6107e8899845ad3d59bd9653f200f220920489ca2b5937696c3183604051611580919061263a565b60405180910390a3505050565b6115988484846111b9565b6115a484848484611991565b6115e3576040517f08c379a00000000000000000000000000000000000000000000000000000000081526004016115da90612677565b60405180910390fd5b50505050565b606060405180602001604052806000815250905090565b60606000821415611648576040518060400160405280600181526020017f300000000000000000000000000000000000000000000000000000000000000081525090506117a8565b600082905060005b6000821461167a57808061166390612aef565b915050600a82611673919061295a565b9150611650565b60008167ffffffffffffffff8111156116bc577f4e487b7100000000000000000000000000000000000000000000000000000000600052604160045260246000fd5b6040519080825280601f01601f1916602001820160405280156116ee5781602001600182028036833780820191505090505b5090505b600085146117a157600182611707919061298b565b9150600a856117169190612b38565b60306117229190612904565b60f81b81838151811061175e577f4e487b7100000000000000000000000000000000000000000000000000000000600052603260045260246000fd5b60200101907effffffffffffffffffffffffffffffffffffffffffffffffffffffffffffff1916908160001a905350600a8561179a919061295a565b94506116f2565b8093505050505b919050565b600073ffffffffffffffffffffffffffffffffffffffff168273ffffffffffffffffffffffffffffffffffffffff16141561181d576040517f08c379a000000000000000000000000000000000000000000000000000000000815260040161181490612777565b60405180910390fd5b61182681610fae565b15611866576040517f08c379a000000000000000000000000000000000000000000000000000000000815260040161185d906126b7565b60405180910390fd5b61187260008383611987565b6001600360008473ffffffffffffffffffffffffffffffffffffffff1673ffffffffffffffffffffffffffffffffffffffff16815260200190815260200160002060008282546118c29190612904565b92505081905550816002600083815260200190815260200160002060006101000a81548173ffffffffffffffffffffffffffffffffffffffff021916908373ffffffffffffffffffffffffffffffffffffffff160217905550808273ffffffffffffffffffffffffffffffffffffffff16600073ffffffffffffffffffffffffffffffffffffffff167fddf252ad1be2c89b69c2b068fc378daa952ba7f163c4a11628f55a4df523b3ef60405160405180910390a46119836000838361198c565b5050565b505050565b505050565b60006119b28473ffffffffffffffffffffffffffffffffffffffff16611b28565b15611b1b578373ffffffffffffffffffffffffffffffffffffffff1663150b7a026119db61101a565b8786866040518563ffffffff1660e01b81526004016119fd949392919061259b565b602060405180830381600087803b158015611a1757600080fd5b505af1925050508015611a4857506040513d601f19601f82011682018060405250810190611a459190611e90565b60015b611acb573d8060008114611a78576040519150601f19603f3d011682016040523d82523d6000602084013e611a7d565b606091505b50600081511415611ac3576040517f08c379a0000000000000000000000000000000000000000000000000000000008152600401611aba90612677565b60405180910390fd5b805181602001fd5b63150b7a0260e01b7bffffffffffffffffffffffffffffffffffffffffffffffffffffffff1916817bffffffffffffffffffffffffffffffffffffffffffffffffffffffff191614915050611b20565b600190505b949350505050565b6000808273ffffffffffffffffffffffffffffffffffffffff16803b806020016040519081016040528181526000908060200190933c51119050919050565b60405180612800016040528061014090602082028036833780820191505090505090565b6000611b9e611b9984612863565b612832565b905082815260208101848484011115611bb657600080fd5b611bc1848285612a7b565b509392505050565b600081359050611bd881612c36565b92915050565b600081359050611bed81612c4d565b92915050565b600081359050611c0281612c64565b92915050565b600081359050611c1781612c7b565b92915050565b600081519050611c2c81612c7b565b92915050565b600082601f830112611c4357600080fd5b8135611c53848260208601611b8b565b91505092915050565b600081359050611c6b81612c92565b92915050565b600060208284031215611c8357600080fd5b6000611c9184828501611bc9565b91505092915050565b600080600060608486031215611caf57600080fd5b6000611cbd86828701611bde565b9350506020611cce86828701611bde565b9250506040611cdf86828701611c5c565b9150509250925092565b60008060408385031215611cfc57600080fd5b6000611d0a85828601611bc9565b9250506020611d1b85828601611bc9565b9150509250929050565b600080600060608486031215611d3a57600080fd5b6000611d4886828701611bc9565b9350506020611d5986828701611bc9565b9250506040611d6a86828701611c5c565b9150509250925092565b60008060008060808587031215611d8a57600080fd5b6000611d9887828801611bc9565b9450506020611da987828801611bc9565b9350506040611dba87828801611c5c565b925050606085013567ffffffffffffffff811115611dd757600080fd5b611de387828801611c32565b91505092959194509250565b60008060408385031215611e0257600080fd5b6000611e1085828601611bc9565b9250506020611e2185828601611bf3565b9150509250929050565b60008060408385031215611e3e57600080fd5b6000611e4c85828601611bc9565b9250506020611e5d85828601611c5c565b9150509250929050565b600060208284031215611e7957600080fd5b6000611e8784828501611c08565b91505092915050565b600060208284031215611ea257600080fd5b6000611eb084828501611c1d565b91505092915050565b600060208284031215611ecb57600080fd5b6000611ed984828501611c5c565b91505092915050565b6000611eee8383611f09565b60208301905092915050565b611f0381612a45565b82525050565b611f12816129d1565b82525050565b611f21816129d1565b82525050565b611f30816129bf565b82525050565b611f3f8161289d565b611f4981846128cc565b9250611f5482612893565b8060005b83811015611f85578151611f6c8782611ee2565b9650611f77836128bf565b925050600181019050611f58565b505050505050565b611f96816129e3565b82525050565b6000611fa7826128a9565b611fb181856128d7565b9350611fc1818560208601612a8a565b611fca81612c25565b840191505092915050565b6000611fe0826128b4565b611fea81856128e8565b9350611ffa818560208601612a8a565b61200381612c25565b840191505092915050565b6000612019826128b4565b61202381856128f9565b9350612033818560208601612a8a565b80840191505092915050565b600061204c6032836128e8565b91507f4552433732313a207472616e7366657220746f206e6f6e20455243373231526560008301527f63656976657220696d706c656d656e74657200000000000000000000000000006020830152604082019050919050565b60006120b26025836128e8565b91507f4552433732313a207472616e736665722066726f6d20696e636f72726563742060008301527f6f776e65720000000000000000000000000000000000000000000000000000006020830152604082019050919050565b6000612118601c836128e8565b91507f4552433732313a20746f6b656e20616c7265616479206d696e746564000000006000830152602082019050919050565b60006121586024836128e8565b91507f4552433732313a207472616e7366657220746f20746865207a65726f2061646460008301527f72657373000000000000000000000000000000000000000000000000000000006020830152604082019050919050565b60006121be6019836128e8565b91507f4552433732313a20617070726f766520746f2063616c6c6572000000000000006000830152602082019050919050565b60006121fe602c836128e8565b91507f4552433732313a206f70657261746f7220717565727920666f72206e6f6e657860008301527f697374656e7420746f6b656e00000000000000000000000000000000000000006020830152604082019050919050565b60006122646038836128e8565b91507f4552433732313a20617070726f76652063616c6c6572206973206e6f74206f7760008301527f6e6572206e6f7220617070726f76656420666f7220616c6c00000000000000006020830152604082019050919050565b60006122ca602a836128e8565b91507f4552433732313a2062616c616e636520717565727920666f7220746865207a6560008301527f726f2061646472657373000000000000000000000000000000000000000000006020830152604082019050919050565b60006123306020836128e8565b91507f4552433732313a206d696e7420746f20746865207a65726f20616464726573736000830152602082019050919050565b6000612370602c836128e8565b91507f4552433732313a20617070726f76656420717565727920666f72206e6f6e657860008301527f697374656e7420746f6b656e00000000000000000000000000000000000000006020830152604082019050919050565b60006123d6602f836128e8565b91507f4552433732314d657461646174613a2055524920717565727920666f72206e6f60008301527f6e6578697374656e7420746f6b656e00000000000000000000000000000000006020830152604082019050919050565b600061243c6021836128e8565b91507f4552433732313a20617070726f76616c20746f2063757272656e74206f776e6560008301527f72000000000000000000000000000000000000000000000000000000000000006020830152604082019050919050565b60006124a26031836128e8565b91507f4552433732313a207472616e736665722063616c6c6572206973206e6f74206f60008301527f776e6572206e6f7220617070726f7665640000000000000000000000000000006020830152604082019050919050565b61250481612a3b565b82525050565b6000612516828561200e565b9150612522828461200e565b91508190509392505050565b60006020820190506125436000830184611f27565b92915050565b600060208201905061255e6000830184611f18565b92915050565b60006060820190506125796000830186611efa565b6125866020830185611efa565b61259360408301846124fb565b949350505050565b60006080820190506125b06000830187611f27565b6125bd6020830186611f27565b6125ca60408301856124fb565b81810360608301526125dc8184611f9c565b905095945050505050565b60006060820190506125fc6000830186611f27565b61260960208301856124fb565b6126166040830184611efa565b949350505050565b6000612800820190506126346000830184611f36565b92915050565b600060208201905061264f6000830184611f8d565b92915050565b6000602082019050818103600083015261266f8184611fd5565b905092915050565b600060208201905081810360008301526126908161203f565b9050919050565b600060208201905081810360008301526126b0816120a5565b9050919050565b600060208201905081810360008301526126d08161210b565b9050919050565b600060208201905081810360008301526126f08161214b565b9050919050565b60006020820190508181036000830152612710816121b1565b9050919050565b60006020820190508181036000830152612730816121f1565b9050919050565b6000602082019050818103600083015261275081612257565b9050919050565b60006020820190508181036000830152612770816122bd565b9050919050565b6000602082019050818103600083015261279081612323565b9050919050565b600060208201905081810360008301526127b081612363565b9050919050565b600060208201905081810360008301526127d0816123c9565b9050919050565b600060208201905081810360008301526127f08161242f565b9050919050565b6000602082019050818103600083015261281081612495565b9050919050565b600060208201905061282c60008301846124fb565b92915050565b6000604051905081810181811067ffffffffffffffff8211171561285957612858612bf6565b5b8060405250919050565b600067ffffffffffffffff82111561287e5761287d612bf6565b5b601f19601f8301169050602081019050919050565b6000819050919050565b60006101409050919050565b600081519050919050565b600081519050919050565b6000602082019050919050565b600081905092915050565b600082825260208201905092915050565b600082825260208201905092915050565b600081905092915050565b600061290f82612a3b565b915061291a83612a3b565b9250827fffffffffffffffffffffffffffffffffffffffffffffffffffffffffffffffff0382111561294f5761294e612b69565b5b828201905092915050565b600061296582612a3b565b915061297083612a3b565b9250826129805761297f612b98565b5b828204905092915050565b600061299682612a3b565b91506129a183612a3b565b9250828210156129b4576129b3612b69565b5b828203905092915050565b60006129ca82612a1b565b9050919050565b60006129dc82612a1b565b9050919050565b60008115159050919050565b60007fffffffff0000000000000000000000000000000000000000000000000000000082169050919050565b600073ffffffffffffffffffffffffffffffffffffffff82169050919050565b6000819050919050565b6000612a5082612a57565b9050919050565b6000612a6282612a69565b9050919050565b6000612a7482612a1b565b9050919050565b82818337600083830152505050565b60005b83811015612aa8578082015181840152602081019050612a8d565b83811115612ab7576000848401525b50505050565b60006002820490506001821680612ad557607f821691505b60208210811415612ae957612ae8612bc7565b5b50919050565b6000612afa82612a3b565b91507fffffffffffffffffffffffffffffffffffffffffffffffffffffffffffffffff821415612b2d57612b2c612b69565b5b600182019050919050565b6000612b4382612a3b565b9150612b4e83612a3b565b925082612b5e57612b5d612b98565b5b828206905092915050565b7f4e487b7100000000000000000000000000000000000000000000000000000000600052601160045260246000fd5b7f4e487b7100000000000000000000000000000000000000000000000000000000600052601260045260246000fd5b7f4e487b7100000000000000000000000000000000000000000000000000000000600052602260045260246000fd5b7f4e487b7100000000000000000000000000000000000000000000000000000000600052604160045260246000fd5b6000601f19601f8301169050919050565b612c3f816129bf565b8114612c4a57600080fd5b50565b612c56816129d1565b8114612c6157600080fd5b50565b612c6d816129e3565b8114612c7857600080fd5b50565b612c84816129ef565b8114612c8f57600080fd5b50565b612c9b81612a3b565b8114612ca657600080fd5b5056fea264697066735822122027447517596c25a340e0dc549d9e172daa087bbfbbf528dcd233918a97a6a8a464736f6c63430008000033",
  "immutableReferences": {},
  "source": "// SPDX-License-Identifier: MIT\r\npragma solidity ^0.8.0;\r\nimport \"./tokens/ERC721.sol\";\r\nimport \"./Ownable.sol\";\r\n\r\ncontract PurchaseLand is ERC721 {\r\n    address payable[320] public owners;\r\n    uint256 balance;\r\n    address payable owner;\r\n    uint256 gasPrice = 0.025 ether;\r\n\r\n    event LandBought(address indexedFrom, uint256 landId, address owner);\r\n    event LandTransfer(address from, address to, uint landId);\r\n\r\n    constructor() ERC721(\"MetaLand\", \"MND\") {\r\n        owner = payable(msg.sender);\r\n    }\r\n\r\n    function purchase(uint256 landId) public payable returns (uint256) {\r\n        require(landId >= 0 && landId <= 799);\r\n        require(owners[landId] == 0x0000000000000000000000000000000000000000);\r\n        // uint256 price = 5;\r\n        // require(msg.value == price, \"Please submit the asking price in order to complete the purchase\");\r\n        _mint(msg.sender, landId);\r\n        // owners[landId].transfer(msg.value);\r\n        owners[landId] = payable(msg.sender);\r\n        // payable(owner).transfer(gasPrice);\r\n        emit LandBought(msg.sender, landId, owners[landId]);\r\n        return landId;\r\n    }\r\n    // Retrieving the owners\r\n    function getOwners() public view returns (address payable[320] memory) {\r\n        return owners;\r\n    }\r\n    // Retrieving specific owner\r\n    function getOwner(uint256 landId) public view returns (address payable landOwner) {\r\n        return owners[landId];\r\n    }\r\n\r\n    function transferLand(address payable from, address payable to, uint256 landId ) public virtual  returns (uint256) {\r\n        //solhint-disable-next-line max-line-length\r\n        _transfer(from, to, landId);\r\n        owners[landId] = to;\r\n        emit LandTransfer(from ,to ,landId);\r\n        return landId;\r\n    }\r\n}\r\n",
  "sourcePath": "C:\\Users\\\\vscode-workspace\\metaland-dapp\\contracts\\PurchaseLand.sol",
  "compiler": {
    "name": "solc",
    "version": "0.8.0+commit.c7dfd78e.Emscripten.clang"
  },
  "schemaVersion": "3.4.5",
  "updatedAt": "2022-03-05T17:36:37.020Z",
  "networkType": "ethereum",
  "devdoc": {
    "kind": "dev",
    "methods": {
      "approve(address,uint256)": {
        "details": "See {IERC721-approve}."
      },
      "balanceOf(address)": {
        "details": "See {IERC721-balanceOf}."
      },
      "getApproved(uint256)": {
        "details": "See {IERC721-getApproved}."
      },
      "isApprovedForAll(address,address)": {
        "details": "See {IERC721-isApprovedForAll}."
      },
      "name()": {
        "details": "See {IERC721Metadata-name}."
      },
      "ownerOf(uint256)": {
        "details": "See {IERC721-ownerOf}."
      },
      "safeTransferFrom(address,address,uint256)": {
        "details": "See {IERC721-safeTransferFrom}."
      },
      "safeTransferFrom(address,address,uint256,bytes)": {
        "details": "See {IERC721-safeTransferFrom}."
      },
      "setApprovalForAll(address,bool)": {
        "details": "See {IERC721-setApprovalForAll}."
      },
      "supportsInterface(bytes4)": {
        "details": "See {IERC165-supportsInterface}."
      },
      "symbol()": {
        "details": "See {IERC721Metadata-symbol}."
      },
      "tokenURI(uint256)": {
        "details": "See {IERC721Metadata-tokenURI}."
      },
      "transferFrom(address,address,uint256)": {
        "details": "See {IERC721-transferFrom}."
      }
    },
    "version": 1
  },
  "userdoc": {
    "kind": "user",
    "methods": {},
    "version": 1
  }
}