{
  "contractName": "PurchaseLand",
  "abi": [
    {
      "inputs": [],
      "stateMutability": "nonpayable",
      "type": "constructor"
    },
    {
      "anonymous": false,
      "inputs": [
        {
          "indexed": true,
          "internalType": "address",
          "name": "owner",
          "type": "address"
        },
        {
          "indexed": true,
          "internalType": "address",
          "name": "approved",
          "type": "address"
        },
        {
          "indexed": true,
          "internalType": "uint256",
          "name": "tokenId",
          "type": "uint256"
        }
      ],
      "name": "Approval",
      "type": "event"
    },
    {
      "anonymous": false,
      "inputs": [
        {
          "indexed": true,
          "internalType": "address",
          "name": "owner",
          "type": "address"
        },
        {
          "indexed": true,
          "internalType": "address",
          "name": "operator",
          "type": "address"
        },
        {
          "indexed": false,
          "internalType": "bool",
          "name": "approved",
          "type": "bool"
        }
      ],
      "name": "ApprovalForAll",
      "type": "event"
    },
    {
      "anonymous": false,
      "inputs": [
        {
          "indexed": false,
          "internalType": "address",
          "name": "indexedFrom",
          "type": "address"
        },
        {
          "indexed": false,
          "internalType": "uint256",
          "name": "landId",
          "type": "uint256"
        },
        {
          "indexed": false,
          "internalType": "address",
          "name": "owner",
          "type": "address"
        }
      ],
      "name": "LandBought",
      "type": "event"
    },
    {
      "anonymous": false,
      "inputs": [
        {
          "indexed": false,
          "internalType": "address",
          "name": "from",
          "type": "address"
        },
        {
          "indexed": false,
          "internalType": "address",
          "name": "to",
          "type": "address"
        },
        {
          "indexed": false,
          "internalType": "uint256",
          "name": "landId",
          "type": "uint256"
        }
      ],
      "name": "LandTransfer",
      "type": "event"
    },
    {
      "anonymous": false,
      "inputs": [
        {
          "indexed": false,
          "internalType": "uint256",
          "name": "landId",
          "type": "uint256"
        },
        {
          "indexed": false,
          "internalType": "uint256",
          "name": "newPrice",
          "type": "uint256"
        }
      ],
      "name": "PriceChanged",
      "type": "event"
    },
    {
      "anonymous": false,
      "inputs": [
        {
          "indexed": true,
          "internalType": "address",
          "name": "from",
          "type": "address"
        },
        {
          "indexed": true,
          "internalType": "address",
          "name": "to",
          "type": "address"
        },
        {
          "indexed": true,
          "internalType": "uint256",
          "name": "tokenId",
          "type": "uint256"
        }
      ],
      "name": "Transfer",
      "type": "event"
    },
    {
      "inputs": [
        {
          "internalType": "address",
          "name": "to",
          "type": "address"
        },
        {
          "internalType": "uint256",
          "name": "tokenId",
          "type": "uint256"
        }
      ],
      "name": "approve",
      "outputs": [],
      "stateMutability": "nonpayable",
      "type": "function"
    },
    {
      "inputs": [
        {
          "internalType": "address",
          "name": "owner",
          "type": "address"
        }
      ],
      "name": "balanceOf",
      "outputs": [
        {
          "internalType": "uint256",
          "name": "",
          "type": "uint256"
        }
      ],
      "stateMutability": "view",
      "type": "function",
      "constant": true
    },
    {
      "inputs": [
        {
          "internalType": "uint256",
          "name": "tokenId",
          "type": "uint256"
        }
      ],
      "name": "getApproved",
      "outputs": [
        {
          "internalType": "address",
          "name": "",
          "type": "address"
        }
      ],
      "stateMutability": "view",
      "type": "function",
      "constant": true
    },
    {
      "inputs": [
        {
          "internalType": "address",
          "name": "owner",
          "type": "address"
        },
        {
          "internalType": "address",
          "name": "operator",
          "type": "address"
        }
      ],
      "name": "isApprovedForAll",
      "outputs": [
        {
          "internalType": "bool",
          "name": "",
          "type": "bool"
        }
      ],
      "stateMutability": "view",
      "type": "function",
      "constant": true
    },
    {
      "inputs": [],
      "name": "name",
      "outputs": [
        {
          "internalType": "string",
          "name": "",
          "type": "string"
        }
      ],
      "stateMutability": "view",
      "type": "function",
      "constant": true
    },
    {
      "inputs": [
        {
          "internalType": "uint256",
          "name": "tokenId",
          "type": "uint256"
        }
      ],
      "name": "ownerOf",
      "outputs": [
        {
          "internalType": "address",
          "name": "",
          "type": "address"
        }
      ],
      "stateMutability": "view",
      "type": "function",
      "constant": true
    },
    {
      "inputs": [
        {
          "internalType": "uint256",
          "name": "",
          "type": "uint256"
        }
      ],
      "name": "owners",
      "outputs": [
        {
          "internalType": "address",
          "name": "",
          "type": "address"
        }
      ],
      "stateMutability": "view",
      "type": "function",
      "constant": true
    },
    {
      "inputs": [
        {
          "internalType": "address",
          "name": "from",
          "type": "address"
        },
        {
          "internalType": "address",
          "name": "to",
          "type": "address"
        },
        {
          "internalType": "uint256",
          "name": "tokenId",
          "type": "uint256"
        }
      ],
      "name": "safeTransferFrom",
      "outputs": [],
      "stateMutability": "nonpayable",
      "type": "function"
    },
    {
      "inputs": [
        {
          "internalType": "address",
          "name": "from",
          "type": "address"
        },
        {
          "internalType": "address",
          "name": "to",
          "type": "address"
        },
        {
          "internalType": "uint256",
          "name": "tokenId",
          "type": "uint256"
        },
        {
          "internalType": "bytes",
          "name": "_data",
          "type": "bytes"
        }
      ],
      "name": "safeTransferFrom",
      "outputs": [],
      "stateMutability": "nonpayable",
      "type": "function"
    },
    {
      "inputs": [
        {
          "internalType": "address",
          "name": "operator",
          "type": "address"
        },
        {
          "internalType": "bool",
          "name": "approved",
          "type": "bool"
        }
      ],
      "name": "setApprovalForAll",
      "outputs": [],
      "stateMutability": "nonpayable",
      "type": "function"
    },
    {
      "inputs": [
        {
          "internalType": "bytes4",
          "name": "interfaceId",
          "type": "bytes4"
        }
      ],
      "name": "supportsInterface",
      "outputs": [
        {
          "internalType": "bool",
          "name": "",
          "type": "bool"
        }
      ],
      "stateMutability": "view",
      "type": "function",
      "constant": true
    },
    {
      "inputs": [],
      "name": "symbol",
      "outputs": [
        {
          "internalType": "string",
          "name": "",
          "type": "string"
        }
      ],
      "stateMutability": "view",
      "type": "function",
      "constant": true
    },
    {
      "inputs": [
        {
          "internalType": "uint256",
          "name": "tokenId",
          "type": "uint256"
        }
      ],
      "name": "tokenURI",
      "outputs": [
        {
          "internalType": "string",
          "name": "",
          "type": "string"
        }
      ],
      "stateMutability": "view",
      "type": "function",
      "constant": true
    },
    {
      "inputs": [
        {
          "internalType": "address",
          "name": "from",
          "type": "address"
        },
        {
          "internalType": "address",
          "name": "to",
          "type": "address"
        },
        {
          "internalType": "uint256",
          "name": "tokenId",
          "type": "uint256"
        }
      ],
      "name": "transferFrom",
      "outputs": [],
      "stateMutability": "nonpayable",
      "type": "function"
    },
    {
      "inputs": [
        {
          "internalType": "uint256",
          "name": "landId",
          "type": "uint256"
        },
        {
          "internalType": "uint256",
          "name": "price",
          "type": "uint256"
        }
      ],
      "name": "purchase",
      "outputs": [
        {
          "internalType": "uint256",
          "name": "",
          "type": "uint256"
        }
      ],
      "stateMutability": "payable",
      "type": "function",
      "payable": true
    },
    {
      "inputs": [],
      "name": "getOwners",
      "outputs": [
        {
          "internalType": "address[800]",
          "name": "",
          "type": "address[800]"
        }
      ],
      "stateMutability": "view",
      "type": "function",
      "constant": true
    },
    {
      "inputs": [
        {
          "internalType": "uint256",
          "name": "landId",
          "type": "uint256"
        }
      ],
      "name": "getOwner",
      "outputs": [
        {
          "internalType": "address",
          "name": "landOwner",
          "type": "address"
        }
      ],
      "stateMutability": "view",
      "type": "function",
      "constant": true
    },
    {
      "inputs": [
        {
          "internalType": "address payable",
          "name": "from",
          "type": "address"
        },
        {
          "internalType": "address payable",
          "name": "to",
          "type": "address"
        },
        {
          "internalType": "uint256",
          "name": "landId",
          "type": "uint256"
        }
      ],
      "name": "transferLand",
      "outputs": [
        {
          "internalType": "uint256",
          "name": "",
          "type": "uint256"
        }
      ],
      "stateMutability": "nonpayable",
      "type": "function"
    },
    {
      "inputs": [
        {
          "internalType": "uint256",
          "name": "landId",
          "type": "uint256"
        },
        {
          "internalType": "uint256",
          "name": "newPrice",
          "type": "uint256"
        }
      ],
      "name": "setPrice",
      "outputs": [],
      "stateMutability": "nonpayable",
      "type": "function"
    }
  ],
  "bytecode": "0x60806040523480156200001157600080fd5b506040518060400160405280600881526020017f4d6574614c616e640000000000000000000000000000000000000000000000008152506040518060400160405280600381526020017f4d4e440000000000000000000000000000000000000000000000000000000000815250816000908051906020019062000096929190620000fa565b508060019080519060200190620000af929190620000fa565b5050503361032660006101000a81548173ffffffffffffffffffffffffffffffffffffffff021916908373ffffffffffffffffffffffffffffffffffffffff1602179055506200020f565b8280546200010890620001aa565b90600052602060002090601f0160209004810192826200012c576000855562000178565b82601f106200014757805160ff191683800117855562000178565b8280016001018555821562000178579182015b82811115620001775782518255916020019190600101906200015a565b5b5090506200018791906200018b565b5090565b5b80821115620001a65760008160009055506001016200018c565b5090565b60006002820490506001821680620001c357607f821691505b60208210811415620001da57620001d9620001e0565b5b50919050565b7f4e487b7100000000000000000000000000000000000000000000000000000000600052602260045260246000fd5b612e50806200021f6000396000f3fe6080604052600436106101145760003560e01c806370a08231116100a0578063b88d4fde11610064578063b88d4fde146103dc578063c41a360a14610405578063c87b56dd14610442578063e985e9c51461047f578063f7d97577146104bc57610114565b806370a08231146102e357806395d89b4114610320578063a0e67e2b1461034b578063a22cb46514610376578063a762c3421461039f57610114565b8063095ea7b3116100e7578063095ea7b3146101fb57806323b872dd1461022457806342842e0e1461024d5780636352211e1461027657806370876c98146102b357610114565b806301ffc9a714610119578063025e7c271461015657806306fdde0314610193578063081812fc146101be575b600080fd5b34801561012557600080fd5b50610140600480360381019061013b9190611f9d565b6104e5565b60405161014d9190612782565b60405180910390f35b34801561016257600080fd5b5061017d60048036038101906101789190611fef565b6105c7565b60405161018a9190612691565b60405180910390f35b34801561019f57600080fd5b506101a86105fe565b6040516101b5919061279d565b60405180910390f35b3480156101ca57600080fd5b506101e560048036038101906101e09190611fef565b610690565b6040516101f29190612691565b60405180910390f35b34801561020757600080fd5b50610222600480360381019061021d9190611f61565b610715565b005b34801561023057600080fd5b5061024b60048036038101906102469190611e5b565b61082d565b005b34801561025957600080fd5b50610274600480360381019061026f9190611e5b565b61088d565b005b34801561028257600080fd5b5061029d60048036038101906102989190611fef565b6108ad565b6040516102aa9190612691565b60405180910390f35b6102cd60048036038101906102c89190612018565b6108ef565b6040516102da919061295f565b60405180910390f35b3480156102ef57600080fd5b5061030a60048036038101906103059190611da7565b610b08565b604051610317919061295f565b60405180910390f35b34801561032c57600080fd5b50610335610bc0565b604051610342919061279d565b60405180910390f35b34801561035757600080fd5b50610360610c52565b60405161036d9190612766565b60405180910390f35b34801561038257600080fd5b5061039d60048036038101906103989190611f25565b610cd5565b005b3480156103ab57600080fd5b506103c660048036038101906103c19190611dd0565b610ceb565b6040516103d3919061295f565b60405180910390f35b3480156103e857600080fd5b5061040360048036038101906103fe9190611eaa565b610db8565b005b34801561041157600080fd5b5061042c60048036038101906104279190611fef565b610e1a565b6040516104399190612691565b60405180910390f35b34801561044e57600080fd5b5061046960048036038101906104649190611fef565b610e80565b604051610476919061279d565b60405180910390f35b34801561048b57600080fd5b506104a660048036038101906104a19190611e1f565b610f27565b6040516104b39190612782565b60405180910390f35b3480156104c857600080fd5b506104e360048036038101906104de9190612018565b610fbb565b005b60007f80ac58cd000000000000000000000000000000000000000000000000000000007bffffffffffffffffffffffffffffffffffffffffffffffffffffffff1916827bffffffffffffffffffffffffffffffffffffffffffffffffffffffff191614806105b057507f5b5e139f000000000000000000000000000000000000000000000000000000007bffffffffffffffffffffffffffffffffffffffffffffffffffffffff1916827bffffffffffffffffffffffffffffffffffffffffffffffffffffffff1916145b806105c057506105bf8261107a565b5b9050919050565b60068161032081106105d857600080fd5b016000915054906101000a900473ffffffffffffffffffffffffffffffffffffffff1681565b60606000805461060d90612c2e565b80601f016020809104026020016040519081016040528092919081815260200182805461063990612c2e565b80156106865780601f1061065b57610100808354040283529160200191610686565b820191906000526020600020905b81548152906001019060200180831161066957829003601f168201915b5050505050905090565b600061069b826110e4565b6106da576040517f08c379a00000000000000000000000000000000000000000000000000000000081526004016106d1906128df565b60405180910390fd5b6004600083815260200190815260200160002060009054906101000a900473ffffffffffffffffffffffffffffffffffffffff169050919050565b6000610720826108ad565b90508073ffffffffffffffffffffffffffffffffffffffff168373ffffffffffffffffffffffffffffffffffffffff161415610791576040517f08c379a00000000000000000000000000000000000000000000000000000000081526004016107889061291f565b60405180910390fd5b8073ffffffffffffffffffffffffffffffffffffffff166107b0611150565b73ffffffffffffffffffffffffffffffffffffffff1614806107df57506107de816107d9611150565b610f27565b5b61081e576040517f08c379a00000000000000000000000000000000000000000000000000000000081526004016108159061287f565b60405180910390fd5b6108288383611158565b505050565b61083e610838611150565b82611211565b61087d576040517f08c379a00000000000000000000000000000000000000000000000000000000081526004016108749061293f565b60405180910390fd5b6108888383836112ef565b505050565b6108a883838360405180602001604052806000815250610db8565b505050565b6000806002600084815260200190815260200160002060009054906101000a900473ffffffffffffffffffffffffffffffffffffffff16905080915050919050565b6000808310158015610903575061031f8311155b61090c57600080fd5b600073ffffffffffffffffffffffffffffffffffffffff16600684610320811061095f577f4e487b7100000000000000000000000000000000000000000000000000000000600052603260045260246000fd5b0160009054906101000a900473ffffffffffffffffffffffffffffffffffffffff1673ffffffffffffffffffffffffffffffffffffffff16146109a157600080fd5b816103278461032081106109de577f4e487b7100000000000000000000000000000000000000000000000000000000600052603260045260246000fd5b01819055506109ed3384611556565b336006846103208110610a29577f4e487b7100000000000000000000000000000000000000000000000000000000600052603260045260246000fd5b0160006101000a81548173ffffffffffffffffffffffffffffffffffffffff021916908373ffffffffffffffffffffffffffffffffffffffff1602179055507fed9e0dc5479152698d99195d219992bd45798ef9712b0e94058cd0a9c614ce9933846006866103208110610ac6577f4e487b7100000000000000000000000000000000000000000000000000000000600052603260045260246000fd5b0160009054906101000a900473ffffffffffffffffffffffffffffffffffffffff16604051610af79392919061272f565b60405180910390a182905092915050565b60008073ffffffffffffffffffffffffffffffffffffffff168273ffffffffffffffffffffffffffffffffffffffff161415610b79576040517f08c379a0000000000000000000000000000000000000000000000000000000008152600401610b709061289f565b60405180910390fd5b600360008373ffffffffffffffffffffffffffffffffffffffff1673ffffffffffffffffffffffffffffffffffffffff168152602001908152602001600020549050919050565b606060018054610bcf90612c2e565b80601f0160208091040260200160405190810160405280929190818152602001828054610bfb90612c2e565b8015610c485780601f10610c1d57610100808354040283529160200191610c48565b820191906000526020600020905b815481529060010190602001808311610c2b57829003601f168201915b5050505050905090565b610c5a611c9d565b60066103208060200260405190810160405280929190826103208015610ccb576020028201915b8160009054906101000a900473ffffffffffffffffffffffffffffffffffffffff1673ffffffffffffffffffffffffffffffffffffffff1681526020019060010190808311610c81575b5050505050905090565b610ce7610ce0611150565b8383611730565b5050565b6000610cf88484846112ef565b826006836103208110610d34577f4e487b7100000000000000000000000000000000000000000000000000000000600052603260045260246000fd5b0160006101000a81548173ffffffffffffffffffffffffffffffffffffffff021916908373ffffffffffffffffffffffffffffffffffffffff1602179055507f9e1d6189df6b1805ec42b2e7d6b24c959f44a916843a83c78d199e717631836b848484604051610da6939291906126ac565b60405180910390a18190509392505050565b610dc9610dc3611150565b83611211565b610e08576040517f08c379a0000000000000000000000000000000000000000000000000000000008152600401610dff9061293f565b60405180910390fd5b610e148484848461189d565b50505050565b60006006826103208110610e57577f4e487b7100000000000000000000000000000000000000000000000000000000600052603260045260246000fd5b0160009054906101000a900473ffffffffffffffffffffffffffffffffffffffff169050919050565b6060610e8b826110e4565b610eca576040517f08c379a0000000000000000000000000000000000000000000000000000000008152600401610ec1906128ff565b60405180910390fd5b6000610ed46118f9565b90506000815111610ef45760405180602001604052806000815250610f1f565b80610efe84611910565b604051602001610f0f92919061266d565b6040516020818303038152906040525b915050919050565b6000600560008473ffffffffffffffffffffffffffffffffffffffff1673ffffffffffffffffffffffffffffffffffffffff16815260200190815260200160002060008373ffffffffffffffffffffffffffffffffffffffff1673ffffffffffffffffffffffffffffffffffffffff16815260200190815260200160002060009054906101000a900460ff16905092915050565b3373ffffffffffffffffffffffffffffffffffffffff16610fdb836108ad565b73ffffffffffffffffffffffffffffffffffffffff1614610ffb57600080fd5b80610327836103208110611038577f4e487b7100000000000000000000000000000000000000000000000000000000600052603260045260246000fd5b01819055507f8aa4fa52648a6d15edce8a179c792c86f3719d0cc3c572cf90f91948f0f2cb68828260405161106e92919061297a565b60405180910390a15050565b60007f01ffc9a7000000000000000000000000000000000000000000000000000000007bffffffffffffffffffffffffffffffffffffffffffffffffffffffff1916827bffffffffffffffffffffffffffffffffffffffffffffffffffffffff1916149050919050565b60008073ffffffffffffffffffffffffffffffffffffffff166002600084815260200190815260200160002060009054906101000a900473ffffffffffffffffffffffffffffffffffffffff1673ffffffffffffffffffffffffffffffffffffffff1614159050919050565b600033905090565b816004600083815260200190815260200160002060006101000a81548173ffffffffffffffffffffffffffffffffffffffff021916908373ffffffffffffffffffffffffffffffffffffffff160217905550808273ffffffffffffffffffffffffffffffffffffffff166111cb836108ad565b73ffffffffffffffffffffffffffffffffffffffff167f8c5be1e5ebec7d5bd14f71427d1e84f3dd0314c0f7b2291e5b200ac8c7c3b92560405160405180910390a45050565b600061121c826110e4565b61125b576040517f08c379a00000000000000000000000000000000000000000000000000000000081526004016112529061285f565b60405180910390fd5b6000611266836108ad565b90508073ffffffffffffffffffffffffffffffffffffffff168473ffffffffffffffffffffffffffffffffffffffff1614806112d557508373ffffffffffffffffffffffffffffffffffffffff166112bd84610690565b73ffffffffffffffffffffffffffffffffffffffff16145b806112e657506112e58185610f27565b5b91505092915050565b8273ffffffffffffffffffffffffffffffffffffffff1661130f826108ad565b73ffffffffffffffffffffffffffffffffffffffff1614611365576040517f08c379a000000000000000000000000000000000000000000000000000000000815260040161135c906127df565b60405180910390fd5b600073ffffffffffffffffffffffffffffffffffffffff168273ffffffffffffffffffffffffffffffffffffffff1614156113d5576040517f08c379a00000000000000000000000000000000000000000000000000000000081526004016113cc9061281f565b60405180910390fd5b6113e0838383611abd565b6113eb600082611158565b6001600360008573ffffffffffffffffffffffffffffffffffffffff1673ffffffffffffffffffffffffffffffffffffffff168152602001908152602001600020600082825461143b9190612afc565b925050819055506001600360008473ffffffffffffffffffffffffffffffffffffffff1673ffffffffffffffffffffffffffffffffffffffff16815260200190815260200160002060008282546114929190612a75565b92505081905550816002600083815260200190815260200160002060006101000a81548173ffffffffffffffffffffffffffffffffffffffff021916908373ffffffffffffffffffffffffffffffffffffffff160217905550808273ffffffffffffffffffffffffffffffffffffffff168473ffffffffffffffffffffffffffffffffffffffff167fddf252ad1be2c89b69c2b068fc378daa952ba7f163c4a11628f55a4df523b3ef60405160405180910390a4611551838383611ac2565b505050565b600073ffffffffffffffffffffffffffffffffffffffff168273ffffffffffffffffffffffffffffffffffffffff1614156115c6576040517f08c379a00000000000000000000000000000000000000000000000000000000081526004016115bd906128bf565b60405180910390fd5b6115cf816110e4565b1561160f576040517f08c379a0000000000000000000000000000000000000000000000000000000008152600401611606906127ff565b60405180910390fd5b61161b60008383611abd565b6001600360008473ffffffffffffffffffffffffffffffffffffffff1673ffffffffffffffffffffffffffffffffffffffff168152602001908152602001600020600082825461166b9190612a75565b92505081905550816002600083815260200190815260200160002060006101000a81548173ffffffffffffffffffffffffffffffffffffffff021916908373ffffffffffffffffffffffffffffffffffffffff160217905550808273ffffffffffffffffffffffffffffffffffffffff16600073ffffffffffffffffffffffffffffffffffffffff167fddf252ad1be2c89b69c2b068fc378daa952ba7f163c4a11628f55a4df523b3ef60405160405180910390a461172c60008383611ac2565b5050565b8173ffffffffffffffffffffffffffffffffffffffff168373ffffffffffffffffffffffffffffffffffffffff16141561179f576040517f08c379a00000000000000000000000000000000000000000000000000000000081526004016117969061283f565b60405180910390fd5b80600560008573ffffffffffffffffffffffffffffffffffffffff1673ffffffffffffffffffffffffffffffffffffffff16815260200190815260200160002060008473ffffffffffffffffffffffffffffffffffffffff1673ffffffffffffffffffffffffffffffffffffffff16815260200190815260200160002060006101000a81548160ff0219169083151502179055508173ffffffffffffffffffffffffffffffffffffffff168373ffffffffffffffffffffffffffffffffffffffff167f17307eab39ab6107e8899845ad3d59bd9653f200f220920489ca2b5937696c31836040516118909190612782565b60405180910390a3505050565b6118a88484846112ef565b6118b484848484611ac7565b6118f3576040517f08c379a00000000000000000000000000000000000000000000000000000000081526004016118ea906127bf565b60405180910390fd5b50505050565b606060405180602001604052806000815250905090565b60606000821415611958576040518060400160405280600181526020017f30000000000000000000000000000000000000000000000000000000000000008152509050611ab8565b600082905060005b6000821461198a57808061197390612c60565b915050600a826119839190612acb565b9150611960565b60008167ffffffffffffffff8111156119cc577f4e487b7100000000000000000000000000000000000000000000000000000000600052604160045260246000fd5b6040519080825280601f01601f1916602001820160405280156119fe5781602001600182028036833780820191505090505b5090505b60008514611ab157600182611a179190612afc565b9150600a85611a269190612ca9565b6030611a329190612a75565b60f81b818381518110611a6e577f4e487b7100000000000000000000000000000000000000000000000000000000600052603260045260246000fd5b60200101907effffffffffffffffffffffffffffffffffffffffffffffffffffffffffffff1916908160001a905350600a85611aaa9190612acb565b9450611a02565b8093505050505b919050565b505050565b505050565b6000611ae88473ffffffffffffffffffffffffffffffffffffffff16611c5e565b15611c51578373ffffffffffffffffffffffffffffffffffffffff1663150b7a02611b11611150565b8786866040518563ffffffff1660e01b8152600401611b3394939291906126e3565b602060405180830381600087803b158015611b4d57600080fd5b505af1925050508015611b7e57506040513d601f19601f82011682018060405250810190611b7b9190611fc6565b60015b611c01573d8060008114611bae576040519150601f19603f3d011682016040523d82523d6000602084013e611bb3565b606091505b50600081511415611bf9576040517f08c379a0000000000000000000000000000000000000000000000000000000008152600401611bf0906127bf565b60405180910390fd5b805181602001fd5b63150b7a0260e01b7bffffffffffffffffffffffffffffffffffffffffffffffffffffffff1916817bffffffffffffffffffffffffffffffffffffffffffffffffffffffff191614915050611c56565b600190505b949350505050565b6000808273ffffffffffffffffffffffffffffffffffffffff16803b806020016040519081016040528181526000908060200190933c51119050919050565b60405180616400016040528061032090602082028036833780820191505090505090565b6000611cd4611ccf846129d4565b6129a3565b905082815260208101848484011115611cec57600080fd5b611cf7848285612bec565b509392505050565b600081359050611d0e81612da7565b92915050565b600081359050611d2381612dbe565b92915050565b600081359050611d3881612dd5565b92915050565b600081359050611d4d81612dec565b92915050565b600081519050611d6281612dec565b92915050565b600082601f830112611d7957600080fd5b8135611d89848260208601611cc1565b91505092915050565b600081359050611da181612e03565b92915050565b600060208284031215611db957600080fd5b6000611dc784828501611cff565b91505092915050565b600080600060608486031215611de557600080fd5b6000611df386828701611d14565b9350506020611e0486828701611d14565b9250506040611e1586828701611d92565b9150509250925092565b60008060408385031215611e3257600080fd5b6000611e4085828601611cff565b9250506020611e5185828601611cff565b9150509250929050565b600080600060608486031215611e7057600080fd5b6000611e7e86828701611cff565b9350506020611e8f86828701611cff565b9250506040611ea086828701611d92565b9150509250925092565b60008060008060808587031215611ec057600080fd5b6000611ece87828801611cff565b9450506020611edf87828801611cff565b9350506040611ef087828801611d92565b925050606085013567ffffffffffffffff811115611f0d57600080fd5b611f1987828801611d68565b91505092959194509250565b60008060408385031215611f3857600080fd5b6000611f4685828601611cff565b9250506020611f5785828601611d29565b9150509250929050565b60008060408385031215611f7457600080fd5b6000611f8285828601611cff565b9250506020611f9385828601611d92565b9150509250929050565b600060208284031215611faf57600080fd5b6000611fbd84828501611d3e565b91505092915050565b600060208284031215611fd857600080fd5b6000611fe684828501611d53565b91505092915050565b60006020828403121561200157600080fd5b600061200f84828501611d92565b91505092915050565b6000806040838503121561202b57600080fd5b600061203985828601611d92565b925050602061204a85828601611d92565b9150509250929050565b6000612060838361207b565b60208301905092915050565b61207581612bb6565b82525050565b61208481612b30565b82525050565b61209381612b30565b82525050565b6120a281612a0e565b6120ac8184612a3d565b92506120b782612a04565b8060005b838110156120e85781516120cf8782612054565b96506120da83612a30565b9250506001810190506120bb565b505050505050565b6120f981612b54565b82525050565b600061210a82612a1a565b6121148185612a48565b9350612124818560208601612bfb565b61212d81612d96565b840191505092915050565b600061214382612a25565b61214d8185612a59565b935061215d818560208601612bfb565b61216681612d96565b840191505092915050565b600061217c82612a25565b6121868185612a6a565b9350612196818560208601612bfb565b80840191505092915050565b60006121af603283612a59565b91507f4552433732313a207472616e7366657220746f206e6f6e20455243373231526560008301527f63656976657220696d706c656d656e74657200000000000000000000000000006020830152604082019050919050565b6000612215602583612a59565b91507f4552433732313a207472616e736665722066726f6d20696e636f72726563742060008301527f6f776e65720000000000000000000000000000000000000000000000000000006020830152604082019050919050565b600061227b601c83612a59565b91507f4552433732313a20746f6b656e20616c7265616479206d696e746564000000006000830152602082019050919050565b60006122bb602483612a59565b91507f4552433732313a207472616e7366657220746f20746865207a65726f2061646460008301527f72657373000000000000000000000000000000000000000000000000000000006020830152604082019050919050565b6000612321601983612a59565b91507f4552433732313a20617070726f766520746f2063616c6c6572000000000000006000830152602082019050919050565b6000612361602c83612a59565b91507f4552433732313a206f70657261746f7220717565727920666f72206e6f6e657860008301527f697374656e7420746f6b656e00000000000000000000000000000000000000006020830152604082019050919050565b60006123c7603883612a59565b91507f4552433732313a20617070726f76652063616c6c6572206973206e6f74206f7760008301527f6e6572206e6f7220617070726f76656420666f7220616c6c00000000000000006020830152604082019050919050565b600061242d602a83612a59565b91507f4552433732313a2062616c616e636520717565727920666f7220746865207a6560008301527f726f2061646472657373000000000000000000000000000000000000000000006020830152604082019050919050565b6000612493602083612a59565b91507f4552433732313a206d696e7420746f20746865207a65726f20616464726573736000830152602082019050919050565b60006124d3602c83612a59565b91507f4552433732313a20617070726f76656420717565727920666f72206e6f6e657860008301527f697374656e7420746f6b656e00000000000000000000000000000000000000006020830152604082019050919050565b6000612539602f83612a59565b91507f4552433732314d657461646174613a2055524920717565727920666f72206e6f60008301527f6e6578697374656e7420746f6b656e00000000000000000000000000000000006020830152604082019050919050565b600061259f602183612a59565b91507f4552433732313a20617070726f76616c20746f2063757272656e74206f776e6560008301527f72000000000000000000000000000000000000000000000000000000000000006020830152604082019050919050565b6000612605603183612a59565b91507f4552433732313a207472616e736665722063616c6c6572206973206e6f74206f60008301527f776e6572206e6f7220617070726f7665640000000000000000000000000000006020830152604082019050919050565b61266781612bac565b82525050565b60006126798285612171565b91506126858284612171565b91508190509392505050565b60006020820190506126a6600083018461208a565b92915050565b60006060820190506126c1600083018661206c565b6126ce602083018561206c565b6126db604083018461265e565b949350505050565b60006080820190506126f8600083018761208a565b612705602083018661208a565b612712604083018561265e565b818103606083015261272481846120ff565b905095945050505050565b6000606082019050612744600083018661208a565b612751602083018561265e565b61275e604083018461208a565b949350505050565b60006164008201905061277c6000830184612099565b92915050565b600060208201905061279760008301846120f0565b92915050565b600060208201905081810360008301526127b78184612138565b905092915050565b600060208201905081810360008301526127d8816121a2565b9050919050565b600060208201905081810360008301526127f881612208565b9050919050565b600060208201905081810360008301526128188161226e565b9050919050565b60006020820190508181036000830152612838816122ae565b9050919050565b6000602082019050818103600083015261285881612314565b9050919050565b6000602082019050818103600083015261287881612354565b9050919050565b60006020820190508181036000830152612898816123ba565b9050919050565b600060208201905081810360008301526128b881612420565b9050919050565b600060208201905081810360008301526128d881612486565b9050919050565b600060208201905081810360008301526128f8816124c6565b9050919050565b600060208201905081810360008301526129188161252c565b9050919050565b6000602082019050818103600083015261293881612592565b9050919050565b60006020820190508181036000830152612958816125f8565b9050919050565b6000602082019050612974600083018461265e565b92915050565b600060408201905061298f600083018561265e565b61299c602083018461265e565b9392505050565b6000604051905081810181811067ffffffffffffffff821117156129ca576129c9612d67565b5b8060405250919050565b600067ffffffffffffffff8211156129ef576129ee612d67565b5b601f19601f8301169050602081019050919050565b6000819050919050565b60006103209050919050565b600081519050919050565b600081519050919050565b6000602082019050919050565b600081905092915050565b600082825260208201905092915050565b600082825260208201905092915050565b600081905092915050565b6000612a8082612bac565b9150612a8b83612bac565b9250827fffffffffffffffffffffffffffffffffffffffffffffffffffffffffffffffff03821115612ac057612abf612cda565b5b828201905092915050565b6000612ad682612bac565b9150612ae183612bac565b925082612af157612af0612d09565b5b828204905092915050565b6000612b0782612bac565b9150612b1283612bac565b925082821015612b2557612b24612cda565b5b828203905092915050565b6000612b3b82612b8c565b9050919050565b6000612b4d82612b8c565b9050919050565b60008115159050919050565b60007fffffffff0000000000000000000000000000000000000000000000000000000082169050919050565b600073ffffffffffffffffffffffffffffffffffffffff82169050919050565b6000819050919050565b6000612bc182612bc8565b9050919050565b6000612bd382612bda565b9050919050565b6000612be582612b8c565b9050919050565b82818337600083830152505050565b60005b83811015612c19578082015181840152602081019050612bfe565b83811115612c28576000848401525b50505050565b60006002820490506001821680612c4657607f821691505b60208210811415612c5a57612c59612d38565b5b50919050565b6000612c6b82612bac565b91507fffffffffffffffffffffffffffffffffffffffffffffffffffffffffffffffff821415612c9e57612c9d612cda565b5b600182019050919050565b6000612cb482612bac565b9150612cbf83612bac565b925082612ccf57612cce612d09565b5b828206905092915050565b7f4e487b7100000000000000000000000000000000000000000000000000000000600052601160045260246000fd5b7f4e487b7100000000000000000000000000000000000000000000000000000000600052601260045260246000fd5b7f4e487b7100000000000000000000000000000000000000000000000000000000600052602260045260246000fd5b7f4e487b7100000000000000000000000000000000000000000000000000000000600052604160045260246000fd5b6000601f19601f8301169050919050565b612db081612b30565b8114612dbb57600080fd5b50565b612dc781612b42565b8114612dd257600080fd5b50565b612dde81612b54565b8114612de957600080fd5b50565b612df581612b60565b8114612e0057600080fd5b50565b612e0c81612bac565b8114612e1757600080fd5b5056fea2646970667358221220ada00e3106d9b320425ea0368f868302d49fc9cd3621090fa3475c51a4b4eb4364736f6c63430008000033",
  "immutableReferences": {},
  "source": "// SPDX-License-Identifier: MIT\r\npragma solidity ^0.8.0;\r\nimport \"./tokens/ERC721.sol\";\r\nimport \"./Ownable.sol\";\r\n\r\ncontract PurchaseLand is ERC721 {\r\n    address [800] public owners;\r\n    address payable owner;\r\n    uint256 [800] _price;\r\n\r\n    event LandBought(address indexedFrom, uint256 landId, address owner);\r\n    event LandTransfer(address from, address to, uint landId);\r\n    event PriceChanged(uint landId, uint256 newPrice);\r\n\r\n    constructor() ERC721(\"MetaLand\", \"MND\") {\r\n        owner = payable(msg.sender);\r\n    }\r\n\r\n    function purchase(uint256 landId, uint256 price) public payable returns (uint256) {\r\n        require(landId >= 0 && landId <= 799);\r\n        require(owners[landId] == 0x0000000000000000000000000000000000000000);\r\n        _price[landId] = price;\r\n        _mint(msg.sender, landId);\r\n        owners[landId] = msg.sender;\r\n        emit LandBought(msg.sender, landId, owners[landId]);\r\n        return landId;\r\n    }\r\n    // Retrieving the owners\r\n    function getOwners() public view returns (address[800] memory) {\r\n        return owners;\r\n    }\r\n    // Retrieving specific owner\r\n    function getOwner(uint256 landId) public view returns (address landOwner) {\r\n        return owners[landId];\r\n    }\r\n    function transferLand(address payable from, address payable to, uint256 landId ) public virtual  returns (uint256) {\r\n        //solhint-disable-next-line max-line-length\r\n        _transfer(from, to, landId);\r\n        owners[landId] = to;\r\n        emit LandTransfer(from ,to ,landId);\r\n        return landId;\r\n    }\r\n    function setPrice(uint256 landId, uint256 newPrice) public virtual {\r\n        require(ownerOf(landId) == msg.sender);\r\n        _price[landId] = newPrice;\r\n        emit PriceChanged(landId, newPrice);\r\n    }\r\n\r\n    \r\n}\r\n",
  "sourcePath": "C:\\Users\\\\vscode-workspace\\metaland-dapp\\contracts\\PurchaseLand.sol",
  "compiler": {
    "name": "solc",
    "version": "0.8.0+commit.c7dfd78e.Emscripten.clang"
  },
  "schemaVersion": "3.4.5",
  "updatedAt": "2022-03-06T18:18:08.642Z",
  "networkType": "ethereum",
  "devdoc": {
    "kind": "dev",
    "methods": {
      "approve(address,uint256)": {
        "details": "See {IERC721-approve}."
      },
      "balanceOf(address)": {
        "details": "See {IERC721-balanceOf}."
      },
      "getApproved(uint256)": {
        "details": "See {IERC721-getApproved}."
      },
      "isApprovedForAll(address,address)": {
        "details": "See {IERC721-isApprovedForAll}."
      },
      "name()": {
        "details": "See {IERC721Metadata-name}."
      },
      "ownerOf(uint256)": {
        "details": "See {IERC721-ownerOf}."
      },
      "safeTransferFrom(address,address,uint256)": {
        "details": "See {IERC721-safeTransferFrom}."
      },
      "safeTransferFrom(address,address,uint256,bytes)": {
        "details": "See {IERC721-safeTransferFrom}."
      },
      "setApprovalForAll(address,bool)": {
        "details": "See {IERC721-setApprovalForAll}."
      },
      "supportsInterface(bytes4)": {
        "details": "See {IERC165-supportsInterface}."
      },
      "symbol()": {
        "details": "See {IERC721Metadata-symbol}."
      },
      "tokenURI(uint256)": {
        "details": "See {IERC721Metadata-tokenURI}."
      },
      "transferFrom(address,address,uint256)": {
        "details": "See {IERC721-transferFrom}."
      }
    },
    "version": 1
  },
  "userdoc": {
    "kind": "user",
    "methods": {},
    "version": 1
  }
}