{
  "contractName": "PurchaseLand",
  "abi": [
    {
      "inputs": [],
      "stateMutability": "nonpayable",
      "type": "constructor"
    },
    {
      "anonymous": false,
      "inputs": [
        {
          "indexed": true,
          "internalType": "address",
          "name": "owner",
          "type": "address"
        },
        {
          "indexed": true,
          "internalType": "address",
          "name": "approved",
          "type": "address"
        },
        {
          "indexed": true,
          "internalType": "uint256",
          "name": "tokenId",
          "type": "uint256"
        }
      ],
      "name": "Approval",
      "type": "event"
    },
    {
      "anonymous": false,
      "inputs": [
        {
          "indexed": true,
          "internalType": "address",
          "name": "owner",
          "type": "address"
        },
        {
          "indexed": true,
          "internalType": "address",
          "name": "operator",
          "type": "address"
        },
        {
          "indexed": false,
          "internalType": "bool",
          "name": "approved",
          "type": "bool"
        }
      ],
      "name": "ApprovalForAll",
      "type": "event"
    },
    {
      "anonymous": false,
      "inputs": [
        {
          "indexed": false,
          "internalType": "address",
          "name": "indexedFrom",
          "type": "address"
        },
        {
          "indexed": false,
          "internalType": "uint256",
          "name": "landId",
          "type": "uint256"
        },
        {
          "indexed": false,
          "internalType": "address",
          "name": "owner",
          "type": "address"
        }
      ],
      "name": "LandBought",
      "type": "event"
    },
    {
      "anonymous": false,
      "inputs": [
        {
          "indexed": true,
          "internalType": "address",
          "name": "previousOwner",
          "type": "address"
        },
        {
          "indexed": true,
          "internalType": "address",
          "name": "newOwner",
          "type": "address"
        }
      ],
      "name": "OwnershipTransferred",
      "type": "event"
    },
    {
      "anonymous": false,
      "inputs": [
        {
          "indexed": true,
          "internalType": "address",
          "name": "from",
          "type": "address"
        },
        {
          "indexed": true,
          "internalType": "address",
          "name": "to",
          "type": "address"
        },
        {
          "indexed": true,
          "internalType": "uint256",
          "name": "tokenId",
          "type": "uint256"
        }
      ],
      "name": "Transfer",
      "type": "event"
    },
    {
      "inputs": [
        {
          "internalType": "address",
          "name": "to",
          "type": "address"
        },
        {
          "internalType": "uint256",
          "name": "tokenId",
          "type": "uint256"
        }
      ],
      "name": "approve",
      "outputs": [],
      "stateMutability": "nonpayable",
      "type": "function"
    },
    {
      "inputs": [
        {
          "internalType": "address",
          "name": "owner",
          "type": "address"
        }
      ],
      "name": "balanceOf",
      "outputs": [
        {
          "internalType": "uint256",
          "name": "",
          "type": "uint256"
        }
      ],
      "stateMutability": "view",
      "type": "function"
    },
    {
      "inputs": [
        {
          "internalType": "uint256",
          "name": "tokenId",
          "type": "uint256"
        }
      ],
      "name": "getApproved",
      "outputs": [
        {
          "internalType": "address",
          "name": "",
          "type": "address"
        }
      ],
      "stateMutability": "view",
      "type": "function"
    },
    {
      "inputs": [
        {
          "internalType": "address",
          "name": "owner",
          "type": "address"
        },
        {
          "internalType": "address",
          "name": "operator",
          "type": "address"
        }
      ],
      "name": "isApprovedForAll",
      "outputs": [
        {
          "internalType": "bool",
          "name": "",
          "type": "bool"
        }
      ],
      "stateMutability": "view",
      "type": "function"
    },
    {
      "inputs": [],
      "name": "name",
      "outputs": [
        {
          "internalType": "string",
          "name": "",
          "type": "string"
        }
      ],
      "stateMutability": "view",
      "type": "function"
    },
    {
      "inputs": [],
      "name": "owner",
      "outputs": [
        {
          "internalType": "address",
          "name": "",
          "type": "address"
        }
      ],
      "stateMutability": "view",
      "type": "function"
    },
    {
      "inputs": [
        {
          "internalType": "uint256",
          "name": "tokenId",
          "type": "uint256"
        }
      ],
      "name": "ownerOf",
      "outputs": [
        {
          "internalType": "address",
          "name": "",
          "type": "address"
        }
      ],
      "stateMutability": "view",
      "type": "function"
    },
    {
      "inputs": [
        {
          "internalType": "uint256",
          "name": "",
          "type": "uint256"
        }
      ],
      "name": "owners",
      "outputs": [
        {
          "internalType": "address",
          "name": "",
          "type": "address"
        }
      ],
      "stateMutability": "view",
      "type": "function"
    },
    {
      "inputs": [],
      "name": "renounceOwnership",
      "outputs": [],
      "stateMutability": "nonpayable",
      "type": "function"
    },
    {
      "inputs": [
        {
          "internalType": "address",
          "name": "from",
          "type": "address"
        },
        {
          "internalType": "address",
          "name": "to",
          "type": "address"
        },
        {
          "internalType": "uint256",
          "name": "tokenId",
          "type": "uint256"
        }
      ],
      "name": "safeTransferFrom",
      "outputs": [],
      "stateMutability": "nonpayable",
      "type": "function"
    },
    {
      "inputs": [
        {
          "internalType": "address",
          "name": "from",
          "type": "address"
        },
        {
          "internalType": "address",
          "name": "to",
          "type": "address"
        },
        {
          "internalType": "uint256",
          "name": "tokenId",
          "type": "uint256"
        },
        {
          "internalType": "bytes",
          "name": "_data",
          "type": "bytes"
        }
      ],
      "name": "safeTransferFrom",
      "outputs": [],
      "stateMutability": "nonpayable",
      "type": "function"
    },
    {
      "inputs": [
        {
          "internalType": "address",
          "name": "operator",
          "type": "address"
        },
        {
          "internalType": "bool",
          "name": "approved",
          "type": "bool"
        }
      ],
      "name": "setApprovalForAll",
      "outputs": [],
      "stateMutability": "nonpayable",
      "type": "function"
    },
    {
      "inputs": [
        {
          "internalType": "bytes4",
          "name": "interfaceId",
          "type": "bytes4"
        }
      ],
      "name": "supportsInterface",
      "outputs": [
        {
          "internalType": "bool",
          "name": "",
          "type": "bool"
        }
      ],
      "stateMutability": "view",
      "type": "function"
    },
    {
      "inputs": [],
      "name": "symbol",
      "outputs": [
        {
          "internalType": "string",
          "name": "",
          "type": "string"
        }
      ],
      "stateMutability": "view",
      "type": "function"
    },
    {
      "inputs": [
        {
          "internalType": "uint256",
          "name": "tokenId",
          "type": "uint256"
        }
      ],
      "name": "tokenURI",
      "outputs": [
        {
          "internalType": "string",
          "name": "",
          "type": "string"
        }
      ],
      "stateMutability": "view",
      "type": "function"
    },
    {
      "inputs": [
        {
          "internalType": "address",
          "name": "from",
          "type": "address"
        },
        {
          "internalType": "address",
          "name": "to",
          "type": "address"
        },
        {
          "internalType": "uint256",
          "name": "tokenId",
          "type": "uint256"
        }
      ],
      "name": "transferFrom",
      "outputs": [],
      "stateMutability": "nonpayable",
      "type": "function"
    },
    {
      "inputs": [
        {
          "internalType": "address",
          "name": "newOwner",
          "type": "address"
        }
      ],
      "name": "transferOwnership",
      "outputs": [],
      "stateMutability": "nonpayable",
      "type": "function"
    },
    {
      "inputs": [
        {
          "internalType": "uint256",
          "name": "landId",
          "type": "uint256"
        }
      ],
      "name": "purchase",
      "outputs": [
        {
          "internalType": "uint256",
          "name": "",
          "type": "uint256"
        }
      ],
      "stateMutability": "payable",
      "type": "function"
    },
    {
      "inputs": [],
      "name": "getOwners",
      "outputs": [
        {
          "internalType": "address[100]",
          "name": "",
          "type": "address[100]"
        }
      ],
      "stateMutability": "view",
      "type": "function"
    },
    {
      "inputs": [
        {
          "internalType": "uint256",
          "name": "landId",
          "type": "uint256"
        }
      ],
      "name": "getOwner",
      "outputs": [
        {
          "internalType": "address",
          "name": "owner",
          "type": "address"
        }
      ],
      "stateMutability": "view",
      "type": "function"
    }
  ],
  "bytecode": "0x60806040523480156200001157600080fd5b506040518060400160405280600881526020017f4d6574614c616e640000000000000000000000000000000000000000000000008152506040518060400160405280600381526020017f4d4e440000000000000000000000000000000000000000000000000000000000815250816000908051906020019062000096929190620001a6565b508060019080519060200190620000af929190620001a6565b505050620000d2620000c6620000d860201b60201c565b620000e060201b60201c565b620002bb565b600033905090565b6000600660009054906101000a900473ffffffffffffffffffffffffffffffffffffffff16905081600660006101000a81548173ffffffffffffffffffffffffffffffffffffffff021916908373ffffffffffffffffffffffffffffffffffffffff1602179055508173ffffffffffffffffffffffffffffffffffffffff168173ffffffffffffffffffffffffffffffffffffffff167f8be0079c531659141344cd1fd0a4f28419497f9722a3daafe3b4186f6b6457e060405160405180910390a35050565b828054620001b49062000256565b90600052602060002090601f016020900481019282620001d8576000855562000224565b82601f10620001f357805160ff191683800117855562000224565b8280016001018555821562000224579182015b828111156200022357825182559160200191906001019062000206565b5b50905062000233919062000237565b5090565b5b808211156200025257600081600090555060010162000238565b5090565b600060028204905060018216806200026f57607f821691505b602082108114156200028657620002856200028c565b5b50919050565b7f4e487b7100000000000000000000000000000000000000000000000000000000600052602260045260246000fd5b612f6580620002cb6000396000f3fe60806040526004361061011f5760003560e01c80638da5cb5b116100a0578063c41a360a11610064578063c41a360a146103e5578063c87b56dd14610422578063e985e9c51461045f578063efef39a11461049c578063f2fde38b146104cc5761011f565b80638da5cb5b1461031257806395d89b411461033d578063a0e67e2b14610368578063a22cb46514610393578063b88d4fde146103bc5761011f565b806323b872dd116100e757806323b872dd1461022f57806342842e0e146102585780636352211e1461028157806370a08231146102be578063715018a6146102fb5761011f565b806301ffc9a714610124578063025e7c271461016157806306fdde031461019e578063081812fc146101c9578063095ea7b314610206575b600080fd5b34801561013057600080fd5b5061014b60048036038101906101469190612051565b6104f5565b60405161015891906128c0565b60405180910390f35b34801561016d57600080fd5b50610188600480360381019061018391906120a3565b6105d7565b6040516101959190612806565b60405180910390f35b3480156101aa57600080fd5b506101b361060d565b6040516101c091906128db565b60405180910390f35b3480156101d557600080fd5b506101f060048036038101906101eb91906120a3565b61069f565b6040516101fd9190612806565b60405180910390f35b34801561021257600080fd5b5061022d60048036038101906102289190612015565b610724565b005b34801561023b57600080fd5b5061025660048036038101906102519190611f0f565b61083c565b005b34801561026457600080fd5b5061027f600480360381019061027a9190611f0f565b61089c565b005b34801561028d57600080fd5b506102a860048036038101906102a391906120a3565b6108bc565b6040516102b59190612806565b60405180910390f35b3480156102ca57600080fd5b506102e560048036038101906102e09190611eaa565b61096e565b6040516102f29190612afd565b60405180910390f35b34801561030757600080fd5b50610310610a26565b005b34801561031e57600080fd5b50610327610aae565b6040516103349190612806565b60405180910390f35b34801561034957600080fd5b50610352610ad8565b60405161035f91906128db565b60405180910390f35b34801561037457600080fd5b5061037d610b6a565b60405161038a91906128a4565b60405180910390f35b34801561039f57600080fd5b506103ba60048036038101906103b59190611fd9565b610beb565b005b3480156103c857600080fd5b506103e360048036038101906103de9190611f5e565b610c01565b005b3480156103f157600080fd5b5061040c600480360381019061040791906120a3565b610c63565b6040516104199190612806565b60405180910390f35b34801561042e57600080fd5b50610449600480360381019061044491906120a3565b610cc8565b60405161045691906128db565b60405180910390f35b34801561046b57600080fd5b5061048660048036038101906104819190611ed3565b610d6f565b60405161049391906128c0565b60405180910390f35b6104b660048036038101906104b191906120a3565b610e03565b6040516104c39190612afd565b60405180910390f35b3480156104d857600080fd5b506104f360048036038101906104ee9190611eaa565b610fd5565b005b60007f80ac58cd000000000000000000000000000000000000000000000000000000007bffffffffffffffffffffffffffffffffffffffffffffffffffffffff1916827bffffffffffffffffffffffffffffffffffffffffffffffffffffffff191614806105c057507f5b5e139f000000000000000000000000000000000000000000000000000000007bffffffffffffffffffffffffffffffffffffffffffffffffffffffff1916827bffffffffffffffffffffffffffffffffffffffffffffffffffffffff1916145b806105d057506105cf826110cd565b5b9050919050565b600781606481106105e757600080fd5b016000915054906101000a900473ffffffffffffffffffffffffffffffffffffffff1681565b60606000805461061c90612d5a565b80601f016020809104026020016040519081016040528092919081815260200182805461064890612d5a565b80156106955780601f1061066a57610100808354040283529160200191610695565b820191906000526020600020905b81548152906001019060200180831161067857829003601f168201915b5050505050905090565b60006106aa82611137565b6106e9576040517f08c379a00000000000000000000000000000000000000000000000000000000081526004016106e090612a5d565b60405180910390fd5b6004600083815260200190815260200160002060009054906101000a900473ffffffffffffffffffffffffffffffffffffffff169050919050565b600061072f826108bc565b90508073ffffffffffffffffffffffffffffffffffffffff168373ffffffffffffffffffffffffffffffffffffffff1614156107a0576040517f08c379a000000000000000000000000000000000000000000000000000000000815260040161079790612abd565b60405180910390fd5b8073ffffffffffffffffffffffffffffffffffffffff166107bf6111a3565b73ffffffffffffffffffffffffffffffffffffffff1614806107ee57506107ed816107e86111a3565b610d6f565b5b61082d576040517f08c379a0000000000000000000000000000000000000000000000000000000008152600401610824906129dd565b60405180910390fd5b61083783836111ab565b505050565b61084d6108476111a3565b82611264565b61088c576040517f08c379a000000000000000000000000000000000000000000000000000000000815260040161088390612add565b60405180910390fd5b610897838383611342565b505050565b6108b783838360405180602001604052806000815250610c01565b505050565b6000806002600084815260200190815260200160002060009054906101000a900473ffffffffffffffffffffffffffffffffffffffff169050600073ffffffffffffffffffffffffffffffffffffffff168173ffffffffffffffffffffffffffffffffffffffff161415610965576040517f08c379a000000000000000000000000000000000000000000000000000000000815260040161095c90612a1d565b60405180910390fd5b80915050919050565b60008073ffffffffffffffffffffffffffffffffffffffff168273ffffffffffffffffffffffffffffffffffffffff1614156109df576040517f08c379a00000000000000000000000000000000000000000000000000000000081526004016109d6906129fd565b60405180910390fd5b600360008373ffffffffffffffffffffffffffffffffffffffff1673ffffffffffffffffffffffffffffffffffffffff168152602001908152602001600020549050919050565b610a2e6111a3565b73ffffffffffffffffffffffffffffffffffffffff16610a4c610aae565b73ffffffffffffffffffffffffffffffffffffffff1614610aa2576040517f08c379a0000000000000000000000000000000000000000000000000000000008152600401610a9990612a7d565b60405180910390fd5b610aac60006115a9565b565b6000600660009054906101000a900473ffffffffffffffffffffffffffffffffffffffff16905090565b606060018054610ae790612d5a565b80601f0160208091040260200160405190810160405280929190818152602001828054610b1390612d5a565b8015610b605780601f10610b3557610100808354040283529160200191610b60565b820191906000526020600020905b815481529060010190602001808311610b4357829003601f168201915b5050505050905090565b610b72611db6565b6007606480602002604051908101604052809291908260648015610be1576020028201915b8160009054906101000a900473ffffffffffffffffffffffffffffffffffffffff1673ffffffffffffffffffffffffffffffffffffffff1681526020019060010190808311610b97575b5050505050905090565b610bfd610bf66111a3565b838361166f565b5050565b610c12610c0c6111a3565b83611264565b610c51576040517f08c379a0000000000000000000000000000000000000000000000000000000008152600401610c4890612add565b60405180910390fd5b610c5d848484846117dc565b50505050565b600060078260648110610c9f577f4e487b7100000000000000000000000000000000000000000000000000000000600052603260045260246000fd5b0160009054906101000a900473ffffffffffffffffffffffffffffffffffffffff169050919050565b6060610cd382611137565b610d12576040517f08c379a0000000000000000000000000000000000000000000000000000000008152600401610d0990612a9d565b60405180910390fd5b6000610d1c611838565b90506000815111610d3c5760405180602001604052806000815250610d67565b80610d468461184f565b604051602001610d579291906127e2565b6040516020818303038152906040525b915050919050565b6000600560008473ffffffffffffffffffffffffffffffffffffffff1673ffffffffffffffffffffffffffffffffffffffff16815260200190815260200160002060008373ffffffffffffffffffffffffffffffffffffffff1673ffffffffffffffffffffffffffffffffffffffff16815260200190815260200160002060009054906101000a900460ff16905092915050565b6000808210158015610e16575060638211155b610e1f57600080fd5b600073ffffffffffffffffffffffffffffffffffffffff1660078360648110610e71577f4e487b7100000000000000000000000000000000000000000000000000000000600052603260045260246000fd5b0160009054906101000a900473ffffffffffffffffffffffffffffffffffffffff1673ffffffffffffffffffffffffffffffffffffffff1614610eb357600080fd5b610ebd33836119fc565b3360078360648110610ef8577f4e487b7100000000000000000000000000000000000000000000000000000000600052603260045260246000fd5b0160006101000a81548173ffffffffffffffffffffffffffffffffffffffff021916908373ffffffffffffffffffffffffffffffffffffffff1602179055507fed9e0dc5479152698d99195d219992bd45798ef9712b0e94058cd0a9c614ce99338360078560648110610f94577f4e487b7100000000000000000000000000000000000000000000000000000000600052603260045260246000fd5b0160009054906101000a900473ffffffffffffffffffffffffffffffffffffffff16604051610fc59392919061286d565b60405180910390a1819050919050565b610fdd6111a3565b73ffffffffffffffffffffffffffffffffffffffff16610ffb610aae565b73ffffffffffffffffffffffffffffffffffffffff1614611051576040517f08c379a000000000000000000000000000000000000000000000000000000000815260040161104890612a7d565b60405180910390fd5b600073ffffffffffffffffffffffffffffffffffffffff168173ffffffffffffffffffffffffffffffffffffffff1614156110c1576040517f08c379a00000000000000000000000000000000000000000000000000000000081526004016110b89061291d565b60405180910390fd5b6110ca816115a9565b50565b60007f01ffc9a7000000000000000000000000000000000000000000000000000000007bffffffffffffffffffffffffffffffffffffffffffffffffffffffff1916827bffffffffffffffffffffffffffffffffffffffffffffffffffffffff1916149050919050565b60008073ffffffffffffffffffffffffffffffffffffffff166002600084815260200190815260200160002060009054906101000a900473ffffffffffffffffffffffffffffffffffffffff1673ffffffffffffffffffffffffffffffffffffffff1614159050919050565b600033905090565b816004600083815260200190815260200160002060006101000a81548173ffffffffffffffffffffffffffffffffffffffff021916908373ffffffffffffffffffffffffffffffffffffffff160217905550808273ffffffffffffffffffffffffffffffffffffffff1661121e836108bc565b73ffffffffffffffffffffffffffffffffffffffff167f8c5be1e5ebec7d5bd14f71427d1e84f3dd0314c0f7b2291e5b200ac8c7c3b92560405160405180910390a45050565b600061126f82611137565b6112ae576040517f08c379a00000000000000000000000000000000000000000000000000000000081526004016112a5906129bd565b60405180910390fd5b60006112b9836108bc565b90508073ffffffffffffffffffffffffffffffffffffffff168473ffffffffffffffffffffffffffffffffffffffff16148061132857508373ffffffffffffffffffffffffffffffffffffffff166113108461069f565b73ffffffffffffffffffffffffffffffffffffffff16145b8061133957506113388185610d6f565b5b91505092915050565b8273ffffffffffffffffffffffffffffffffffffffff16611362826108bc565b73ffffffffffffffffffffffffffffffffffffffff16146113b8576040517f08c379a00000000000000000000000000000000000000000000000000000000081526004016113af9061293d565b60405180910390fd5b600073ffffffffffffffffffffffffffffffffffffffff168273ffffffffffffffffffffffffffffffffffffffff161415611428576040517f08c379a000000000000000000000000000000000000000000000000000000000815260040161141f9061297d565b60405180910390fd5b611433838383611bd6565b61143e6000826111ab565b6001600360008573ffffffffffffffffffffffffffffffffffffffff1673ffffffffffffffffffffffffffffffffffffffff168152602001908152602001600020600082825461148e9190612c70565b925050819055506001600360008473ffffffffffffffffffffffffffffffffffffffff1673ffffffffffffffffffffffffffffffffffffffff16815260200190815260200160002060008282546114e59190612be9565b92505081905550816002600083815260200190815260200160002060006101000a81548173ffffffffffffffffffffffffffffffffffffffff021916908373ffffffffffffffffffffffffffffffffffffffff160217905550808273ffffffffffffffffffffffffffffffffffffffff168473ffffffffffffffffffffffffffffffffffffffff167fddf252ad1be2c89b69c2b068fc378daa952ba7f163c4a11628f55a4df523b3ef60405160405180910390a46115a4838383611bdb565b505050565b6000600660009054906101000a900473ffffffffffffffffffffffffffffffffffffffff16905081600660006101000a81548173ffffffffffffffffffffffffffffffffffffffff021916908373ffffffffffffffffffffffffffffffffffffffff1602179055508173ffffffffffffffffffffffffffffffffffffffff168173ffffffffffffffffffffffffffffffffffffffff167f8be0079c531659141344cd1fd0a4f28419497f9722a3daafe3b4186f6b6457e060405160405180910390a35050565b8173ffffffffffffffffffffffffffffffffffffffff168373ffffffffffffffffffffffffffffffffffffffff1614156116de576040517f08c379a00000000000000000000000000000000000000000000000000000000081526004016116d59061299d565b60405180910390fd5b80600560008573ffffffffffffffffffffffffffffffffffffffff1673ffffffffffffffffffffffffffffffffffffffff16815260200190815260200160002060008473ffffffffffffffffffffffffffffffffffffffff1673ffffffffffffffffffffffffffffffffffffffff16815260200190815260200160002060006101000a81548160ff0219169083151502179055508173ffffffffffffffffffffffffffffffffffffffff168373ffffffffffffffffffffffffffffffffffffffff167f17307eab39ab6107e8899845ad3d59bd9653f200f220920489ca2b5937696c31836040516117cf91906128c0565b60405180910390a3505050565b6117e7848484611342565b6117f384848484611be0565b611832576040517f08c379a0000000000000000000000000000000000000000000000000000000008152600401611829906128fd565b60405180910390fd5b50505050565b606060405180602001604052806000815250905090565b60606000821415611897576040518060400160405280600181526020017f300000000000000000000000000000000000000000000000000000000000000081525090506119f7565b600082905060005b600082146118c95780806118b290612d8c565b915050600a826118c29190612c3f565b915061189f565b60008167ffffffffffffffff81111561190b577f4e487b7100000000000000000000000000000000000000000000000000000000600052604160045260246000fd5b6040519080825280601f01601f19166020018201604052801561193d5781602001600182028036833780820191505090505b5090505b600085146119f0576001826119569190612c70565b9150600a856119659190612dd5565b60306119719190612be9565b60f81b8183815181106119ad577f4e487b7100000000000000000000000000000000000000000000000000000000600052603260045260246000fd5b60200101907effffffffffffffffffffffffffffffffffffffffffffffffffffffffffffff1916908160001a905350600a856119e99190612c3f565b9450611941565b8093505050505b919050565b600073ffffffffffffffffffffffffffffffffffffffff168273ffffffffffffffffffffffffffffffffffffffff161415611a6c576040517f08c379a0000000000000000000000000000000000000000000000000000000008152600401611a6390612a3d565b60405180910390fd5b611a7581611137565b15611ab5576040517f08c379a0000000000000000000000000000000000000000000000000000000008152600401611aac9061295d565b60405180910390fd5b611ac160008383611bd6565b6001600360008473ffffffffffffffffffffffffffffffffffffffff1673ffffffffffffffffffffffffffffffffffffffff1681526020019081526020016000206000828254611b119190612be9565b92505081905550816002600083815260200190815260200160002060006101000a81548173ffffffffffffffffffffffffffffffffffffffff021916908373ffffffffffffffffffffffffffffffffffffffff160217905550808273ffffffffffffffffffffffffffffffffffffffff16600073ffffffffffffffffffffffffffffffffffffffff167fddf252ad1be2c89b69c2b068fc378daa952ba7f163c4a11628f55a4df523b3ef60405160405180910390a4611bd260008383611bdb565b5050565b505050565b505050565b6000611c018473ffffffffffffffffffffffffffffffffffffffff16611d77565b15611d6a578373ffffffffffffffffffffffffffffffffffffffff1663150b7a02611c2a6111a3565b8786866040518563ffffffff1660e01b8152600401611c4c9493929190612821565b602060405180830381600087803b158015611c6657600080fd5b505af1925050508015611c9757506040513d601f19601f82011682018060405250810190611c94919061207a565b60015b611d1a573d8060008114611cc7576040519150601f19603f3d011682016040523d82523d6000602084013e611ccc565b606091505b50600081511415611d12576040517f08c379a0000000000000000000000000000000000000000000000000000000008152600401611d09906128fd565b60405180910390fd5b805181602001fd5b63150b7a0260e01b7bffffffffffffffffffffffffffffffffffffffffffffffffffffffff1916817bffffffffffffffffffffffffffffffffffffffffffffffffffffffff191614915050611d6f565b600190505b949350505050565b6000808273ffffffffffffffffffffffffffffffffffffffff16803b806020016040519081016040528181526000908060200190933c51119050919050565b60405180610c800160405280606490602082028036833780820191505090505090565b6000611dec611de784612b49565b612b18565b905082815260208101848484011115611e0457600080fd5b611e0f848285612d18565b509392505050565b600081359050611e2681612ed3565b92915050565b600081359050611e3b81612eea565b92915050565b600081359050611e5081612f01565b92915050565b600081519050611e6581612f01565b92915050565b600082601f830112611e7c57600080fd5b8135611e8c848260208601611dd9565b91505092915050565b600081359050611ea481612f18565b92915050565b600060208284031215611ebc57600080fd5b6000611eca84828501611e17565b91505092915050565b60008060408385031215611ee657600080fd5b6000611ef485828601611e17565b9250506020611f0585828601611e17565b9150509250929050565b600080600060608486031215611f2457600080fd5b6000611f3286828701611e17565b9350506020611f4386828701611e17565b9250506040611f5486828701611e95565b9150509250925092565b60008060008060808587031215611f7457600080fd5b6000611f8287828801611e17565b9450506020611f9387828801611e17565b9350506040611fa487828801611e95565b925050606085013567ffffffffffffffff811115611fc157600080fd5b611fcd87828801611e6b565b91505092959194509250565b60008060408385031215611fec57600080fd5b6000611ffa85828601611e17565b925050602061200b85828601611e2c565b9150509250929050565b6000806040838503121561202857600080fd5b600061203685828601611e17565b925050602061204785828601611e95565b9150509250929050565b60006020828403121561206357600080fd5b600061207184828501611e41565b91505092915050565b60006020828403121561208c57600080fd5b600061209a84828501611e56565b91505092915050565b6000602082840312156120b557600080fd5b60006120c384828501611e95565b91505092915050565b60006120d883836120e4565b60208301905092915050565b6120ed81612ca4565b82525050565b6120fc81612ca4565b82525050565b61210b81612b83565b6121158184612bb1565b925061212082612b79565b8060005b8381101561215157815161213887826120cc565b965061214383612ba4565b925050600181019050612124565b505050505050565b61216281612cb6565b82525050565b600061217382612b8e565b61217d8185612bbc565b935061218d818560208601612d27565b61219681612ec2565b840191505092915050565b60006121ac82612b99565b6121b68185612bcd565b93506121c6818560208601612d27565b6121cf81612ec2565b840191505092915050565b60006121e582612b99565b6121ef8185612bde565b93506121ff818560208601612d27565b80840191505092915050565b6000612218603283612bcd565b91507f4552433732313a207472616e7366657220746f206e6f6e20455243373231526560008301527f63656976657220696d706c656d656e74657200000000000000000000000000006020830152604082019050919050565b600061227e602683612bcd565b91507f4f776e61626c653a206e6577206f776e657220697320746865207a65726f206160008301527f64647265737300000000000000000000000000000000000000000000000000006020830152604082019050919050565b60006122e4602583612bcd565b91507f4552433732313a207472616e736665722066726f6d20696e636f72726563742060008301527f6f776e65720000000000000000000000000000000000000000000000000000006020830152604082019050919050565b600061234a601c83612bcd565b91507f4552433732313a20746f6b656e20616c7265616479206d696e746564000000006000830152602082019050919050565b600061238a602483612bcd565b91507f4552433732313a207472616e7366657220746f20746865207a65726f2061646460008301527f72657373000000000000000000000000000000000000000000000000000000006020830152604082019050919050565b60006123f0601983612bcd565b91507f4552433732313a20617070726f766520746f2063616c6c6572000000000000006000830152602082019050919050565b6000612430602c83612bcd565b91507f4552433732313a206f70657261746f7220717565727920666f72206e6f6e657860008301527f697374656e7420746f6b656e00000000000000000000000000000000000000006020830152604082019050919050565b6000612496603883612bcd565b91507f4552433732313a20617070726f76652063616c6c6572206973206e6f74206f7760008301527f6e6572206e6f7220617070726f76656420666f7220616c6c00000000000000006020830152604082019050919050565b60006124fc602a83612bcd565b91507f4552433732313a2062616c616e636520717565727920666f7220746865207a6560008301527f726f2061646472657373000000000000000000000000000000000000000000006020830152604082019050919050565b6000612562602983612bcd565b91507f4552433732313a206f776e657220717565727920666f72206e6f6e657869737460008301527f656e7420746f6b656e00000000000000000000000000000000000000000000006020830152604082019050919050565b60006125c8602083612bcd565b91507f4552433732313a206d696e7420746f20746865207a65726f20616464726573736000830152602082019050919050565b6000612608602c83612bcd565b91507f4552433732313a20617070726f76656420717565727920666f72206e6f6e657860008301527f697374656e7420746f6b656e00000000000000000000000000000000000000006020830152604082019050919050565b600061266e602083612bcd565b91507f4f776e61626c653a2063616c6c6572206973206e6f7420746865206f776e65726000830152602082019050919050565b60006126ae602f83612bcd565b91507f4552433732314d657461646174613a2055524920717565727920666f72206e6f60008301527f6e6578697374656e7420746f6b656e00000000000000000000000000000000006020830152604082019050919050565b6000612714602183612bcd565b91507f4552433732313a20617070726f76616c20746f2063757272656e74206f776e6560008301527f72000000000000000000000000000000000000000000000000000000000000006020830152604082019050919050565b600061277a603183612bcd565b91507f4552433732313a207472616e736665722063616c6c6572206973206e6f74206f60008301527f776e6572206e6f7220617070726f7665640000000000000000000000000000006020830152604082019050919050565b6127dc81612d0e565b82525050565b60006127ee82856121da565b91506127fa82846121da565b91508190509392505050565b600060208201905061281b60008301846120f3565b92915050565b600060808201905061283660008301876120f3565b61284360208301866120f3565b61285060408301856127d3565b81810360608301526128628184612168565b905095945050505050565b600060608201905061288260008301866120f3565b61288f60208301856127d3565b61289c60408301846120f3565b949350505050565b6000610c80820190506128ba6000830184612102565b92915050565b60006020820190506128d56000830184612159565b92915050565b600060208201905081810360008301526128f581846121a1565b905092915050565b600060208201905081810360008301526129168161220b565b9050919050565b6000602082019050818103600083015261293681612271565b9050919050565b60006020820190508181036000830152612956816122d7565b9050919050565b600060208201905081810360008301526129768161233d565b9050919050565b600060208201905081810360008301526129968161237d565b9050919050565b600060208201905081810360008301526129b6816123e3565b9050919050565b600060208201905081810360008301526129d681612423565b9050919050565b600060208201905081810360008301526129f681612489565b9050919050565b60006020820190508181036000830152612a16816124ef565b9050919050565b60006020820190508181036000830152612a3681612555565b9050919050565b60006020820190508181036000830152612a56816125bb565b9050919050565b60006020820190508181036000830152612a76816125fb565b9050919050565b60006020820190508181036000830152612a9681612661565b9050919050565b60006020820190508181036000830152612ab6816126a1565b9050919050565b60006020820190508181036000830152612ad681612707565b9050919050565b60006020820190508181036000830152612af68161276d565b9050919050565b6000602082019050612b1260008301846127d3565b92915050565b6000604051905081810181811067ffffffffffffffff82111715612b3f57612b3e612e93565b5b8060405250919050565b600067ffffffffffffffff821115612b6457612b63612e93565b5b601f19601f8301169050602081019050919050565b6000819050919050565b600060649050919050565b600081519050919050565b600081519050919050565b6000602082019050919050565b600081905092915050565b600082825260208201905092915050565b600082825260208201905092915050565b600081905092915050565b6000612bf482612d0e565b9150612bff83612d0e565b9250827fffffffffffffffffffffffffffffffffffffffffffffffffffffffffffffffff03821115612c3457612c33612e06565b5b828201905092915050565b6000612c4a82612d0e565b9150612c5583612d0e565b925082612c6557612c64612e35565b5b828204905092915050565b6000612c7b82612d0e565b9150612c8683612d0e565b925082821015612c9957612c98612e06565b5b828203905092915050565b6000612caf82612cee565b9050919050565b60008115159050919050565b60007fffffffff0000000000000000000000000000000000000000000000000000000082169050919050565b600073ffffffffffffffffffffffffffffffffffffffff82169050919050565b6000819050919050565b82818337600083830152505050565b60005b83811015612d45578082015181840152602081019050612d2a565b83811115612d54576000848401525b50505050565b60006002820490506001821680612d7257607f821691505b60208210811415612d8657612d85612e64565b5b50919050565b6000612d9782612d0e565b91507fffffffffffffffffffffffffffffffffffffffffffffffffffffffffffffffff821415612dca57612dc9612e06565b5b600182019050919050565b6000612de082612d0e565b9150612deb83612d0e565b925082612dfb57612dfa612e35565b5b828206905092915050565b7f4e487b7100000000000000000000000000000000000000000000000000000000600052601160045260246000fd5b7f4e487b7100000000000000000000000000000000000000000000000000000000600052601260045260246000fd5b7f4e487b7100000000000000000000000000000000000000000000000000000000600052602260045260246000fd5b7f4e487b7100000000000000000000000000000000000000000000000000000000600052604160045260246000fd5b6000601f19601f8301169050919050565b612edc81612ca4565b8114612ee757600080fd5b50565b612ef381612cb6565b8114612efe57600080fd5b50565b612f0a81612cc2565b8114612f1557600080fd5b50565b612f2181612d0e565b8114612f2c57600080fd5b5056fea26469706673582212202deffabc967452b26a29d9935f515cf332f8afb4a6bb733227f539af28d83b4264736f6c63430008000033",
  "immutableReferences": {},
  "source": "// SPDX-License-Identifier: MIT\r\npragma solidity ^0.8.0;\r\nimport \"./tokens/ERC721.sol\";\r\nimport \"./Ownable.sol\";\r\n\r\ncontract PurchaseLand is ERC721, Ownable {\r\n    address[100] public owners;\r\n    uint256 balance;\r\n\r\n    event LandBought(address indexedFrom, uint256 landId, address owner);\r\n\r\n    constructor() ERC721(\"MetaLand\", \"MND\") {}\r\n\r\n    function purchase(uint256 landId) public payable returns (uint256) {\r\n        require(landId >= 0 && landId <= 99);\r\n        require(owners[landId] == 0x0000000000000000000000000000000000000000);\r\n        _mint(msg.sender, landId);\r\n        owners[landId] = msg.sender;\r\n        emit LandBought(msg.sender, landId, owners[landId]);\r\n        return landId;\r\n    }\r\n    // Retrieving the owners\r\n    function getOwners() public view returns (address[100] memory) {\r\n        return owners;\r\n    }\r\n    // Retrieving specific owner\r\n    function getOwner(uint256 landId) public view returns (address owner) {\r\n        return owners[landId];\r\n    }\r\n}\r\n",
  "sourcePath": "B:\\webAfeka\\BlockChain\\metaland\\eth-todo-list-react\\contracts\\PurchaseLand.sol",
  "compiler": {
    "name": "solc",
    "version": "0.8.0+commit.c7dfd78e.Emscripten.clang"
  },
  "schemaVersion": "3.4.4",
  "updatedAt": "2022-02-25T10:11:25.436Z",
  "devdoc": {
    "kind": "dev",
    "methods": {
      "approve(address,uint256)": {
        "details": "See {IERC721-approve}."
      },
      "balanceOf(address)": {
        "details": "See {IERC721-balanceOf}."
      },
      "getApproved(uint256)": {
        "details": "See {IERC721-getApproved}."
      },
      "isApprovedForAll(address,address)": {
        "details": "See {IERC721-isApprovedForAll}."
      },
      "name()": {
        "details": "See {IERC721Metadata-name}."
      },
      "owner()": {
        "details": "Returns the address of the current owner."
      },
      "ownerOf(uint256)": {
        "details": "See {IERC721-ownerOf}."
      },
      "renounceOwnership()": {
        "details": "Leaves the contract without owner. It will not be possible to call `onlyOwner` functions anymore. Can only be called by the current owner. NOTE: Renouncing ownership will leave the contract without an owner, thereby removing any functionality that is only available to the owner."
      },
      "safeTransferFrom(address,address,uint256)": {
        "details": "See {IERC721-safeTransferFrom}."
      },
      "safeTransferFrom(address,address,uint256,bytes)": {
        "details": "See {IERC721-safeTransferFrom}."
      },
      "setApprovalForAll(address,bool)": {
        "details": "See {IERC721-setApprovalForAll}."
      },
      "supportsInterface(bytes4)": {
        "details": "See {IERC165-supportsInterface}."
      },
      "symbol()": {
        "details": "See {IERC721Metadata-symbol}."
      },
      "tokenURI(uint256)": {
        "details": "See {IERC721Metadata-tokenURI}."
      },
      "transferFrom(address,address,uint256)": {
        "details": "See {IERC721-transferFrom}."
      },
      "transferOwnership(address)": {
        "details": "Transfers ownership of the contract to a new account (`newOwner`). Can only be called by the current owner."
      }
    },
    "version": 1
  },
  "userdoc": {
    "kind": "user",
    "methods": {},
    "version": 1
  }
}